:020000040800F2
:1000000010290020210701083107010833070108E2
:10001000350701083707010839070108000000000B
:100020000000000000000000000000003B07010885
:100030003D070108000000003F0701081109010801
:1000400015090108190901081D09010821090108FC
:1000500025090108290901082D09010831090108AC
:1000600035090108390901083D090108410901085C
:1000700045090108490901084D090108510901080C
:1000800055090108590901085D09010861090108BC
:1000900065090108690901086D090108710901086C
:1000A00075090108790901087D090108810901081C
:1000B0006BD700085DD900088D0901089109010876
:1000C00095090108990901089D090108A10901087C
:1000D000A509010819A300085BA30008E3A3000811
:1000E000B5090108B9090108BD090108C1090108DC
:1000F000C5090108C9090108CD090108D10901088C
:10010000D5090108D9090108DD090108E10901083B
:100110006BA40008ADA40008ED090108F10901086D
:10012000F5090108F9090108FD090108010A01089A
:100130000021401C002106E0DFF8502B8A181279BC
:100140000270401C491C0429F6DB704780B5DFF8BB
:10015000081A0978002903D002291BD00DD336E0F4
:10016000002001F087FD002806D0DFF8EC090078B8
:10017000401CDFF8E419087029E0C0B201F010FE5D
:10018000002806D0DFF8D0090078401CDFF8C81935
:1001900008701CE002F012F8002817D00020DFF8E9
:1001A000B81908700020DFF8B419087003F025FAB8
:1001B000DFF8AC290021022004F0FFFD0120DFF868
:1001C000A41908700020DFF8C81A0870FFE701BD05
:1001D0002DE9F04385B004000D005FF00009002117
:1001E0000026002000276846102104F005FF5FF07C
:1001F00000085FF0000901E019F101095FFA89F9CF
:10020000B9F1FF0F18D0200004F0FAFE0200DFF869
:10021000840A5FFA89F919EB0001200004F00CFF51
:1002200000280ED10020DFF840190870200004F0EB
:10023000E7FE10EB09084F465FF000090121404638
:100240000DE05FFA89F9B9F1FA0FD5DBFF2084E000
:10025000DFF8402AC0B2825C202A15D1401CC0B20F
:10026000FF282AD0DFF82C2AC0B2825C2C2AEFD1DA
:10027000491E6A465FFA89F9052303FB09221170BA
:1002800019F10109012142E0DFF8082AC0B2825CBD
:100290000D2A01D101263AE0DFF8F829C0B2825CCC
:1002A0000A2A27D1F6B2002E20D0481E69465FFAEE
:1002B00089F9052202FB091108705FFA88F800220B
:1002C000DFF8D009FFB23C184146200004F0E6FEFA
:1002D0009DF8050002283BD19DF806000A219DF8F3
:1002E000072001FB00201038287035E05FF000097E
:1002F00001210CE06A465FFA89F9052303FB092214
:10030000C9B2DFF89039C0B2C35C8B54491C5FFAA4
:1003100089F9B9F1030F01DB5FF00209C9B20529C0
:1003200000DB042118F101085FFA88F8B8F1FF0F2B
:1003300094D10020DFF830180870FF210022DFF888
:100340005449200004F0AAFE5FF00008FF2004E0FA
:100350009DF8060030382870002005B0BDE8F08315
:1003600038B504000025002500E06D1CEDB2FF2D1E
:100370001AD0200004F044FE0200DFF81809EDB2A4
:100380002918200004F058FE0028EED1200004F0C7
:1003900037FE01000022DFF8FC08EDB22C18200027
:1003A00004F07CFE012000E0002032BD80B5DFF8C3
:1003B000E808007819280CDBDFF8E008007800284E
:1003C00007D00020DFF8D01808700120DFF8D0181F
:1003D0000870DFF8CC080078002801D002F07FFA1E
:1003E00001BD80B501789A2904DA017811F00F0176
:1003F0000A2905DB012101700121DFF8A82811700D
:10040000401C0178132907DA0178002904D001780B
:1004100011F00F010A2905DB012101700121DFF82C
:1004200084281170401C0178322907DA01780029EC
:1004300004D0017811F00F010A2905DB01210170B8
:100440000121DFF860281170401C0178252904DAA9
:10045000017811F00F010A2905DB0121017001214A
:10046000DFF840281170401C0178612904DA017816
:1004700011F00F010A2905DB012101700121DFF8CC
:1004800024281170401C0178612904DA017811F0E8
:100490000F010A2905DB012101700120DFF8041892
:1004A0000870DFF800080078002813D00020DFF87B
:1004B000F417087003F0A1F8DFF8EC270021022000
:1004C00004F07BFC0120DFF89C1608700020DFF8A8
:1004D000C017087001BD10B586B0002005240021AA
:1004E00001A80021002206C008386846DFF8BC17C2
:1004F0000A68026003A8DFF8B8170CC90CC00839F5
:100500000838DFF8B0070078002804D0DFF88C073F
:10051000007800280BD0DFF8A0070078002800F052
:10052000C080DFF878070078002840F0BA80DFF854
:100530008C070078002840F084800120DFF87C17C9
:100540000870DFF87C07FFF7F3FDDFF87807007825
:1005500000280FD00020C0B2152849DADFF868174C
:10056000C0B24118497ADFF85827C0B28218117317
:10057000401CF0E7022101A804F000FF01A8FFF7EA
:1005800030FF002009E001A9E4B2615CDFF8302708
:10059000C0B282181173641E401CC0B20628F2DB80
:1005A000002008E06946C0B2415CDFF81427C0B201
:1005B00082189174401CC0B20428F3DB002008E0CC
:1005C00003A9C0B2415CDFF8F826C0B28218917569
:1005D000401CC0B20528F3DB002006E00021DFF854
:1005E000E026C0B28218D176401CC0B20628F5DBE6
:1005F00004F03AFFFF2190FBF1F201FB1201080029
:10060000C0B20009DFF8B826507211F00F00DFF811
:10061000B01688721521DFF8B40605F0DBFFDFF8AD
:10062000A01681F821002021DFF8A40606F0AAF91F
:10063000DFF88C1681F82200FF20DFF8841681F89D
:100640002300DFF8900600880B282ADB0020DFF863
:1006500084160880DFF880060078002810D0DFF8C4
:1006600060362422DFF874060168DFF8740602F0B1
:1006700037F8002815D00120DFF82016087010E0A8
:10068000DFF86006007800280BD000222421DFF874
:10069000300606F02AFD002803D00120DFF8FC1503
:1006A0000870DFF844060078052864DBDFF8EC0505
:1006B000007801285FD1DFF83406007800285AD18D
:1006C0000020DFF824160870DFF824060078401CAC
:1006D000DFF81C160870DFF81C060078002821D00F
:1006E000DFF814260221042004F067FB0020DFF865
:1006F000041608700020DFF8F81508700220DFF8F3
:100700009C1508700020DFF8F41508700020DFF851
:10071000F01508800020DFF8EC1508800020DFF8D5
:1007200078150870DFF8C8050078032823DB00205F
:10073000DFF8BC1508700020DFF860150870002095
:10074000DFF878150870DFF8C0050078401CDFF886
:10075000B8150870DFF8B005007804280BDB00201E
:10076000DFF8A415087002F048FFDFF8A02500218B
:10077000022004F022FB06B010BD80B5DFF8901512
:100780000978142906DB0021DFF884251170C0B236
:10079000FFF7DCFC01BD7EB4002200236A46002482
:1007A0000025002670C20C3A002212E0D2B2145C7E
:1007B0002F2C0DD0D2B2145C2C2C09D0D2B2145CE8
:1007C0003A2C05D0D2B2145C6D46DBB25C555B1C92
:1007D000521CD2B2112AE9DB00220EE06846D2B2E6
:1007E00010F812006B46D2B213EB42035B7813EBA6
:1007F00000103038D2B25054521CD2B2062AEDDB6F
:1008000077BC704780B5DFF80C050078022861D10D
:1008100002F0F3FEDFF8FC04407801280BD1402100
:10082000DFF8F40408F0CEFDDFF8F0240021022008
:1008300004F0C3FA0FE0DFF8DC04407802280AD1A4
:100840004021DFF8D40408F0C0FDDFF8D4240021F3
:10085000022004F0B2FADFF8BC04C0784FF48071D3
:10086000DFF8B024927801FB0020DFF8B81408808C
:10087000DFF8A00440794FF48071DFF898241279F2
:1008800001FB0020DFF8A0140880DFF8A02402217B
:10089000022004F092FA0223DFF8942404210220BB
:1008A00004F09DFA30A20721022004F086FADFF856
:1008B00084240221032004F080FA0223DFF8782444
:1008C0000421032004F08BFA27A20721032004F05F
:1008D00074FA3BE0DFF83C040078012808D102F00C
:1008E0008CFEDFF858240021022004F066FA2DE087
:1008F000DFF820040078032828D102F07EFEDFF81C
:1009000040240021022004F058FADFF8080440785F
:1009100001280BD14021DFF8000408F053FDDFF877
:1009200024240421022004F048FA0FE0DFF8E40355
:10093000407802280AD14021DFF8DC0308F045FDA9
:10094000DFF804240421022004F037FA0B21DFF839
:10095000FC0306F017F8DFF8F8130873FF20DFF840
:10096000F013487301BD0000D4AA000010B50400C4
:1009700000206078212840F0C280A078012803D0B0
:100980002079DFF8D013087002F037FEA078012834
:100990000BD002281AD0032831D0052851D00628C0
:1009A0006BD0092800F08680A6E00120DFF8441310
:1009B0000870DFF8A4230021022004F0FEF90120D2
:1009C000684908700020B249087095E00120DFF8FE
:1009D0008C1308706079DFF888130870A079DFF84D
:1009E00080134870DFF87C230021022004F0E5F931
:1009F00001205C4908700020A54908707CE00120B6
:100A0000DFF864130870607A4FF48071227A01FB7A
:100A10000020DFF8581308806079DFF8441308706D
:100A2000A079DFF83C134870DFF84423002102204E
:100A300004F0C3F901204B49087000209449087064
:100A40005AE00120DFF82C130870DFF82C1314F1A2
:100A50000800FFF7A0FE6079C1490870A079C0497D
:100A60004870C64A0021022004F0A7F901203D4940
:100A700008700020864908703EE00120C0490870D7
:100A8000607A4FF48071227A01FB0020BD49088012
:100A90006079B3490870A079B1494870BA4A002119
:100AA000022004F08AF901202E49087000207849BC
:100AB000087021E00120B549087001208D490870B7
:100AC000002006E0C0B20119097A924AC0B28154EE
:100AD000401CC0B20628F5DB9D48FFF729FB607972
:100AE0009B494872A0799A49887201201D49087073
:100AF000002067490870FFE70020A0702AE06078B6
:100B0000812827D1207993490870A0782D2821D1F8
:100B100001209F49087000209E4908706079904923
:100B20000870A0798E494870002006E0C0B2011913
:100B3000097A994AC0B28154401CC0B2E17908399F
:100B40008842F3DB9448007D412802D1012093497B
:100B50000870FFE710BD0000CE18002078180020B4
:100B60001C0401086B1800206618002000210021D9
:100B700003E000220270401C491CC9B23C29F8DB8A
:100B8000704780B586480078002820D00020424970
:100B9000087001208349087001205449087001F051
:100BA0009EFE8148007800286FD040215A4808F006
:100BB00009FC01207D49087000207B490870012054
:100BC000DFF8A81D08707A48FFF7D0FE5DE079488D
:100BD0000078152859DBDFF8940D0078002854D0F0
:100BE00000207449087074480078401C72490870ED
:100BF00072480078401C71490870564800780128F6
:100C000034D100206C4908705A480078002804D07C
:100C10003148007807F0B8FE28E0534800780028F3
:100C200005D063492C48007807F04AFF1EE054487D
:100C30000078002805D05E492748007807F0E4FFD7
:100C400014E052480078002804D02348007808F0C7
:100C500091F80BE04E480078002807D01E48007835
:100C600008F090FA1C48007808F000F95248007823
:100C70001F280ADB0020504908700020DFF8F01C14
:100C800008700020DFF8E41C087001BDAC170020DC
:100C9000921800204411002097180020E618002028
:100CA000ED180020EE18002030040108EC080108BF
:100CB000AC080108EC1800209B180020E718002061
:100CC0000C070020B7180020E406002018070020B9
:100CD0000D07002081180020B918002004180020FA
:100CE00058170020BA18002082180020C3180020CE
:100CF000EA180020DA180020B4080108B51800200E
:100D00005018002048180020EB180020B0060108F9
:100D10007C180020E017002000080140BC080108F2
:100D2000C40801085C1800205A180020CC080108EB
:100D3000E2170020D4080108E41700204404010849
:100D4000D0070108DC070108E8070108F1070020C7
:100D5000F0070020E818002058040108DC180020E3
:100D6000300900206C040108DD1800204018002024
:100D700080040108DB1800204417002094040108B7
:100D8000DE18002042180020A8040108DF18002007
:100D9000E2180020E118002044150020E31800208C
:100DA000CD180020CB180020E91800206918002079
:100DB000DC13002083180020F1180020F018002018
:100DC00010B5002400210122DFF8F01C4FF4206050
:100DD00008F093FB0122DFF8E81C4FF4006008F0F4
:100DE0008CFBDFF8E00C00781528C0F29A83DFF85E
:100DF000840B0078002800F09483DFF8CC0C007896
:100E0000022840F08E83DFF8C40C0078002840F000
:100E10008883DFF8BC0C0078002800F08283DFF8BC
:100E2000B40C0078401CDFF8AC1C08700020DFF820
:100E3000941C0870DFF8A00C0078002840F03D8179
:100E40000120DFF8941C0870DFF8900CFFF770F9B0
:100E500004F00AFBFF2190FBF1F201FB12010800F4
:100E6000C0B20009DFF8742C507211F00F00DFF8E7
:100E70006C1C88722A20DFF8641C08735A20DFF883
:100E80005C1C4873DFF8580C007841280DD04328CB
:100E900037D0452861D0472800F08B80492800F0E2
:100EA000B4806D2800F0DD8007E13620DFF82C1CCF
:100EB000C872002409E0DFF82C0CE4B2205CDFF8F3
:100EC0001C1CE4B261188873641CE4B2252CF2DBAC
:100ED0000221DFF8140C04F051FA2320DFF8FC1B88
:100EE00081F839003921DFF8040C05F04BFDDFF8FB
:100EF000EC1B81F83A00FF20DFF8E01B81F83B0093
:100F0000DBE04020DFF8D41BC872002409E0DFF8E2
:100F1000D40BE4B2205CDFF8C41BE4B26118887320
:100F2000641CE4B22F2CF2DB0221DFF8C80B04F0C2
:100F300025FA2320DFF8A41B81F843004321DFF8C2
:100F4000AC0B05F01FFDDFF8941B81F84400FF2077
:100F5000DFF8881B81F84500AFE03D20DFF87C1BFF
:100F6000C872002409E0DFF87C0BE4B2205CDFF8F3
:100F70006C1BE4B261188873641CE4B22C2CF2DBA5
:100F80000221DFF86C0B04F0F9F92320DFF84C1B89
:100F900081F840004021DFF8540B05F0F3FCDFF846
:100FA0003C1B81F84100FF20DFF8301B81F8420034
:100FB00083E03120DFF8241BC872002409E0DFF849
:100FC000240BE4B2205CDFF8141BE4B261188873D0
:100FD000641CE4B2202CF2DB0221DFF81C0B04F0CD
:100FE000CDF92320DFF8F41A81F834003421DFF83A
:100FF000FC0A05F0C7FCDFF8E41A81F83500FF2091
:10100000DFF8D81A81F8360057E04020DFF8CC1A14
:10101000C872002409E0DFF8CC0AE4B2205CDFF8F3
:10102000BC1AE4B261188873641CE4B2252CF2DBAC
:101030000221DFF8C00A04F0A1F92320DFF89C1A8E
:1010400081F843004321DFF8A40A05F09BFCDFF898
:101050008C1A81F84400FF20DFF8801A81F84500DF
:101060002BE02820DFF8741AC872002409E0DFF8AA
:10107000740AE4B2205CDFF8641AE4B26118887381
:10108000641CE4B2172CF2DB0221DFF8700A04F0D2
:1010900075F92320DFF8441A81F82B002B21DFF8A3
:1010A0004C0A05F06FFCDFF8341A81F82C00FF20A1
:1010B000DFF8281A81F82D00FFE7DFF81C0A007816
:1010C000012840F0E681DFF8380A0078002800F0B7
:1010D000FA80DFF80C0A007841280DD0432836D07A
:1010E00045285FD0472800F08880492800F0B0806C
:1010F0006D2800F0CA80E5E0DFF8E0393C22DFF837
:10110000500B0168DFF84C0B01F0EAFA00281DD003
:101110000220DFF8C41908700120DFF83C1B0870BA
:101120000120DFF8381B08700020DFF8A8190870CC
:10113000DFF8D0290021022003F03FFE0120DFF874
:10114000201B08700020DFF81C1B0870A1E1DFF8ED
:101150008C394622DFF8F80A0168DFF8F80A01F056
:10116000BFFA00281DD00220DFF86C19087001209A
:10117000DFF8E41A08700120DFF8E01A0870002098
:10118000DFF850190870DFF8E02A0021022003F090
:1011900014FE0120DFF8C81A08700020DFF8C41A16
:1011A000087076E1DFF834394322DFF8A40A0168D9
:1011B000DFF8A00A01F094FA00281DD00220DFF821
:1011C000181908700120DFF8901A08700120DFF864
:1011D0008C1A08700020DFF8FC180870DFF88C2AE1
:1011E0000021022003F0E9FD0120DFF8741A0870E5
:1011F0000020DFF8701A08704BE1DFF8E038372282
:10120000DFF84C0A0168DFF84C0A01F069FA00289F
:101210001DD00220DFF8C01808700120DFF8381A4E
:1012200008700120DFF8341A08700020DFF8A418D5
:101230000870DFF83C2A0021022003F0BEFD0120E7
:10124000DFF81C1A08700020DFF8181A087020E177
:10125000DFF888384622DFF8F8090168DFF8F4097A
:1012600001F03EFA00280FD00220DFF86C18087059
:101270000120DFF8E41908700120DFF8E019087098
:101280000020DFF85018087003E1DFF850382E22F4
:10129000DFF8BC090168DFF8BC0901F021FA002879
:1012A0000FD00220DFF8301808700120DFF8A819ED
:1012B00008700120DFF8A41908700020DFF8141866
:1012C0000870E6E0E5E0DFF8C40A0078002800F0E6
:1012D000E080DFF80C08007841280CD0432831D09A
:1012E000452856D047287BD0492800F0A0806D289B
:1012F00000F0B680CDE000223C21DFF8E00705F0E9
:10130000F4FE00281DD00220DFF8CC170870012061
:10131000DFF8441908700120DFF840190870002038
:10132000DFF8B0170870DFF8DC270021022003F097
:1013300044FD0120DFF8281908700020DFF8241987
:101340000870A6E000224621DFF8900705F0CDFEE8
:1013500000281DD00220DFF8801708700120DFF878
:10136000F81808700120DFF8F41808700020DFF882
:1013700064170870DFF8F0280021022003F01DFD3B
:101380000120DFF8DC1808700020DFF8D81808709A
:101390007FE000224321DFF8440705F0A6FE002885
:1013A0001DD00220DFF8301708700120DFF8A818E0
:1013B00008700120DFF8A41808700020DFF8141767
:1013C0000870DFF8A8280021022003F0F6FC0120B5
:1013D000DFF88C1808700020DFF88818087058E0D3
:1013E00000223721DFF8F40605F07FFE00281DD02B
:1013F0000220DFF8E41608700120DFF85C1808709E
:101400000120DFF8581808700020DFF8C8160870AF
:10141000DFF85C280021022003F0CFFC0120DFF878
:10142000401808700020DFF83C18087031E00022F6
:101430004621DFF8A80605F058FE00280FD002204C
:10144000DFF8941608700120DFF80C1808700120EE
:10145000DFF8081808700020DFF87816087018E028
:1014600000222E21DFF8740605F03FFE00280FD081
:101470000220DFF8641608700120DFF8DC1708701E
:101480000120DFF8D81708700020DFF84816087030
:10149000FFE7DFF8C8070078002800F06682DFF871
:1014A000F0080078002814D00020DFF82816087013
:1014B0000020DFF8241608700020DFF8D418087028
:1014C0000020DFF8981708700020DFF8A8140870D3
:1014D0004BE2DFF8000600786428C0F24682002064
:1014E000DFF8F01508700020DFF8EC150870002018
:1014F000DFF868170870DFF89C080078401CDFF8F8
:1015000094180870DFF88C0800780528C0F22D8246
:101510000020DFF8801808700020DFF858140870E9
:1015200023E2DFF8A00500781528C0F21E82DFF85C
:101530008C05007800280FD1DFF85C0800780028BF
:101540000AD1DFF87C050078002805D1DFF84C08C7
:101550000078002800F00982DFF86C050078022886
:1015600040F00382DFF864050078002840F0FD8138
:10157000DFF85C050078002800F0F7810020DFF834
:1015800044150870DFF84C050078401CDFF844155E
:101590000870DFF844050078002840F0AB80012097
:1015A000DFF834150870DFF83405FEF7C1FD03F0ED
:1015B0005BFFFF2190FBF1F201FB12010800C0B2BA
:1015C0000009DFF81825507211F00F00DFF80C1534
:1015D00088722A20DFF8041508735A20DFF8FC14FB
:1015E0004873DFF8DC040078002804D1DFF8AC078A
:1015F000007800283AD0DFF8A4070078002807D048
:101600000020DFF8981708700A20DFF8B41408707B
:101610003620DFF8C814C8722522DFF8C004E4B20F
:10162000201810F10E01DFF89804007825235843A4
:1016300000F2DC7080B207F060FF0221DFF8A8043E
:1016400003F09CFE2320DFF8941481F8390039213F
:10165000DFF8980405F096F9DFF8801481F83A0075
:10166000FF20DFF8781481F83B0043E0DFF84C04FA
:101670000078002804D1DFF820070078002839D04E
:10168000DFF814070078002807D00020DFF80817DB
:1016900008700A20DFF8241408704020DFF83C149A
:1016A000C8722F22DFF83404E4B2201810F10E01C2
:1016B000DFF8080400782F23584300F6D21080B2D8
:1016C00007F01BFF0221DFF82C0403F057FE232054
:1016D000DFF8081481F843004321DFF8100405F017
:1016E00051F9DFF8F81381F84400FF20DFF8EC131C
:1016F00081F84500DFF8E0030078012840F0C08061
:10170000DFF8FC030078002862D0DFF8B40300782B
:1017100000282DD0DFF8C4333C22DFF834050168FF
:10172000DFF8300500F0DCFF002800F0A98002207F
:10173000DFF8A41308700120DFF81C1508700120E1
:10174000DFF8181508700020DFF88813087001F022
:1017500054FFDFF8602A0021022003F02EFB012055
:10176000DFF8FC1408700020DFF8F814087087E038
:10177000D2480078002800F08380DFF860334622EA
:10178000DFF8CC040168DFF8CC0400F0A9FF0028E2
:1017900076D00220D04908700120DFF8BC14087010
:1017A0000120DFF8B81408700020CA49087001F061
:1017B00024FFDFF8042A0021022003F0FEFA0120B2
:1017C000DFF89C1408700020DFF89814087057E0C8
:1017D000DFF8B8050078002852D0B9480078002812
:1017E00025D000223C21BD4805F07FFC002847D0D1
:1017F0000220B94908700120DFF85C14087001204C
:10180000DFF8581408700020B249087001F0F5FEA6
:10181000DFF8A0290021022003F0CFFA0120DFF831
:10182000401408700020DFF83C14087028E0A3483A
:101830000078002824D000224621A84805F055FC55
:1018400000281DD00220A44908700120DFF80814E8
:1018500008700120DFF80414087000209D4908700A
:1018600001F0CBFEDFF850290021022003F0A5FA99
:101870000120DFF8EC1308700020DFF8E81308708F
:10188000DFF8D803007800286FD0DFF8040500786F
:1018900000282DD00020DFF8F814087000208D49B2
:1018A000087000208C4908700020DFF8B013087021
:1018B0008348007800280BD081480078401E80497A
:1018C000087001227E494FF4006007F027FE4CE0CB
:1018D0007A480078002848D078480078401E774938
:1018E0000870012275494FF4206007F017FE3CE0B4
:1018F00078480078322838DB0020764908700020CC
:10190000754908700020DFF854130870DFF884046C
:101910000078401CDFF87C140870DFF87804007849
:10192000032822DB0020DFF86C140870644800787C
:1019300000280BD062480078401E614908700122DF
:101940005F494FF4006007F0E9FD0EE05B48007866
:1019500000280AD059480078401E584908700122D2
:1019600056494FF4206007F0D9FD10BDF218002051
:10197000C8180020791800200021002103E000226F
:101980000270401C491CC9B2FA29F8DB704702E01A
:1019900000210170401C01780029F9D1704780B501
:1019A000DFF8C8090078002810D10120DFF8BC1941
:1019B0000870DFF8BC09FFF7EAFF0020DFF8B41970
:1019C0000870DFF8B40907F0BBFD4CE0DFF8AC09A4
:1019D0000078002847D00020DFF8A0190870002008
:1019E000DFF89C1908700020DFF898190870DFF8FC
:1019F00098090078002815D00020DFF88C190870AD
:101A00000020DFF8881908700020DFF878190870C6
:101A10000020DFF8781908700020DFF850190870EE
:101A2000012049E0DFF86809007800281BD0002079
:101A3000DFF85C1908700020DFF830190870DFF853
:101A40004C090078401CDFF844190870DFF83C09A5
:101A50000078042807DB0020DFF830190870012027
:101A6000DFF8501B0870DFF818090078401CDFF819
:101A700010190870DFF80809007804281BDB002023
:101A8000DFF8E81808700020DFF8F4180870DFF8B5
:101A9000F4080078401CDFF8EC180870DFF8E40860
:101AA0000078042807DB0020DFF8D8180870012030
:101AB000DFF8001B0870002002BD0000761800202F
:101AC000741800208E180020E61800200C19002041
:101AD000A2180020F4180020F3180020D0050020E0
:101AE0007A1800205806002003060020D1050020A7
:101AF0000A0600200D060020FE050020F505002046
:101B0000B9180020BC04010880B50020DFF85C088B
:101B10000078002810D10120DFF850180870DFF895
:101B20005008FFF734FF0020DFF848180870DFF88E
:101B3000880A07F005FD61E0DFF84008007800281A
:101B40005CD00020DFF8341808700020DFF830186F
:101B500008700020DFF82C180870DFF82C080078D7
:101B600000282AD00020DFF8201808700020DFF8B5
:101B70001C1808700020DFF80C18087000200EE018
:101B8000DFF8EC17DFF8EC271278C0B28218511892
:101B900011F8171CDFF8242AC0B28154401CC0B2CF
:101BA0000F28EDDB3021DFF8142AC0B28154002069
:101BB000DFF8B8170870012049E0DFF8D407007893
:101BC00000281BD00020DFF8C81708700020DFF8BD
:101BD0009C170870DFF8B4070078401CDFF8AC17DA
:101BE0000870DFF8A8070078042807DB0020DFF87A
:101BF0009C1708700120DFF8BC190870DFF8800717
:101C00000078401CDFF878170870DFF87407007858
:101C100004281BDB0020DFF8541708700020DFF8D1
:101C200060170870DFF85C070078401CDFF8541775
:101C30000870DFF850070078042807DB0020DFF881
:101C4000441708700120DFF86C190870002002BDED
:101C50000418002058170020CC180020E518002098
:101C60006B18002092180020D0040108E404010839
:101C7000F804010810B50400DFF8F0060078002829
:101C800011D10120DFF8E4160870DFF8E406FFF751
:101C90007EFE0020DFF8DC1608702100DFF83C0A29
:101CA00007F04EFC48E0DFF8D4060078002843D067
:101CB0000020DFF8CC1608700020DFF8C816087086
:101CC0000020DFF8B8160870DFF8BC06007800289E
:101CD00011D00020DFF8B01608700020DFF8AC1635
:101CE00008700020DFF89C1608700020DFF87C16D2
:101CF0000870012049E0DFF89806007800281BD022
:101D00000020DFF88C1608700020DFF860160870DD
:101D1000DFF878060078401CDFF870160870DFF8EE
:101D20006C060078042807DB0020DFF860160870D6
:101D30000120DFF880180870DFF844060078401CA6
:101D4000DFF83C160870DFF83806007804281BDB43
:101D50000020DFF8181608700020DFF8241608703D
:101D6000DFF820060078401CDFF818160870DFF84E
:101D700014060078042807DB0020DFF80816087036
:101D80000120DFF830180870002010BDBA180020BC
:101D9000DA180020EF1800207718002075180020AE
:101DA00080B5C0B2012840F00E81DFF8F80A007853
:101DB000002810D10120DFF8EC1A0870DFF8B00518
:101DC000FFF7E5FD0020DFF8AC150870DFF8D80A52
:101DD00007F0B6FBC0E0DFF8A4050078002849D082
:101DE000DFF8C80A0078002844D10020DFF89015F9
:101DF00008700020DFF88C1508700020DFF87C15D3
:101E00000870DFF884050078002810D00020DFF883
:101E1000781508700020DFF8741508700020DFF8CE
:101E2000641508700120DFF8841A087094E0DFF868
:101E300060050078002800F08F800020DFF8501542
:101E400008700020DFF85C1A0870DFF840050078A1
:101E5000401CDFF838150870DFF8300500780428DA
:101E60007ADB0020DFF8241508700120DFF8441722
:101E7000087071E0DFF8380A0078002815D1DFF823
:101E80002C0A0078002810D00120DFF8241A0870EE
:101E9000DFF8DC04FFF77BFD0020DFF8D8140870C2
:101EA000DFF8100A07F04CFB56E0DFF8D0040078AA
:101EB000002851D0DFF8000A007800284CD1DFF864
:101EC000EC090078002847D00020DFF8B41408702F
:101ED0000020DFF8B01408700020DFF8A0140870AC
:101EE0000222DFF88C04DFF88C1409780818011F2F
:101EF000AFA003F0A1F800280DD10020DFF88C146A
:101F000008700020DFF87C1408700120DFF8A819A1
:101F1000087001204AE1DFF87804007800281BD01F
:101F20000020DFF86C140870DFF860040078401CB3
:101F3000DFF858140870DFF854040078042807DB31
:101F40000020DFF8481408700120DFF868160870D8
:101F50000020DFF85C190870DFF824040078401CCA
:101F6000DFF81C140870DFF8180400780428C0F2A9
:101F70001C810020DFF82C1908700020DFF83019D0
:101F800008700020DFF8241908700020DFF82819F5
:101F900008700020DFF8E8130870DFF8E803007825
:101FA000401CDFF8E0130870DFF8D803007804283D
:101FB000C0F2FB800020DFF8CC1308700120DFF8AE
:101FC000F4150870F1E0C0B2002840F0EE80DFF8B0
:101FD000D4080078002810D10120DFF8C818087054
:101FE000DFF88C03FFF7D3FC0020DFF888130870BC
:101FF000DFF8C80807F0A4FAABE0DFF88003007848
:10200000002848D0DFF8A4080078002843D1002039
:10201000DFF86C1308700020DFF8681308700020E8
:10202000DFF858130870DFF860030078002810D03C
:102030000020DFF8541308700020DFF850130870F8
:102040000020DFF8401308700120DFF860180870E6
:102050007FE0DFF83C03007800287AD00020DFF82A
:10206000301308700020DFF83C180870DFF81C03FC
:102070000078401CDFF814130870DFF810030078B4
:10208000042866DB0020DFF8041308700120DFF865
:10209000241508705DE0DFF818080078002813D1D7
:1020A000DFF80808007800280ED00120DFF80018BB
:1020B0000870AF48FFF76BFC0020AE490870DFF8EE
:1020C000000807F03DFA44E0AC480078002840D012
:1020D000DFF8E407007800283BD1DFF8D00700786C
:1020E000002836D00020A64908700020A5490870B5
:1020F0000020A2490870A448007800280ED00020D3
:10210000A14908700020A149087000209D4908706D
:102110000120DFF8A4170870012047E09C480078F0
:10212000002816D000209A4908700020DFF8801798
:10213000087096480078401C9449087093480078CD
:10214000042806DB0020914908700120DFF86414A0
:1021500008708B480078401C8949087088480078CE
:10216000042822DB0020DFF83C1708700020DFF88D
:10217000401708700020DFF8341708700020DFF8DF
:102180003817087000207E4908707E480078401C8F
:102190007C4908707B480078042806DB00207949D8
:1021A00008700120DFF80C140870002002BD000048
:1021B0004F4B00000C0501082005010880B56B4855
:1021C000007800280DD10120684908706848FFF7A1
:1021D000DEFB002067490870DFF8FC0907F0B0F962
:1021E00038E066480078002834D000206449087040
:1021F0000020644908700020604908706248007837
:1022000000280DD000206049087000205F49087048
:1022100000205C490870002054490870012038E013
:102220005B480078002815D000205949087000202C
:102230004E49087055480078401C5449087053486E
:102240000078042806DB0020504908700120DFF8E0
:10225000641308704A480078401C4949087048488F
:102260000078332814DB00204049087000204449DE
:10227000087044480078401C424908704148007882
:10228000042805DB00203F4908700120C949087077
:10229000002002BD80B53548007800280DD101200E
:1022A000324908703248FFF772FB0020314908704C
:1022B000DFF8280907F044F937E0304800780028B3
:1022C00033D000202E49087000202E4908700020CD
:1022D0002A4908702C48007800280DD000202A498F
:1022E0000870002029490870002026490870002045
:1022F0001E490870012037E025480078002814D0D6
:102300000020234908700020184908701F480078F1
:10231000401C1E4908701D480078042805DB002079
:102320001A4908700120A349087015480078401C1C
:102330001349087012480078042814DB00200B4968
:10234000087000200E4908700E480078401C0D49A6
:1023500008700C480078042805DB00200949087043
:10236000012094490870002002BD0000CF18002011
:102370004411002066180020DC0801080419002020
:10238000C6180020CA18002006190020C91800200D
:102390000519002080B5DFF8440A0078002810D124
:1023A0000120DFF8381A0870DFF8340AFFF7EFFA77
:1023B0000020DFF8301A0870DFF82C0A07F0C0F8A8
:1023C00047E0DFF8280A0078002842D00020DFF834
:1023D000201A08700020DFF81C1A08700020DFF8AF
:1023E0000C1A0870DFF8100A0078002811D00020BD
:1023F000DFF8041A08700020DFF8001A08700020C7
:10240000DFF8F01908700020DFF8D01908700120FB
:1024100047E0DFF8EC09007800281AD00020DFF848
:10242000E01908700020DFF8B4190870DFF8CC0953
:102430000078401CDFF8C4190870DFF8C009007884
:10244000042806DB0020DFF8B41908700120594980
:102450000870DFF89C090078401CDFF894190870B8
:10246000DFF88C09007804281ADB0020DFF86C19EB
:1024700008700020DFF878190870DFF87809007814
:10248000401CDFF870190870DFF86809007804282C
:1024900006DB0020DFF85C19087001204549087050
:1024A000002002BD80B5DFF834090078002810D183
:1024B0000120DFF828190870DFF82409FFF767FA10
:1024C0000020DFF820190870DFF8380907F038F825
:1024D00047E0DFF818090078002842D00020DFF834
:1024E000101908700020DFF80C1908700020DFF8C0
:1024F000FC180870DFF810090078012811D10020BD
:10250000DFF8F81808700020DFF8E81808700020DD
:10251000DFF8F41808700020DFF8C01808700120F8
:1025200047E0DFF8DC08007800281AD00020DFF848
:10253000D01808700020DFF8A4180870DFF8BC0875
:102540000078401CDFF8B4180870DFF8B008007895
:10255000042806DB0020DFF8A418087001201549C4
:102560000870DFF88C080078401CDFF884180870C9
:10257000DFF87C08007804281ADB0020DFF85C18FC
:1025800008700020DFF868180870DFF86808007825
:10259000401CDFF860180870DFF85808007804283D
:1025A00006DB0020DFF84C18087001200149087094
:1025B000002002BDC8180020F40701085C130020A9
:1025C00010B500240400DFF814080078002811D1A9
:1025D0000120DFF808180870DFF80408FFF7D7F9C2
:1025E0000020DFF8001808702100DFF8380A06F034
:1025F000A7FF48E0DFF8F4070078002843D0002068
:10260000DFF8EC1708700020DFF8E81708700020EA
:10261000DFF8D8170870DFF8E0070078002811D03D
:102620000020DFF8D41708700020DFF8D0170870FA
:102630000020DFF8C01708700020DFF8A01708702E
:10264000012049E0DFF8B807007800281BD00020FF
:10265000DFF8AC1708700020DFF880170870DFF88B
:102660009C070078401CDFF894170870DFF88C078F
:102670000078042807DB0020DFF8801708700120AD
:10268000DFF8A4190870DFF868070078401CDFF84D
:1026900060170870DFF85807007804281BDB00205B
:1026A000DFF8381708700020DFF844170870DFF8EB
:1026B00044070078401CDFF83C170870DFF8340747
:1026C0000078042807DB0020DFF8281708700120B5
:1026D000DFF854190870002010BD0000C006010882
:1026E0002DE9F047E6B006000F0014001D00DFF8EA
:1026F0003C090078002840F0868001A8102102F0F3
:102700007BFC5FF000095FF0000A5FF0000825A87D
:102710004FF4807102F070FC05A8802102F06CFC7F
:10272000002000210120DFF80419087006E030784D
:1027300001A908F8010018F10108761C307800287A
:10274000F5D1B946A2465FF0000806E018F805008A
:1027500005A908F8010018F10108D045F6DB5FF083
:1027600000080AE0C9B20A2905DA11F1300025A9EA
:1027700011EB4801487018F10108D04522DA05A88C
:1027800018F80000C0B2000905A918F8011011F0EE
:102790000F01C0B20A2804DB573025AA02F818003E
:1027A00006E0C0B20A2803DA303025AA02F8180081
:1027B000C9B20A29D6DB11F1570025A911EB48014E
:1027C0004870D8E7DFF81806FFF7E1F80020DFF8D7
:1027D000141608700120DFF8581808700120DFF87F
:1027E0005418087025A8009053464A4601A9DFF8FE
:1027F000480806F0A5FE0020DFF840180870002009
:10280000DFF83C180870DFF82C08007802281DD18A
:102810000020DFF8281808700020DFF8D8150870AD
:102820000020DFF8101808700020DFF8CC150870C1
:102830000020DFF8C81508700020DFF8F0170870D6
:102840000020DFF8EC170870012028E0DFF8EC0723
:102850000078401CDFF8E4170870DFF8E007007824
:102860000B281BDB0020DFF8C41708700020DFF8FE
:10287000CC170870DFF87C050078401CDFF8741571
:102880000870DFF870050078042807DB0020DFF807
:10289000641508700120DFF8B81A0870002066B0CF
:1028A000BDE8F087D01800207CE50008D118002092
:1028B000D2180020A8000108D318002054000108F5
:1028C000CC000108020004E003782C2B00D1491E43
:1028D000401CC9B20029F7D1801AC0B2704700B5B8
:1028E000A1B000216846802102F086FB0020002272
:1028F00000200020DFF84C0700780B28C0F2698127
:102900000020DFF840170870DFF8480A0078002838
:1029100029D1DFF8440A0078002824D10120DFF80B
:10292000341A0870DFF8B804FFF726F80020DFF843
:10293000B4140870DFF8240A0078002804D0DFF807
:10294000200A06F0FDFD06E0DFF8180A0178DFF83E
:10295000180A06F0F5FD0120DFF8101A08700120B2
:10296000DFF8F4190870DFF884040078002800F01C
:1029700000810020DFF8781408700020DFF874145C
:1029800008700020DFF8E81908700020DFF85C14F8
:102990000870DFF8D8090078022840F0CC800020C9
:1029A000DFF8B4190870DFF8B409007800280FD1F7
:1029B000DFF8C0090078401EDFF8B8190870DFF8AA
:1029C000B4090078FE2803DB0020DFF8A81908709E
:1029D0000020DFF8981908700421DFF80404FFF7DD
:1029E00071FF0021DFF8082411700021DFF80824AE
:1029F00011700021DFF85C2911700021DFF8FC2341
:102A000011700021DFF8EC231170002107E0DFF8DE
:102A1000D023C0B20B189A5C6B46CA54491CDFF82D
:102A200044291278B1EB420FF1DB00210CE06A4639
:102A300012EB41025278303AC0B2D2B212EB00101F
:102A4000DFF834298854491CDFF8180900788142DE
:102A500019DA684610F811003A2804DB684610F8C5
:102A60001100373803E0684610F8110030386A4624
:102A700012EB410252783A2AD9DB6A4612EB410244
:102A80005278373AD8E70521DFF85403FFF71AFFE9
:102A9000DFF84C13C0B2415C302909D1DFF8D4080B
:102AA0000078002835D10020DFF8B818087030E031
:102AB000CB49C0B2415C30390A2921D20021DFF86C
:102AC00094281170C649C0B24118497830390A2992
:102AD0000ED2C349C0B2415C0A22C14BC0B2C01879
:102AE000407802FB01001038DFF87818087010E019
:102AF000BB49C0B2405C3038DFF86818087008E0A5
:102B0000B749C0B2405C002803D10020DFF8541858
:102B10000870DFF848080078002803D00020DFF8AC
:102B20003C1808700120DFF8541808700020DFF806
:102B3000501808701DE0B2480078002819D0002015
:102B4000AF4908700020DFF80C1808700020A84971
:102B50000870AA480078401CA8490870A748007867
:102B6000042806DB0020A54908700120DFF8B8140E
:102B700008709F480078401C9D4908709C48007868
:102B8000512826DB0020DFF8CC1708700020984978
:102B900008700020DFF8C017087096480078401CC5
:102BA0009449087093480078022812DB002091496C
:102BB00008700120DFF8701408700120DFF8BC17DE
:102BC00008700020DFF8B81708700020DFF89417AD
:102BD000087021B000BD0000000801081C010108B8
:102BE00010B5DFF8A007007800282ED1DFF86807BD
:102BF0000078002829D1DFF838040078002824D193
:102C0000DFF87007007800281FD1DFF87C07007814
:102C100000281AD10120DFF86C170870DFF86C0764
:102C200000880A2190FBF1F0DFF8641788716C4886
:102C3000FEF7ADFE00206B490870DFF8580706F07C
:102C40007FFC0120DFF850170870684800780028E2
:102C50007CD0DFF844070078002877D00020634953
:102C600008700020624908700020624908706248BC
:102C70000078002851D00020DFF81C1708700020D1
:102C80005D49087000205D490870002059490870AE
:102C90000120DFF808170870DFF8F406FDF748FA9E
:102CA0004F4850490978081810F80D0C30380A2898
:102CB00017D24B484B490978081810F80D0C02F050
:102CC00043FC0400E4B2464846490978081810F865
:102CD0000C0C02F039FC10EB0410DFF8B41648724B
:102CE0000AE03F483F490978081810F80C0C02F038
:102CF0002BFCDFF89C164872CC20DFF89416887203
:102D00000A21DFF89C0603F03DFEDFF88416C87246
:102D1000FF20DFF87C16087318E039480078002897
:102D200014D000203649087000202C490870334820
:102D30000078401C3149087030480078042805DBD1
:102D400000202E4908700120B7490870DFF84C06B2
:102D50000078002818D0DFF838360D22DFF8440656
:102D60000168DFF84406FFF7BBFC002834D00020E0
:102D7000DFF8101608700020DFF820160870002019
:102D8000DFF82816087027E019480078401C184919
:102D900008701748007806281EDBDFF8FC0500786D
:102DA000002819D00020DFF8DC1508700020104939
:102DB000087010480078401C0E4908700D480078D3
:102DC000042809DB00200B4908700120964908708F
:102DD0000020DFF8D815087010BD0000CF180020C3
:102DE0004411002066180020D006010804190020B4
:102DF000C6180020CA18002006190020C918002093
:102E0000051900200C080108D418002080B5002105
:102E10000020DFF89C0506F017FCDFF89815087015
:102E2000DFF894050078012840F0A880DFF88C05D1
:102E30000078022840F0A280DFF884050078152889
:102E4000C0F29C800020DFF878150870DFF8740568
:102E5000007800284ED10120DFF868150870DFF8EF
:102E60006805FDF765F902F0FFFAFF2190FBF1F22A
:102E700001FB12010800C0B20009DFF84C255072B6
:102E800011F00F00DFF840158872002009E0DFF82C
:102E90002015C0B2415CDFF83025C0B28218117332
:102EA000401CC0B20428F2DB00F011FFDFF8181557
:102EB00008741021DFF8140503F064FDDFF808152D
:102EC0004874FF20DFF8001588740120DFF8001532
:102ED000087000F092FBDFF8FC240021022001F0D2
:102EE0006CFF0120DFF8F01408700020DFF8EC140C
:102EF000087043E0DFF8D804007800283ED0DFF8FF
:102F0000E004007800281CD0DFF8BC341322DFF87E
:102F100094040168DFF89004FFF7E2FB00282DD04D
:102F20000020DFF8941408700120DFF8B81408704E
:102F30000020DFF8901408700020DFF89414087067
:102F40001CE0DFF8A4040078002817D00022132129
:102F5000DFF8740404F0C9F800280FD00020DFF86F
:102F6000581408700120DFF87C1408700020DFF886
:102F7000541408700020DFF858140870DFF86C044F
:102F800000780A284DDBDFF85C040078012848D17E
:102F90000020DFF858140870DFF854040078401C53
:102FA000DFF84C140870DFF84C04007800280BD0D0
:102FB0000020DFF8401408700020DFF83414087097
:102FC0000020DFF820140870DFF8240400780528BA
:102FD00027DB0020DFF8181408700020DFF8041445
:102FE00008700120DFF8D0130870DFF80C040078B7
:102FF000401CDFF804140870DFF8FC030078042894
:103000000FDB0020DFF8F01308700020DFF8E41376
:1030100008700020DFF8D81308700020DFF8C41310
:10302000087001BD3C010108C8180020D518002017
:10303000C1180020D618002058010108C718002028
:10304000971800208C18002080B50021DFF8AC0311
:103050000078002800F04581DFF86003007802283E
:1030600040F03F81DFF8980300782928C0F23981C9
:103070000020DFF88C130870DFF888030078002840
:1030800040F0E0800120DFF87C130870DFF878035F
:10309000FDF74EF802F0E8F9FF2190FBF1F201FB99
:1030A00012010800C0B20009DFF85C23507211F071
:1030B0000F00DFF8541388722A20DFF84C130873CE
:1030C0000120DFF8441348730B20DFF83C138873AA
:1030D00006F0A1FEDFF8341306F0C0FE04D8372056
:1030E000DFF82413C8736AE006F095FEDFF82013BA
:1030F00006F0B4FE0AD806F08EFEDFF8101306F0D4
:10310000BFFE03D23620C049C87358E006F083FEE4
:10311000C04906F0A3FE09D806F07DFEBC4906F0C2
:10312000AFFE03D23520B849C87348E006F073FEFD
:10313000B94906F093FE09D806F06DFEB54906F0D0
:103140009FFE03D23420B049C87338E006F063FE16
:10315000B24906F083FE09D806F05DFEAE4906F0DE
:103160008FFE03D23320A849C87328E006F053FE2F
:10317000AB4906F073FE09D806F04DFEA74906F0EC
:103180007FFE03D23220A049C87318E006F043FE48
:10319000A44906F063FE09D806F03DFEA04906F0FA
:1031A0006FFE03D231209849C87308E006F033FE61
:1031B0009C4906F065FE02D230209349C873012273
:1031C0009949D02006F099F901229849E02006F0AB
:1031D00094F995480078002803D120208A49087482
:1031E0001CE091480078012806D1502086490874D7
:1031F00002208549487411E08B480078022806D1E6
:1032000060208149087400207F49487406E08648A0
:103210000078032802D190207B4908740221844859
:1032200002F0ACF82320784908761821814803F091
:10323000A9FB75494876FF207349887601207E49AD
:1032400008704EE07C48007800284AD06448007836
:10325000002822D06C4B1B22524801685248FFF7CD
:103260003FFA00283DD000206449087001207349CE
:10327000087000206349087000206F49087000F052
:10328000BCF96F4A0021022001F097FD012052494C
:10329000087000205149087023E053480078002846
:1032A0001FD000221B21584803F01FFF002818D010
:1032B00000205249087001206049087000205149DF
:1032C000087000205C49087000F097F95C4A002102
:1032D000022001F072FD01203F49087000203F49A3
:1032E000087047480078142831DB544800780128DA
:1032F0002DD10020424908703D480078401C3C49CF
:1033000008703C480078002808D00020394908702F
:103310000020374908700020484908703448007878
:10332000062814DB00203249087000204349087049
:1033300001203249087030480078401C2E4908703E
:103340002D480078042802DB00202B49087001BDBD
:10335000C8180020D7180020C2180020ED1800203F
:10336000E0060108CD180020F0060108D81800205A
:10337000C3180020C4180020DC130020E918002026
:10338000CB180020F5180020F21800204418002067
:10339000DC07002018080108D9180020F6180020C2
:1033A000DD0700200418002058170020991800207D
:1033B00030180020BB180020BD180020E61800209F
:1033C00085180020F718002034070020350700205A
:1033D000F8180020340501086B180020921800200E
:1033E000B9180020F9180020BA180020821800200F
:1033F000EA180020DA180020EB180020BE18002080
:1034000086180020FA1800205407002067668640BE
:1034100034338340010080409A99794034337340BB
:1034200001007040010060406E18002071180020FB
:103430006607002055070020FB180020FC1800201C
:103440004805010838B50020DFF8240A0078C007D5
:1034500010D53222DFF81C1ADFF86C4D200006F080
:1034600021FDDFF80C0A007810F0FE00DFF8001AEA
:10347000087014E0DFF8F809007880070FD53222D1
:10348000DFF8A01BDFF8404D200006F00BFDDFF851
:10349000E009007810F0FD00DFF8D4190870DFF8BB
:1034A000280D00787B2840F0A780DFF81C0D4078BD
:1034B0005B2840F0A180DFF8100D807A63281AD0D5
:1034C00065281BD067281CD069281DD06B281ED00A
:1034D0006D281FD0712820D0732821D0752822D0C4
:1034E000772823D07D2827D0892822D0A92826D044
:1034F000AB2827D028E000F08EF825E000F0C8F8CF
:1035000022E000F0F2F81FE000F013F91CE000F0F8
:1035100036F919E000F056F916E000F079F913E0F9
:1035200000F09AF910E000F0BEF90DE000F0BDFAED
:103530000AE000F0ECF907E000F00CFA04E000F01B
:1035400024FA01E000F081FA0120DFF8CC1B0870BA
:103550000020DFF8C81B08707B20DFF8C41B087050
:103560005B20DFF8BC1B48700822DFF8601CDFF826
:10357000B44B200006F096FCDFF8A40BC07A10F1E3
:103580000C01DFF89C0B03F0E5F9DFF8941B0862EF
:10359000DFF88C0B026ADFF8880B006A030ADFF899
:1035A000801B002005E00C78DFF87C5B4455491C4B
:1035B000401CDFF86C4BE47A0C34A042F3DBDFF8FC
:1035C000681B4354401CDFF8601B4254DFF8500B6B
:1035D000C07A10F10E01C9B2DFF84C0B06F0ACFC5A
:1035E0000020DFF8E41B08700020DFF8DC1B4870C7
:1035F0000020DFF8D41B887231BD80B5DFF8042EBF
:103600000021022001F0D9FBDFF8F82D0021032072
:1036100001F0D3FB01BD00B583B0DFF8AC0B007B3C
:10362000DFF8AC1B0860DFF8A80B00688DF800001D
:10363000DFF89C0B00680002DFF8941B0860DFF8DD
:10364000900B0068DFF8801B497B0843DFF8801B84
:103650000860DFF8740B407B8DF801000222694698
:10366000902005F05BFF6420DFF8B41A8872012017
:10367000DFF8AC1AC8720120DFF8A41A0873FFF74C
:10368000BCFFDFF8842D0021022001F096FB07BD6E
:1036900080B50221902005F019FFDFF8341B086087
:1036A0006620DFF87C1A88720220DFF8741AC8726C
:1036B000DFF81C0B0068DFF8681A0873DFF8100BDE
:1036C0000068000ADFF8581A4873FFF796FFDFF822
:1036D000042B0021022001F070FB0223DFF87C2C78
:1036E0000021032001F07BFB01BD10B50A22DFF8A9
:1036F000E81ADFF8E84A200006F0D4FB0A22DFF8D7
:10370000DC1A702005F00AFF6820DFF8141A8872AE
:103710000120DFF80C1AC8720120DFF8041A0873C0
:10372000FFF76BFFDFF8A02D0021022001F045FB21
:1037300010BD10B50A22DFF8A41A702005F0DDFED6
:103740006A20DFF8DC1988720A20DFF8D419C87201
:103750000A22DFF8881ADFF8044C200006F0A2FBEA
:10376000FFF74BFFDFF8F82B0021022001F025FBCB
:10377000DFF8682A0021032001F01FFB10BD80B58F
:10378000DFF8440A007BDFF8DC1B08700122DFF859
:10379000D40B01789A2005F083FE6C20DFF88019A5
:1037A00088720120DFF87819C8720120DFF87019DB
:1037B0000873FFF722FFDFF8142D0021022001F02B
:1037C000FCFA01BD80B501219A2005F07FFEDFF8EB
:1037D000941B0870DFF88C0B0078DFF8441908732D
:1037E0006E20DFF83C1988720120DFF83419C872A6
:1037F000FFF703FFDFF8142C0021022001F0DDFAAF
:103800000123DFF8602B0021032001F0E8FA01BD5D
:1038100010B50822DFF8C019DFF8B049200006F023
:1038200041FB0822DFF8A419202005F077FE722062
:10383000DFF8EC1888720120DFF8E418C872012064
:10384000DFF8DC180873FFF7D8FEDFF8D42D00216D
:10385000022001F0B2FA10BD10B50822DFF86C1991
:10386000202005F04AFE7420DFF8B4188872082082
:10387000DFF8AC18C8720822DFF85019DFF8DC4A0C
:10388000200006F00FFBFFF7B8FEDFF8842B0021C5
:10389000022001F092FA0423DFF8882D0021032092
:1038A00001F09DFA10BD80B5DFF81C09007BDFF840
:1038B000201C0880DFF8180C00880002DFF8101CBC
:1038C0000880DFF80C0C0088DFF8FC18497B0843FF
:1038D000DFF8FC1B08800222DFF8F40B018880204F
:1038E00005F0DEFD7620DFF8381888720120DFF859
:1038F0003018C8720120DFF828180873FFF77DFE22
:10390000DFF8242D0021022001F057FA01BD80B517
:10391000DFF8B408007BDFF8BC1B08700122DFF879
:10392000B40B0178F52005F0BBFD8A20DFF8F01715
:1039300088720120DFF8E817C8720120DFF8E0176D
:103940000873FFF75AFEDFF8E42C0021022001F093
:1039500034FA01BD80B50121DFF87C0B01F00EFDCA
:103960007E20DFF8BC1788720120DFF8B417C87218
:103970000120DFF8AC170873FFF73FFEDFF8E82DF2
:103980000021022001F019FA01BD80B50322DFF801
:103990004818B92005F0C2FDAA20DFF88417887204
:1039A0000120DFF87C17C8720120DFF87417087354
:1039B000FFF723FEDFF8B42D0021022001F0FDF90E
:1039C00001BD10B40022027843781B0213EB0242BF
:1039D00080788218DFF8FC0DB2FBF0F03030087010
:1039E00042F21070B2FBF0F00A23B0FBF3F403FBD9
:1039F0001400303048704FF47A70B2FBF0F00A23B4
:103A0000B0FBF3F403FB1400303088702E20C87034
:103A10006420B2FBF0F00A23B0FBF3F403FB1400C4
:103A2000303008710A20B2FBF0F00A23B0FBF3F447
:103A300003FB1400303048710A20B2FBF0F300FBA6
:103A400013203030887110BC704710B584B06846C0
:103A50000021016001A80021002206C008380322CD
:103A60006946B92005F049FDAC20DFF8B41688722C
:103A70000320DFF8AC16C87203226946DFF8DC4881
:103A8000200006F00FFA01A96846FFF79AFFFFF73A
:103A9000B4FDDFF8A42D0021022001F08EF901AA67
:103AA0000021032001F089F91FBD80B5022180208B
:103AB00005F00CFDDFF8181A08807820DFF8601692
:103AC00088720220DFF85816C872DFF8040A0088EE
:103AD000DFF84C164873DFF8F809008880B2000A56
:103AE000DFF83C160873FFF788FDDFF8E8260021B1
:103AF000022001F062F90223DFF860280021032090
:103B000001F06DF901BD70B5002412E0DFF8201B53
:103B1000E4B2C0B20219515C29706D1C401CC0B2E5
:103B2000DFF80C1BE4B26118C97A0C318842EDDB76
:103B3000641CE4B2DFF8A00D0088844246DADFF8A6
:103B4000F00AE4B2205C7B28F2D1DFF8E40ADFF867
:103B5000E01AE4B26118C97AE4B261180818067B69
:103B6000DFF8CC0ADFF8C81AE4B26118C97AE4B207
:103B700061180818407B10EB0626DFF8B40AE4B29F
:103B80002018C07A10F10C01DFF8A40AE4B2201862
:103B900002F0E0FE8642CBD1B5480078C00707D4DA
:103BA000B44DB348007850F00100B14908700BE003
:103BB000AF480078800707D4DFF86854AC48007835
:103BC00050F00200AA4908700020A8E70020DFF8A2
:103BD000A01B08700020DFF8001D088070BD80B5B4
:103BE000694600220A604FF48071B0FBF1F202FBDB
:103BF00011028DF80020010A4FF48072B1FBF2F33C
:103C000003FB12138DF80130010C4FF48072B1FBED
:103C1000F2F303FB12138DF80230000E8DF803004F
:103C200004226946D52005F079FC01BD10B582B0AB
:103C3000040068460021016004226946D52005F091
:103C40005CFC9DF800009DF801104FF4807202FBAF
:103C500001009DF802105FF4803202FB01009DF824
:103C600003105FF0807202FB0100206013BD70B58D
:103C700005000C00687810F00C00082814D1687852
:103C800010F0F30050F0800060700822DFF83C155F
:103C9000A61C300006F006F90822A91C0A342000F0
:103CA00006F000F9012007E0687810F00C00042805
:103CB00001D1002000E0022070BD80B5082201F093
:103CC000BBF9002801D1012000E0002002BD80B531
:103CD000002006F0A0F8DFF8641B06F0D1F801D24E
:103CE000612024E0DFF8541B06F0B8F806D8DFF8AE
:103CF000501B06F0C5F801D2622018E0DFF8401B27
:103D000006F0ACF806D8DFF83C1B06F0B9F801D293
:103D100063200CE0DFF82C1B06F0A0F806D8DFF8D3
:103D2000481C06F0ADF801D2642000E0642002BD1A
:103D300030B583B004000D00002068460021002249
:103D400006C00838002028700122DFF8FC1AD020B5
:103D500005F0D3FB0122DFF8F41AE02005F0CDFBDB
:103D60000122DFF8EC1AE12005F0C7FB06F053F85A
:103D7000DFF8E01A06F084F827D2287850F0040023
:103D800028700120DFF8C41A0870DFF8C40A007830
:103D9000401CDFF8BC1A0870A07F8DF800000221DB
:103DA0000DF1010001F0EAFA0122DFF8A01AE0208B
:103DB00005F0B4FB0122DFF8981AE12005F0AEFB14
:103DC00007226946E22005F0A9FBDFF87C0A0078AB
:103DD000012803D1287850F008002870FFF777FFFA
:103DE00068702878002802D10120A87001E0FF2027
:103DF000A870A07FE8700221281D01F0BFFAE878C2
:103E0000A872002006E0A97AC0B242191279514086
:103E1000A972401CC0B20628F5DBDFF80C0DFFF7D5
:103E200005FFDFF8040D00684FF48071B0FBF1F27C
:103E300002FB1102EA72DFF8F00C0068000A4FF48E
:103E40008071B0FBF1F202FB11022A73DFF8D80C8B
:103E50000068000C4FF48071B0FBF1F202FB11021C
:103E60006A73DFF8C40C0068000EA87337BD000049
:103E7000681800208415002038B504000D000020CB
:103E8000002028700122DFF8C019D02005F035FB92
:103E90000122DFF8B819E02005F02FFB0122DFF83E
:103EA000B019E12005F029FB0A2214F11401CB48D6
:103EB00001F0C2F8002803D0287850F002002870E2
:103EC00005F0A9FFDFF88C1905F0DAFF29D2287870
:103ED00050F0040028700120DFF870190870DFF836
:103EE00070090078401CDFF868190870A07FDFF8BF
:103EF0007C1A08700221DFF8780A01F03FFA0122EB
:103F0000DFF84819E02005F009FB0122DFF840192D
:103F1000E12005F003FB0722DFF8501AE22005F04C
:103F2000FDFADFF824090078022804D1287850F03F
:103F30000800287008E0DFF810090078012803D095
:103F4000287850F010002870DFF800090078012868
:103F500003D1287850F020002870FFF7B8FE687071
:103F60002878002802D10120A87001E0FF20A87065
:103F7000A07FE8700221281D01F000FAE878A872FD
:103F8000002006E0A97AC0B2421912795140A97204
:103F9000401CC0B20628F5DBDFF8B4080078E872F0
:103FA000DFF8A80800782873072215F10D01E22038
:103FB00005F0A3FA687B2875002006E0297DC0B2D1
:103FC0004219927B51402975401CC0B20628F5DB8E
:103FD000DFF8540BFFF72AFEDFF84C0B00684FF4B4
:103FE0008071B0FBF1F202FB11026A75DFF8380B49
:103FF0000068000A4FF48071B0FBF1F202FB11027D
:10400000AA75DFF8240B0068000C4FF48071B0FB38
:10401000F1F202FB1102EA75DFF80C0B0068000EEA
:10402000287631BDB815002038B504000D000020F9
:10403000002028700122DFF81018D02005F05DFA6A
:104040000122DFF8E81AE02005F057FA0122DFF834
:104050000018E12005F051FA0A2214F114015F481A
:1040600000F0EAFF002801D005202870DFF8D8070B
:104070000078022809D1DFF8B40A0078012802D1BB
:104080000320287001E004202870DFF8BC070078C6
:10409000012809D1DFF8940A0078012802D1022012
:1040A000287001E001202870FFF711FE68700120E0
:1040B000A870A07FE8700221281D01F05FF9E87860
:1040C000A872002006E0A97AC0B2421912795140C4
:1040D000A972401CC0B20628F5DBDFF8740700782F
:1040E000E872DFF8480A00782873072215F10D01FD
:1040F000E22005F002FA687B2875002006E0297DA1
:10410000C0B24219927B51402975401CC0B20628AA
:10411000F5DB0020687531BD6B1800209218002077
:10412000F8160020FA160020EC15002038B504001F
:104130000D000020002028700122DFF8F019E02097
:1041400005F0DBF90122DFF80817E12005F0D5F9C9
:104150000A2214F11401214800F06EFF002802D059
:104160000220287018E0DFF8C409007801280CD17B
:104170000020DFF8B81908700122DFF8B019E0203C
:1041800005F0CCF90120287006E0DFF8A0090078DE
:10419000002801D103202870FFF799FD6870A07FE7
:1041A000A8700221E81C01F0E9F8A87868720020E4
:1041B00006E0697AC0B24219D27851406972401C57
:1041C000C0B20628F5DB31BDD4160020AC170020A4
:1041D0000018002040070108E01600209817002072
:1041E00038B504000D000020002028700122DFF8FF
:1041F0005C16E02005F081F90122DFF85416E12079
:1042000005F07BF90A2214F11401DFF8240900F00B
:1042100013FF002803D0287850F00200287005F022
:10422000FAFDDFF8301605F02BFE29D2287850F081
:10423000040028700120DFF814160870DFF810065B
:104240000078401CDFF808160870A07FDFF81C1704
:1042500008700221DFF8180701F090F80122DFF85A
:10426000EC15E02005F05AF90122DFF8E415E12011
:1042700005F054F90722DFF8F416E22005F04EF9B4
:10428000DFF8C8050078012803D1287850F0200015
:104290002870FFF71CFD68702878002802D10120E3
:1042A000A87001E0FF20A870A07FE8700221281DFF
:1042B00001F064F8E878A872002006E0A97AC0B29C
:1042C000421912795140A972401CC0B20628F5DB90
:1042D000DFF87C050078E872DFF870050078287355
:1042E000072215F10D01E22005F007F9687B28751A
:1042F000002006E0297DC0B24219927B5140297509
:10430000401CC0B20628F5DBDFF81C08FFF78EFC66
:10431000DFF8140800684FF48071B0FBF1F202FB83
:1043200011026A75DFF800080068000A4FF4807116
:10433000B0FBF1F202FB1102AA75DFF8EC0700688E
:10434000000C4FF48071B0FBF1F202FB1102EA7530
:10435000DFF8D4070068000E287631BD041700206E
:10436000540801086D18002038B504000D00002025
:1043700000202870FFF7ABFC28700A2214F114010A
:10438000DFF8AC0700F058FE002804D1DFF8A407DE
:104390000078002802D1FF20687001E001206870D9
:1043A0006878012805D1A07FA8700221E81C00F0E0
:1043B000E5FFA8786872002006E0697AC0B2421969
:1043C000D27851406972401CC0B20628F5DB31BD7D
:1043D00010B50C00017D012904D10120DFF8581728
:1043E000087006E0007D022803D10220DFF848179C
:1043F00008700122DFF840179A2005F08FF801209D
:10440000207010BDC4010108D80101084C07010843
:104410005807010880B50020DFF820170870DFF882
:1044200020270021022000F0C8FC0120DFF814172B
:1044300008700020DFF8101708700122DFF80C1751
:104440004FF4806005F059F8DFF804070078002881
:1044500039D1DFF8F8060078062834DA1C22DFF8B4
:10446000F416DFF8E80600781E23584300F20140F6
:1044700080B205F053F80222DFF8DC16DFF8CC0634
:1044800000781E23584300F21E4080B205F046F823
:10449000DFF8B8060078401CDFF8B0160870DFF8C7
:1044A000AC060078062807DB0120DFF8B01608709C
:1044B0000020DFF8981608700122DFF890164FF4FC
:1044C000806005F02BF801BD70050108EC010108C2
:1044D0004018002078180020E116002010B5412077
:1044E000DFF87C1608700A22DFF87816DFF84046FD
:1044F000200005F0D7FC0A22DFF83416702005F002
:104500000DF8DFF86416DFF84C06FFF7B0FB012862
:1045100040F085804220DFF8501688740F20DFF8C5
:104520004816C874DFF84416DFF82806FFF700FCC9
:10453000C648007801282CD0C3480078022803D050
:10454000C1480078002815D1DFF824260021022078
:1045500000F033FC002006F037F8DFF8CC050068E7
:10456000401CDFF8C4150860DFF8BC050068FFF7E1
:1045700036FB05E0DFF8FC250021022000F01DFCE1
:104580000120B14908700122AF49D02004F0C6FFD4
:1045900009E0AE480078012805D1DFF8DC250021CC
:1045A000022000F00AFC0120DFF8981508700020B6
:1045B000DFF894150870DFF8C405007802282ED0C3
:1045C0000122DFF8BC154FF4006004F096FF2522AD
:1045D000DFF89415DFF8A80500782523584300F686
:1045E000010080B204F09AFFDFF894050078401CC7
:1045F000DFF88C1508700122DFF884154FF4006095
:1046000004F08CFFDFF8780500780A2807DB01202A
:10461000DFF8701508700020DFF86415087010BD11
:1046200080050108B01700200002010814020108EB
:10463000440E002080B54320DFF8241508700A22BC
:10464000DFF8EC14702004F058FFDFF81C15DFF8D9
:104650000405FFF70CFB012840F085804420DFF8BB
:10466000081588741920DFF80015C874DFF8FC14E9
:10467000DFF8E004FFF700FC7448007801282CD034
:1046800071480078012803D06F480078002815D1C0
:10469000DFF8F4240021022000F08FFB012005F058
:1046A00093FFDFF884040068401CDFF87C14086086
:1046B000DFF874040068FFF792FA05E0DFF8CC2415
:1046C0000021022000F079FB02205F4908700122DE
:1046D0005D49D02004F022FF09E05C480078012801
:1046E00005D1DFF8AC240021022000F066FB012098
:1046F000DFF8501408700020DFF84C140870DFF861
:104700007C04007802282ED00122DFF888144FF4B0
:10471000206004F0F2FE2F22DFF84C14DFF8600472
:1047200000782F23584300F6012080B204F0F6FEF3
:10473000DFF860040078401CDFF85814087001228C
:10474000DFF850144FF4206004F0E8FEDFF8440472
:1047500000780A2807DB0120DFF83C1408700020ED
:10476000DFF83014087001BD900501082802010827
:104770000919002080B54520DFF8E41308700A22EB
:10478000DFF8AC13702004F0B8FEDFF8DC13DFF8BC
:10479000C403FFF76CFA01281BD14620DFF8C813C9
:1047A00088741620DFF8C013C874DFF8C013DFF870
:1047B000A403FFF739FCDFF8E4230021022000F016
:1047C000FCFA0120DFF87C1308700020DFF8781372
:1047D000087001BDA086010080B54720DFF8801376
:1047E00008700A22DFF84813702004F086FEDFF814
:1047F0007813DFF86003FFF73AFA01281BD148204D
:10480000DFF8641388740A20DFF85C13C874DFF8DB
:104810005C13DFF84003FFF789FCDFF884230021F5
:10482000022000F0CAFA0120DFF8181308700020F7
:10483000DFF81413087001BD3C020108010060405C
:1048400067667640343383406E180020711800206C
:10485000701800200000604080B54920DFF8001388
:1048600008700A22B249702004F047FEBE49B948D8
:10487000FFF7FDF901282DD14A20BB498874192082
:10488000B949C874B949B348FFF7AAFCA7480078EA
:10489000012810D0C34A0021022000F08EFA8021A6
:1048A000C14804F08FFD1021C04804F08BFD0120A9
:1048B000BF49087008E09D480078012804D1BD4A2E
:1048C0000021022000F079FA00209F4908700120A1
:1048D0009C49087001BD00006018002080B54B2085
:1048E0009F4908700A229249702004F006FE9E49F2
:1048F0009848FFF7BCF901281FD14C209A498874C9
:104900000E209949C87499499248FFF72DFDAA4A8B
:104910000021022000F051FA8021A34804F052FD4A
:104920001021A24804F04EFD0120A149087000208A
:104930008549087001208349087001BD80B56D204C
:104940008749087088498348FFF791F9012809D100
:104950006E208549887401208349C87483497D4845
:10496000FFF736FD01BD000067668640C4170020D2
:10497000C517002070B5002500210020002600206A
:1049800000247B2078490870724C00252BE0764883
:10499000C07C10F11401744801F0DCFF80B2000A01
:1049A0007149714AD27C511808756F48C07C10F16A
:1049B00014016D4801F0CEFF6B496B4AD27C51184F
:1049C00048756948C07C10F11601C9B2664805F007
:1049D00091FE6548C07C10F116026349774E3000A5
:1049E00005F060FA6D1CEDB275480088854280F2D2
:1049F00094807448EDB2285C7B28F3D1280005E050
:104A00007049EDB2695C2170641C6D1CEDB26D499A
:104A1000C0B24118C97C14318D42F1DB6949694A41
:104A2000C0B28218D27C5118097D4A4A82F82810F7
:104A30006449644AC0B28018C07C4018407D454932
:104A400081F829004348407880070CD55E495F48CB
:104A5000FFF733F9002806D100205D4908700020D7
:104A6000574908805FE03B4890F82800394991F8A1
:104A7000291011EB00263748C07C10F1140135488D
:104A800001F068FF3349897C40290CD0002107E000
:104A9000304AC9B28A18D27F4E4BC9B2CA54491C97
:104AA000C9B20629F4DBB6B280B286429AD1334845
:104AB0000078022806D12748807C402802D00120B7
:104AC0001E4908702348807C40280ED041280FD012
:104AD000432810D0452811D0472812D0492813D098
:104AE0004B2814D06D2815D051E7FFF793FC4EE703
:104AF000FFF7F4FC4BE7FFF79DFD48E7FFF73AFEB1
:104B000045E7FFF769FE42E7FFF7A6FE3FE7FFF73D
:104B1000E5FE3CE7FFF712FF39E700202C4908705B
:104B200000202749088070BD081800207118002057
:104B300098170020A51800206D1800207918002073
:104B4000A00501086A1800209218002072180020A1
:104B5000A3180020541600207C1600207318002093
:104B60007A18002068160020801600209416002075
:104B7000B0050108C0050108D0050108E6180020AD
:104B80007418002075180020E0050108F0050108E0
:104B9000000601087618002077180020100601088A
:104BA00050020108200601080008014000100140E1
:104BB0006918002030060108400601085806002048
:104BC00062180020440F00205E160020AC17002061
:104BD0000B190020A417002038B504004FF48061A1
:104BE000DFF8100404F0EEFB002522E04FF4006132
:104BF000DFF8000404F0E9FB4FF48051DFF8F40320
:104C000004F0E3FB642005F0BBFD4FF48051DFF8B6
:104C1000E40304F0D7FB642005F0B2FD4FF48051AB
:104C2000DFF8D00304F0D1FB642005F0A9FD640097
:104C30006D1CEDB2082D09DAE4B22006D6D54FF48A
:104C40000061DFF8B00304F0BDFBD5E731BD10B55E
:104C5000040000F06CF8F820FFF7BEFF642005F0B8
:104C60008FFD14F0F000FFF7B7FF642005F088FD1A
:104C70002001C0B2FFF7B0FF10BD70B500250026BF
:104C80004FF48061DB4804F09DFB00241DE06D00C3
:104C90004FF48051D74804F098FB642005F070FD74
:104CA0004FF48051D34804F08DFB642005F068FD7B
:104CB0004FF48051CF4804F088FB1021CD4804F018
:104CC00076FB002800D06D1C641CE4B2082CDEDBEF
:104CD00000241DE076004FF48051C64804F075FBB7
:104CE000642005F04DFD4FF48051C24804F06AFB8A
:104CF000642005F045FD4FF48051BE4804F065FB8B
:104D00001021BC4804F053FB002800D0761C641C22
:104D1000E4B2082CDEDB4FF48061B64804F055FBAA
:104D200015F0F00016F00F010818C0B270BD80B584
:104D3000FC20FFF751FFFFF7A0FF01BD10B50400F5
:104D4000FFF7F5FFFA20FFF747FF642005F018FD95
:104D500014F0F000FFF740FF642005F011FD200182
:104D6000C0B2FFF739FF10BD80B50120FFF76FFF1C
:104D700001BD80B5C0B2012806D01DD303280FD0D5
:104D800008D3042812D017E051F08000C0B2FFF71A
:104D90005EFF11E051F09000C0B2FFF758FF0BE04A
:104DA00051F08800C0B2FFF752FF05E051F09800C3
:104DB000C0B2FFF74CFFFFE701BD38B51400C9B220
:104DC000C0B2FFF7D6FF002504E0EDB2285DFFF783
:104DD000B5FF6D1CEDB2285D0028F6D131BD2DE97F
:104DE000F043C1B004000D0016001F005FF0000882
:104DF000FF210022E946484600F050F9022F5FD11A
:104E00003078717811EB0020FF2839D930218DF8E6
:104E1000001042F21071B0FBF1F130318DF8011049
:104E200042F21071B0FBF1F201FB12014FF47A7201
:104E3000B1FBF2F130318DF802104FF47A71B0FB12
:104E4000F1F201FB12016422B1FBF2F130318DF875
:104E500003106421B0FBF1F201FB12010A22B1FB45
:104E6000F2F130318DF804100A21B0FBF1F201FBB0
:104E7000120030308DF8050000208DF8060074E037
:104E800030218DF800106421B0FBF1F130318DF844
:104E900001106421B0FBF1F201FB12010A22B1FB07
:104EA000F2F130318DF802100A21B0FBF1F201FB72
:104EB000120030308DF8030000208DF8040054E01B
:104EC0005FF000091DE019F80600642190FBF1F283
:104ED00001FB12000A2190FBF1F03030694601F825
:104EE000190019F806000A2190FBF1F201FB1200EB
:104EF0003030694611EB4901487018F1020819F188
:104F00000109B9452AD219F806006528DBDB19F832
:104F10000600642190FBF1F03030694601F8190079
:104F200019F80600642190FBF1F201FB12000A213E
:104F300090FBF1F03030694611EB4901487019F8E7
:104F400006000A2190FBF1F201FB120030306946A5
:104F500011EB4901887018F10308D0E70020694679
:104F60005FFA88F818EB010148702900C9B22000E7
:104F7000C0B2FFF7FEFE5FF0000906E0684619F8D0
:104F80000000FFF7DBFE19F10109684619F800007F
:104F90000028F3D141B0BDE8F08380B580211548E9
:104FA00004F013FA4FF48071124804F00EFA4FF433
:104FB0000071104804F009FA012005F0BFFB4FF41E
:104FC00000710C4804F0FEF90A2005F0B7FB302010
:104FD000FFF73DFE642005F0D3FB0C20FFF737FE02
:104FE000642005F0CDFB0120FFF731FE642005F0C1
:104FF000C7FB01BD00180140002205F0FBBB00000B
:1050000000F10103810704D010F8011B89B1810769
:10501000FAD10268B2F10131914311F0803F04BF2F
:1050200050F8042FF6E710F8011B11B110F8011B1E
:10503000FBE7C01A704700000300002013F0030FC5
:1050400009D0521E22BF13F8010B11F801CBB0EBAF
:105050000C00F3D07047121F22BF53F8040B51F815
:1050600004CB6045F7D0121D0AD200BA9CFA8CFC22
:10507000B0EB0C0038BF6FF0000088BF0120704714
:10508000521E22BF13F8010B11F801CBB0EB0C003C
:10509000F6D0521C08BF10467047000062F30F2282
:1050A00062F31F42401810F0030308D0C91A1FD33F
:1050B000DB0748BF00F8012D28BF20F8022D1300A0
:1050C00030B414461546103928BF20E93C00FAD800
:1050D000490728BF20E90C0048BF40F8042D89008B
:1050E00028BF20F8022D48BF00F8012D30BC7047C2
:1050F000C91818BF00F8012DCB0728BF00F8012DF3
:105100007047000080B5DFF8540300780A21DFF80B
:105110004C2312780A2392FBF3F290FBF1F301FB8C
:10512000130050EA0210DFF834130870DFF82C0384
:1051300040780A21DFF8242352780A2392FBF3F205
:1051400090FBF1F301FB130050EA0210DFF80C139F
:105150004870DFF8080380780A21DFF8002392788E
:105160000A2392FBF3F290FBF1F301FB130050EAE8
:105170000210DFF8E8128870DFF8E002C0780A2138
:10518000B64AD2780A2392FBF3F290FBF1F301FBCB
:10519000130050EA0210B149C870B04800790A21E2
:1051A000AE4A12790A2392FBF3F290FBF1F301FB72
:1051B000130050EA0210A9490871A84840790A2151
:1051C000A64A52790A2392FBF3F290FBF1F301FB1A
:1051D000130050EA0210A1494871A04880790A21C1
:1051E0009E4A92790A2392FBF3F290FBF1F301FBC2
:1051F000130050EA02109949887100F0B1F820219B
:10520000002000F046F895480178022000F041F8AF
:1052100092484178032000F03CF8904881780420BF
:1052200000F037F88D48C178052000F032F88B483F
:105230000179062000F02DF888484179072000F018
:1052400028F886488179082000F023F80021002002
:1052500000F01FF801BD10B5040005F019FBA220F5
:1052600005F069FB05F040FB2000C0B205F063FBD0
:1052700005F03AFB05F00CFBA32005F05CFB05F004
:1052800033FB05F083FB040005F01BFB2000C0B2DC
:1052900010BD38B504000D0005F0FAFAA22005F0A3
:1052A0004AFB05F021FB2000C0B205F044FB05F0ED
:1052B0001BFB2800C0B205F03EFB05F015FB05F016
:1052C00000FB31BD38B500240225002408E0280089
:1052D000C0B2FFF7C0FF6149E4B260546D1C641CAA
:1052E000E4B2072CF3DB5D48007810F07F005B49E7
:1052F00008705A48407810F07F0058494870574865
:10530000807810F03F00554988705448C07810F0FC
:105310003F005249C8705148007910F007004F49CA
:1053200008714E48407910F01F004C4948714B48B5
:1053300080794B4908704948407949494870474845
:10534000C07847498870454880784549C8704348C7
:10535000407843490871414800784149487131BD5E
:1053600080B500210120FFF794FF00210E20FFF7F8
:1053700090FF83210D20FFF78CFF01BD10B50400C5
:10538000C9B2012902D002294BD05FE02078C0B217
:105390000009C0B20A21227812F00F0201FB00209E
:1053A0002E4988716078C0B20009C0B20A216278C3
:1053B00012F00F0201FB002028494871A078C0B20A
:1053C0000009C0B20A21A27812F00F0201FB0020EE
:1053D0002249C870E078C0B20009C0B20A21E27860
:1053E00012F00F0201FB00201C4988702079C0B226
:1053F0000009C0B20A21227912F00F0201FB00203D
:10540000164948706079C0B20009C0B20A216279B9
:1054100012F00F0201FB002010490870FFF772FE26
:1054200014E0FFF74FFF0E48007820700C484078DA
:1054300060700B488078A0700948C078E070084818
:1054400000792071064840796071FFE710BD80B592
:1054500001210448FFF792FF01BD00000009002070
:10546000E817002008090020F8B5344F384605F049
:10547000BDFA0446381D05F0B9FA054607F10800E3
:1054800005F0B4FA064607F10C0005F0AFFA2378F0
:105490002B492C4A002B40D12B6802FB03132B60B5
:1054A000082702FB03132B6002FB03132B6002FB94
:1054B00003132B6002FB03132B6002FB03132B600F
:1054C00002FB03132B6002FB03132B600346D5F88A
:1054D00000C002FB0C1CC5F800C043F804CB7F1EC3
:1054E000D5F800C002FB0C1CC5F800C043F804CB83
:1054F000D5F800C002FB0C1CC5F800C043F804CB73
:10550000D5F800C002FB0C1CC5F800C043F804CB62
:10551000DDD1C36F3360012323702B6802FB0311BD
:105520002960317801F01F0150F8212032602A688B
:1055300040F82120306880008008F2BD000400207F
:105540005FF36E3C0D6619000021C0B2B0F141025C
:105550001A2A02D2B0F137010EE0C0B2B0F16102F6
:105560001A2A02D2B0F1570106E0C0B2B0F13002FF
:105570000A2A01D2B0F130010800C0B27047F0B47D
:105580000021002300240022002502781100C9B266
:105590000909C9B20A23D2B212F00F0203FB01219A
:1055A0000A00D2B2102A01DA08326DE0103A03790B
:1055B0001900C9B20909C9B20A24DBB213F00F03FA
:1055C00004FB01310B00C4782100C9B20909C9B23A
:1055D0000A25E4B214F00F0405FB01410C004579E3
:1055E0002900C9B20909C9B20A26EDB215F00F05A2
:1055F00006FB01510D00641CDBB2012B12D070D3ED
:10560000032B61D051D3052B5ED00BD3072B5BD07E
:1056100008D3092B06D057D30B2B03D054D30C2B14
:1056200058D05EE0E4B2202C01D15B1C0124DBB237
:1056300019000A26DBB20A2793FBF7F391FBF6F772
:1056400006FB171151EA03110B000371E4B22100AC
:105650000A23E4B20A2694FBF6F491FBF3F603FB6B
:10566000161151EA04110C00C470EDB229000A238E
:10567000EDB20A2495FBF4F491FBF3F503FB15114D
:1056800051EA04110D004571D2B211000A23D2B2C1
:105690000A2492FBF4F291FBF3F403FB141151EA98
:1056A00002110A000270F0BC704703210D4205D1BF
:1056B000E4B21E2C07D15B1C012404E0E4B21D2CD3
:1056C00001D15B1C0124B2E7E4B2202C01D15B1CA8
:1056D0000124ACE7E4B2202C02D1012301246D1C8B
:1056E000A5E7E0E7020004E003782C2B00D1491E77
:1056F000401CC9B200290BD003782A2B06D00378AE
:10570000203B5B2B02D20378002BEDD1FF2001E080
:10571000801AC0B27047012201E0C0B242430B00C0
:10572000591EDBB2002BF8D1100070472DE9F84F5D
:1057300007000C003800002500265FF000095FF02C
:10574000000A5FF0000802E019F10109401C01782D
:105750002D2902D158F00208401C01782C2902D0D2
:105760000178002906D15FEA887000D57F1C5FF0C0
:10577000000B25E001782E2908D158F00108401CC3
:105780005FEAC871E0D51AF1010ADFE70178303924
:105790000A29F5D35FF000095FF0000AE3E7B9F1E9
:1057A0000100B0EB0B01C9B20A20FFF7B4FF5FFAAA
:1057B0008BFB1BF80710303901FB00551BF1010B67
:1057C0005FFA8BFB5FFA89F9CB45E8D35FFA8AFA77
:1057D000BAF1050F01DB5FF0040A84F800A05FF066
:1057E000000B14E0BAF10100B0EB0B01C9B20A20C2
:1057F000FFF791FF5FFA89F95FFA8BFB1BEB090159
:10580000C9194978303901FB00661BF1010B5FFAB9
:105810008BFB5FFA8AFAD345E4D35146C9B20A201A
:10582000FFF779FF00FB05605FEA887100D5404211
:10583000BDE8F28F80B5DFF8282DDFF8283D05F0B0
:10584000D7F80022DFF86C3D05F0A4F904BD2DE97E
:10585000F04F85B00C001500984605F0D1FA0022F3
:10586000DFF8543D05F096F906000F00200005F022
:10587000C7FA0022DFF8403D05F08CF9CDE90201BE
:10588000280005F0BDFA0022DFF82C3D05F082F972
:1058900004000D00404605F0B3FA0022DFF8183D81
:1058A00005F078F9CDE9000130003900FFF7C2FFBB
:1058B00082468B4620002900FFF7BCFF80468946C0
:1058C0005046594642464B4605F0A8FA06000F00DE
:1058D000DDE90201FFF7AEFF04000D00DDE9000184
:1058E000FFF7A8FF02000B002000290005F096FA40
:1058F000CDE902013000390000225FF0804305F05D
:1059000049F905F04BFBCDE900015046594605F039
:1059100048FB04000D004046494605F042FB0600E6
:105920000F00DDE9020100225FF0804305F032F94B
:1059300005F034FB82468B46DDE90023DDE90001FA
:1059400005F056F88046894632003B0020002900C9
:1059500005F04EF804000D005046594652465B468D
:1059600005F046F822002B0005F042F842464B466F
:1059700005F01AFB05F08CFB05F002FC00225FF03D
:10598000804305F035F8DFF8342CDFF8343C05F0BF
:105990002FF80022DFF82C3C05F02AF805F06CFC0B
:1059A0000022DFF8203C05F0F5F805B0BDE8F08FE7
:1059B00000002DE9F04F91B000245FF000080025B1
:1059C000002600208DF809000020ADF80C00002012
:1059D0008DF808005FF0000A0020ADF80A000020F2
:1059E0008DF8070000275FF000085FF00009002035
:1059F0008DF8000000200790002006900020059000
:105A0000002004905FF0000B00208DF806000020BD
:105A10008DF8050000208DF8040000208DF80300AB
:105A200000208DF8020000208DF8010000200CA855
:105A30001021FFF7E1FA08A81021FFF7DDFADFF8DF
:105A4000880B0078002800F063840020DFF8781BC2
:105A50000870002240F22551DFF8700B05F0ADFC14
:105A60000020DFF84C1B0880DFF87C0AA4B2205C21
:105A7000002854D0DFF8700AA4B2205C242819D181
:105A8000DFF8640AA4B22018C078472812D1DFF8E2
:105A9000580AA4B22018007947280BD1DFF8480A29
:105AA000A4B220184079412804D101208DF80900C2
:105AB000ADF80C409DF8090000282BD0DFF8280A2B
:105AC000A4B2205C2A2825D1DFF81C0AA4B2201831
:105AD000C0780D281ED1DFF8100AA4B22018007972
