:020000040800F2
:10000000702A0020951F0108A51F0108A71F0108DD
:10001000A91F0108AB1F0108AD1F01080000000067
:10002000000000000000000000000000AF1F0108F9
:10003000B11F010800000000B31F0108852101085D
:10004000892101088D2101089121010895210108CC
:10005000992101089D210108A1210108A52101087C
:10006000A9210108AD210108B1210108B52101082C
:10007000B9210108BD210108C1210108C5210108DC
:10008000C9210108CD210108D1210108D52101088C
:10009000D9210108DD210108E1210108E52101083C
:1000A000E9210108ED210108F1210108F5210108EC
:1000B0001BD900080DDB00080122010805220108F8
:1000C000092201080D220108112201081522010848
:1000D0001922010879A00008BBA0000843A100086C
:1000E000292201082D2201083122010835220108A8
:1000F000392201083D220108412201084522010858
:10010000492201084D220108512201085522010807
:10011000CBA100080DA20008612201086522010898
:10012000692201086D220108712201087522010867
:100130000021401C002106E0DFF8442C8A181279C7
:100140000270401C491C0429F6DB704770B504009E
:1001500000220023002500260020DFF8280C03F0F1
:10016000E7F903F051FA4FF47A7190FBF1F2642150
:1001700090FBF1F10A2391FBF3F503FB15130A2120
:1001800090FBF1F10A2591FBF5F605FB16150A2106
:1001900090FBF1F601FB1606EDB20A21F6B201FB67
:1001A00005612170641CD2B20A21DBB201FB02316D
:1001B0002170002803D5207850F08000207070BD99
:1001C000F8B50400002200230025002600200020AE
:1001D000DFF8B40B03F0ACF903F016FA42F2107139
:1001E00090FBF1F24FF47A7190FBF1F10A2391FB4D
:1001F000F3F503FB1513642190FBF1F10A2591FB44
:10020000F5F605FB16150A2190FBF1F10A2691FB84
:10021000F6F706FB17160A2190FBF1F701FB170012
:10022000F6B20A21C0B201FB06002070641C6420F3
:100230000A2101FB03F100FB021028182070F1BD18
:1002400080B5DFF8081A0978002903D002291BD0ED
:100250000DD336E0002001F08BFD002806D0DFF83A
:10026000EC090078401CDFF8E419087029E0C0B2FE
:1002700001F014FE002806D0DFF8D0090078401CF9
:10028000DFF8C81908701CE002F016F8002817D033
:100290000020DFF8B81908700020DFF8B4190870E2
:1002A00003F0AFFADFF8AC290021022004F089FE48
:1002B0000120DFF8A41908700020DFF8D01A0870B8
:1002C000FFE701BD2DE9F04385B004000D005FF0AC
:1002D000000900210026002000276846102104F0B4
:1002E0008FFF5FF000085FF0000901E019F10109DC
:1002F0005FFA89F9B9F1FF0F18D0200004F084FFEC
:100300000200DFF88C0A5FFA89F919EB000120007E
:1003100004F096FF00280ED10020DFF84019087085
:10032000200004F071FF10EB09084F465FF0000950
:10033000012140460DE05FFA89F9B9F1FA0FD5DBEA
:10034000FF2084E0DFF8482AC0B2825C202A15D161
:10035000401CC0B2FF282AD0DFF8342AC0B2825C29
:100360002C2AEFD1491E6A465FFA89F9052303FB5F
:100370000922117019F10109012142E0DFF8102A68
:10038000C0B2825C0D2A01D101263AE0DFF8002AD2
:10039000C0B2825C0A2A27D1F6B2002E20D0481EB5
:1003A00069465FFA89F9052202FB091108705FFAB4
:1003B00088F80022DFF8D809FFB23C184146200037
:1003C00004F070FF9DF8050002283BD19DF806005F
:1003D0000A219DF8072001FB00201038287035E025
:1003E0005FF0000901210CE06A465FFA89F90523F4
:1003F00003FB0922C9B2DFF89839C0B2C35C8B5441
:10040000491C5FFA89F9B9F1030F01DB5FF00209BA
:10041000C9B2052900DB042118F101085FFA88F848
:10042000B8F1FF0F94D10020DFF830180870FF21D9
:100430000022DFF85C49200004F034FF5FF0000880
:10044000FF2004E09DF8060030382870002005B039
:10045000BDE8F08338B504000025002500E06D1CE0
:10046000EDB2FF2D1AD0200004F0CEFE0200DFF81E
:100470002009EDB22918200004F0E2FE0028EED198
:10048000200004F0C1FE01000022DFF80409EDB2F3
:100490002C18200004F006FF012000E0002032BDEF
:1004A00080B5DFF8F008007819280CDBDFF8E808E1
:1004B0000078002807D00020DFF8D8180870012045
:1004C000DFF8D8180870DFF8D4080078002801D0C9
:1004D00002F083FA01BD80B501789A2904DA017827
:1004E00011F00F010A2905DB012101700121DFF85C
:1004F000B0281170401C0178132907DA017800290F
:1005000004D0017811F00F010A2905DB01210170E7
:100510000121DFF88C281170401C0178322907DA9C
:100520000178002904D0017811F00F010A2905DBB8
:10053000012101700121DFF868281170401C017849
:10054000252904DA017811F00F010A2905DB0121C0
:1005500001700121DFF848281170401C01786129E1
:1005600004DA017811F00F010A2905DB012101707D
:100570000121DFF82C281170401C0178612904DA70
:10058000017811F00F010A2905DB0121017001201A
:10059000DFF80C180870DFF808080078002813D07E
:1005A0000020DFF8FC17087003F02BF9DFF8F427C0
:1005B0000021022004F005FD0120DFF89C160870E0
:1005C0000020DFF8C817087001BD10B586B0002004
:1005D0000524002101A80021002206C00838684631
:1005E000DFF8C4170A68026003A8DFF8C0170CC957
:1005F0000CC008390838DFF8B8070078002804D0A4
:10060000DFF89407007800280BD0DFF8A8070078FF
:10061000002800F0C080DFF880070078002840F054
:10062000BA80DFF894070078002840F08480012029
:10063000DFF884170870DFF88407FFF779FDDFF82B
:100640008007007800280FD00020C0B2152849DAB2
:10065000DFF87017C0B24118497ADFF86027C0B2DE
:1006600082181173401CF0E7022101A804F08AFFF0
:1006700001A8FFF730FF002009E001A9E4B2615CA6
:10068000DFF83827C0B282181173641E401CC0B254
:100690000628F2DB002008E06946C0B2415CDFF8C2
:1006A0001C27C0B282189174401CC0B20428F3DB2E
:1006B000002008E003A9C0B2415CDFF80027C0B207
:1006C00082189175401CC0B20528F3DB002006E0BB
:1006D0000021DFF8E826C0B28218D176401CC0B2F3
:1006E0000628F5DB04F0C4FFFF2190FBF1F201FBCB
:1006F00012010800C0B20009DFF8C026507211F0E4
:100700000F00DFF8B81688721521DFF8BC0606F076
:1007100065F8DFF8A81681F821002021DFF8AC0683
:1007200006F034FADFF8941681F82200FF20DFF893
:100730008C1681F82300DFF8980600880B282ADB46
:100740000020DFF88C160880DFF888060078002883
:1007500010D0DFF868362422DFF87C060168DFF865
:100760007C0602F03BF8002815D00120DFF828169F
:10077000087010E0DFF86806007800280BD000222F
:100780002421DFF8380606F0B4FD002803D001204C
:10079000DFF804160870DFF84C060078052864DBE3
:1007A000DFF8F405007801285FD1DFF83C06007817
:1007B00000285AD10020DFF82C160870DFF82C062C
:1007C0000078401CDFF824160870DFF82406007853
:1007D000002821D0DFF81C260221042004F0F1FBC0
:1007E0000020DFF80C1608700020DFF800160870F3
:1007F0000220DFF8A41508700020DFF8FC1508704F
:100800000020DFF8F81508800020DFF8F4150880D4
:100810000020DFF880150870DFF8D0050078032885
:1008200023DB0020DFF8C41508700020DFF868150E
:1008300008700020DFF880150870DFF8C805007820
:10084000401CDFF8C0150870DFF8B80500780428F0
:100850000BDB0020DFF8AC15087002F0D2FFDFF8E8
:10086000A8250021022004F0ACFB06B010BD80B525
:10087000DFF898150978142906DB0021DFF88C25AC
:100880001170C0B2FFF7DCFC01BD7EB40022002372
:100890006A4600240025002670C20C3A002212E0AD
:1008A000D2B2145C2F2C0DD0D2B2145C2C2C09D0F7
:1008B000D2B2145C3A2C05D0D2B2145C6D46DBB2D5
:1008C0005C555B1C521CD2B2112AE9DB00220EE0FF
:1008D0006846D2B210F812006B46D2B213EB420354
:1008E0005B7813EB00103038D2B25054521CD2B2A5
:1008F000062AEDDB77BC704780B5DFF81405007879
:10090000022861D102F07DFFDFF80405407801285C
:100910000BD14021DFF8FC0408F0F4FFDFF8F824E5
:100920000021022004F04DFB0FE0DFF8E4044078E2
:1009300002280AD14021DFF8DC0408F0E6FFDFF8E6
:10094000DC240021022004F03CFBDFF8C404C07862
:100950004FF48071DFF8B824927801FB0020DFF8B3
:10096000C0140880DFF8A80440794FF48071DFF8E4
:10097000A024127901FB0020DFF8A8140880DFF81A
:10098000A8240221022004F01CFB0223DFF89C248F
:100990000421022004F027FB30A20721022004F0EA
:1009A00010FBDFF88C240221032004F00AFB022351
:1009B000DFF880240421032004F015FB27A207217F
:1009C000032004F0FEFA3BE0DFF84404007801283D
:1009D00008D102F016FFDFF860240021022004F0A5
:1009E000F0FA2DE0DFF828040078032828D102F07F
:1009F00008FFDFF848240021022004F0E2FADFF8C3
:100A00001004407801280BD14021DFF8080408F0D9
:100A100079FFDFF82C240421022004F0D2FA0FE041
:100A2000DFF8EC03407802280AD14021DFF8E40324
:100A300008F06BFFDFF80C240421022004F0C1FA57
:100A40000B21DFF8040406F0A1F8DFF800140873A6
:100A5000FF20DFF8F813487301BD0000D4AA00009E
:100A600010B5040000206078212840F0C280A078F2
:100A7000012803D02079DFF8D813087002F0C1FEF6
:100A8000A07801280BD002281AD0032831D00528DD
:100A900051D006286BD0092800F08680A6E00120FE
:100AA000DFF84C130870DFF8AC230021022004F0BB
:100AB00088FA0120684908700020B449087095E060
:100AC0000120DFF8941308706079DFF89013087044
:100AD000A079DFF888134870DFF884230021022012
:100AE00004F06FFA01205C4908700020A7490870E3
:100AF0007CE00120DFF86C130870607A4FF480719D
:100B0000227A01FB0020DFF8601308806079DFF8AB
:100B10004C130870A079DFF844134870DFF84C23B9
:100B20000021022004F04DFA01204B4908700020FA
:100B3000964908705AE00120DFF834130870DFF896
:100B4000341314F10800FFF7A0FE6079C349087060
:100B5000A079C2494870C84A0021022004F031FA45
:100B600001203D4908700020884908703EE00120BE
:100B7000C2490870607A4FF48071227A01FB00202C
:100B8000BF4908806079B5490870A079B3494870B9
:100B9000BC4A0021022004F014FA01202E490870FA
:100BA00000207A49087021E00120B749087001202F
:100BB0008F490870002006E0C0B20119097A944AF2
:100BC000C0B28154401CC0B20628F5DB9F48FFF735
:100BD000AFFA60799D494872A0799C4988720120DA
:100BE0001D490870002069490870FFE70020A070C7
:100BF0002AE06078812827D1207995490870A0786B
:100C00002D2821D10120A14908700020A049087099
:100C1000607992490870A07990494870002006E0F8
:100C2000C0B20119097A9B4AC0B28154401CC0B2BB
:100C3000E17908398842F3DB9648007D412802D1EA
:100C4000012095490870FFE710BD0000241A00201C
:100C5000CF190020901C0108C2190020BA190020E9
:100C60000021002103E000220270401C491CC9B28F
:100C70003C29F8DB704780B588480078002820D0F0
:100C80000020444908700120854908700120564918
:100C9000087001F0A2FE8348007800286FD0402140
:100CA0005C4808F02FFE01207F49087000207D4934
:100CB00008700120DFF8B01D08707C48FFF7D0FEF7
:100CC0005DE07B480078152859DBDFF89C0D007843
:100CD000002854D000207649087076480078401CDF
:100CE0007449087074480078401C7349087058486B
:100CF0000078012834D100206E4908705C480078E3
:100D0000002804D03348007808F0CEF828E0554891
:100D10000078002805D065492E48007808F06AF967
:100D20001EE056480078002805D060492948007820
:100D300008F008FA14E054480078002804D0254848
:100D4000007808F0B7FA0BE050480078002807D088
:100D50002048007808F0B6FC1E48007808F026FB12
:100D6000544800781F280ADB0020524908700020F0
:100D7000DFF8F81C08700020DFF8EC1C087001BDDB
:100D8000E01800200000C84200002041E9190020BE
:100D900048120020EE1900203C1A0020451A0020BD
:100DA000461A0020A41C0108602101082021010826
:100DB000421A0020F21900203D1A00200C080020E1
:100DC0000E1A0020E4070020180800200D0800205B
:100DD000D8190020101A0020441900208C18002077
:100DE000111A0020D9190020191A0020401A0020D9
:100DF000301A0020282101080C1A0020A419002014
:100E00009C190020411A0020241F0108D31900203A
:100E10001019002000080140302101083821010884
:100E2000B0190020AE19002040210108121900203D
:100E30004821010814190020B81C010844200108A9
:100E4000502001085C200108F1080020F008002073
:100E50003E1A0020CC1C0108321A0020320A002061
:100E6000E01C0108331A002094190020F41C01082A
:100E7000311A002078180020081D0108341A0020BB
:100E8000961900201C1D0108351A0020381A002070
:100E9000371A002048160020391A0020231A002093
:100EA000211A00203F1A0020C0190020E014002061
:100EB000DA1900204B1A00204A1A002010B500242D
:100EC00000210122DFF8F01C4FF4206008F0ABFD98
:100ED0000122DFF8E81C4FF4006008F0A4FDDFF801
:100EE000E00C00781528C0F29A83DFF8840B0078B4
:100EF000002800F09483DFF8CC0C0078022840F042
:100F00008E83DFF8C40C0078002840F08883DFF877
:100F1000BC0C0078002800F08283DFF8B40C007865
:100F2000401CDFF8AC1C08700020DFF8941C08702F
:100F3000DFF8A00C0078002840F03D810120DFF8A8
:100F4000941C0870DFF8900CFFF7F2F804F090FBA7
:100F5000FF2190FBF1F201FB12010800C0B2000971
:100F6000DFF8742C507211F00F00DFF86C1C8872DF
:100F70002A20DFF8641C08735A20DFF85C1C4873D1
:100F8000DFF8580C007841280DD0432837D0452889
:100F900061D0472800F08B80492800F0B4806D288C
:100FA00000F0DD8007E13620DFF82C1CC872002439
:100FB00009E0DFF82C0CE4B2205CDFF81C1CE4B282
:100FC00061188873641CE4B2252CF2DB0221DFF87F
:100FD000140C04F0D7FA2320DFF8FC1B81F8390049
:100FE0003921DFF8040C05F0D1FDDFF8EC1B81F8A6
:100FF0003A00FF20DFF8E01B81F83B00DBE04020F7
:10100000DFF8D41BC872002409E0DFF8D40BE4B287
:10101000205CDFF8C41BE4B261188873641CE4B27E
:101020002F2CF2DB0221DFF8C80B04F0ABFA2320EF
:10103000DFF8A41B81F843004321DFF8AC0B05F077
:10104000A5FDDFF8941B81F84400FF20DFF8881B22
:1010500081F84500AFE03D20DFF87C1BC87200241A
:1010600009E0DFF87C0BE4B2205CDFF86C1BE4B233
:1010700061188873641CE4B22C2CF2DB0221DFF8C7
:101080006C0B04F07FFA2320DFF84C1B81F8400042
:101090004021DFF8540B05F079FDDFF83C1B81F8A7
:1010A0004100FF20DFF8301B81F8420083E031204F
:1010B000DFF8241BC872002409E0DFF8240BE4B237
:1010C000205CDFF8141BE4B261188873641CE4B27E
:1010D000202CF2DB0221DFF81C0B04F053FA232052
:1010E000DFF8F41A81F834003421DFF8FC0A05F047
:1010F0004DFDDFF8E41A81F83500FF20DFF8D81A3B
:1011000081F8360057E04020DFF8CC1AC87200247E
:1011100009E0DFF8CC0AE4B2205CDFF8BC1AE4B2E4
:1011200061188873641CE4B2252CF2DB0221DFF81D
:10113000C00A04F027FA2320DFF89C1A81F8430044
:101140004321DFF8A40A05F021FDDFF88C1A81F8AD
:101150004400FF20DFF8801A81F845002BE02820AA
:10116000DFF8741AC872002409E0DFF8740AE4B2E8
:10117000205CDFF8641AE4B261188873641CE4B27E
:10118000172CF2DB0221DFF8700A04F0FBF92320B0
:10119000DFF8441A81F82B002B21DFF84C0A05F008
:1011A000F5FCDFF8341A81F82C00FF20DFF8281A4C
:1011B00081F82D00FFE7DFF81C0A0078012840F0D5
:1011C000E681DFF8380A0078002800F0FA80DFF8BE
:1011D0000C0A007841280DD0432836D045285FD02E
:1011E000472800F08880492800F0B0806D2800F082
:1011F000CA80E5E0DFF8E0393C22DFF8500B0168F7
:10120000DFF84C0B01F0EAFA00281DD00220DFF8CD
:10121000C41908700120DFF83C1B08700120DFF8BA
:10122000381B08700020DFF8A8190870DFF8D029F3
:101230000021022003F0C5FE0120DFF8201B08700A
:101240000020DFF81C1B0870A1E1DFF88C39462272
:10125000DFF8F80A0168DFF8F80A01F0BFFA0028A1
:101260001DD00220DFF86C1908700120DFF8E41AA5
:1012700008700120DFF8E01A08700020DFF850192C
:101280000870DFF8E02A0021022003F09AFE012016
:10129000DFF8C81A08700020DFF8C41A087076E179
:1012A000DFF834394322DFF8A40A0168DFF8A00A26
:1012B00001F094FA00281DD00220DFF818190870F8
:1012C0000120DFF8901A08700120DFF88C1A0870EE
:1012D0000020DFF8FC180870DFF88C2A00210220BB
:1012E00003F06FFE0120DFF8741A08700020DFF8A9
:1012F000701A08704BE1DFF8E0383722DFF84C0A4B
:101300000168DFF84C0A01F069FA00281DD00220BC
:10131000DFF8C01808700120DFF8381A08700120C3
:10132000DFF8341A08700020DFF8A4180870DFF81E
:101330003C2A0021022003F044FE0120DFF81C1AA1
:1013400008700020DFF8181A087020E1DFF88838EC
:101350004622DFF8F8090168DFF8F40901F03EFAE7
:1013600000280FD00220DFF86C1808700120DFF889
:10137000E41908700120DFF8E01908700020DFF898
:101380005018087003E1DFF850382E22DFF8BC094E
:101390000168DFF8BC0901F021FA00280FD0022013
:1013A000DFF8301808700120DFF8A8190870012054
:1013B000DFF8A41908700020DFF814180870E6E0C0
:1013C000E5E0DFF8C40A0078002800F0E080DFF8EC
:1013D0000C08007841280CD0432831D0452856D03D
:1013E00047287BD0492800F0A0806D2800F0B68007
:1013F000CDE000223C21DFF8E00705F07AFF00286D
:101400001DD00220DFF8CC1708700120DFF8441946
:1014100008700120DFF8401908700020DFF8B017CD
:101420000870DFF8DC270021022003F0CAFD01204C
:10143000DFF8281908700020DFF824190870A6E0EA
:1014400000224621DFF8900705F053FF00281DD049
:101450000220DFF8801708700120DFF8F818087004
:101460000120DFF8F41808700020DFF86417087016
:10147000DFF8F0280021022003F0A3FD0120DFF8AF
:10148000DC1808700020DFF8D81808707FE0002210
:101490004321DFF8440705F02CFF00281DD002206F
:1014A000DFF8301708700120DFF8A8180870012055
:1014B000DFF8A41808700020DFF814170870DFF8B0
:1014C000A8280021022003F07CFD0120DFF88C1801
:1014D00008700020DFF88818087058E000223721D3
:1014E000DFF8F40605F005FF00281DD00220DFF824
:1014F000E41608700120DFF85C1808700120DFF89E
:10150000581808700020DFF8C8160870DFF85C284B
:101510000021022003F055FD0120DFF8401808707B
:101520000020DFF83C18087031E000224621DFF887
:10153000A80605F0DEFE00280FD00220DFF8941682
:1015400008700120DFF80C1808700120DFF8081877
:1015500008700020DFF87816087018E000222E21AD
:10156000DFF8740605F0C5FE00280FD00220DFF872
:10157000641608700120DFF8DC1708700120DFF81E
:10158000D81708700020DFF848160870FFE7DFF86A
:10159000C8070078002800F06682DFF8F0080078BD
:1015A000002814D00020DFF8281608700020DFF88B
:1015B000241608700020DFF8D41808700020DFF827
:1015C000981708700020DFF8A81408704BE2DFF8C5
:1015D000000600786428C0F246820020DFF8F0158B
:1015E00008700020DFF8EC1508700020DFF868179D
:1015F0000870DFF89C080078401CDFF89418087029
:10160000DFF88C0800780528C0F22D820020DFF872
:10161000801808700020DFF85814087023E2DFF803
:10162000A00500781528C0F21E82DFF88C0500782E
:1016300000280FD1DFF85C08007800280AD1DFF815
:101640007C050078002805D1DFF84C0800780028D8
:1016500000F00982DFF86C050078022840F0038270
:10166000DFF864050078002840F0FD81DFF85C05B4
:101670000078002800F0F7810020DFF8441508709A
:10168000DFF84C050078401CDFF844150870DFF8DF
:1016900044050078002840F0AB800120DFF83415C5
:1016A0000870DFF83405FEF743FD03F0E1FFFF218A
:1016B00090FBF1F201FB12010800C0B20009DFF853
:1016C0001825507211F00F00DFF80C1588722A20CF
:1016D000DFF8041508735A20DFF8FC144873DFF8AC
:1016E000DC040078002804D1DFF8AC07007800287B
:1016F0003AD0DFF8A4070078002807D00020DFF8F0
:10170000981708700A20DFF8B41408703620DFF844
:10171000C814C8722522DFF8C004E4B2201810F102
:101720000E01DFF8980400782523584300F2DC709E
:1017300080B208F078F90221DFF8A80403F022FF54
:101740002320DFF8941481F839003921DFF8980458
:1017500005F01CFADFF8801481F83A00FF20DFF86A
:10176000781481F83B0043E0DFF84C04007800284F
:1017700004D1DFF820070078002839D0DFF81407FB
:101780000078002807D00020DFF8081708700A202A
:10179000DFF8241408704020DFF83C14C8722F22B0
:1017A000DFF83404E4B2201810F10E01DFF8080469
:1017B00000782F23584300F6D21080B208F033F996
:1017C0000221DFF82C0403F0DDFE2320DFF80814EB
:1017D00081F843004321DFF8100405F0D7F9DFF862
:1017E000F81381F84400FF20DFF8EC1381F845007E
:1017F000DFF8E0030078012840F0C080DFF8FC0348
:101800000078002862D0DFF8B403007800282DD0DB
:10181000DFF8C4333C22DFF834050168DFF8300517
:1018200000F0DCFF002800F0A9800220DFF8A413FC
:1018300008700120DFF81C1508700120DFF818156A
:1018400008700020DFF88813087001F0DAFFDFF875
:10185000602A0021022003F0B4FB0120DFF8FC1411
:1018600008700020DFF8F814087087E0D24800788C
:10187000002800F08380DFF860334622DFF8CC04D4
:101880000168DFF8CC0400F0A9FF002876D0022020
:10189000D04908700120DFF8BC1408700120DFF87F
:1018A000B81408700020CA49087001F0AAFFDFF8D8
:1018B000042A0021022003F084FB0120DFF89C149D
:1018C00008700020DFF89814087057E0DFF8B805BA
:1018D0000078002852D0B9480078002825D000228E
:1018E0003C21BD4805F005FD002847D00220B9493C
:1018F00008700120DFF85C1408700120DFF858142C
:1019000008700020B249087001F07BFFDFF8A029C1
:101910000021022003F055FB0120DFF8401408707D
:101920000020DFF83C14087028E0A3480078002865
:1019300024D000224621A84805F0DBFC00281DD059
:101940000220A44908700120DFF808140870012063
:10195000DFF80414087000209D49087001F051FF61
:10196000DFF850290021022003F02BFB0120DFF8D3
:10197000EC1308700020DFF8E8130870DFF8D803D4
:10198000007800286FD0DFF80405007800282DD0FB
:101990000020DFF8F814087000208D49087000203E
:1019A0008C4908700020DFF8B01308708348007875
:1019B00000280BD081480078401E80490870012221
:1019C0007E494FF4006008F03FF84CE07A48007818
:1019D000002848D078480078401E774908700122D6
:1019E00075494FF4206008F02FF83CE07848007803
:1019F000322838DB002076490870002075490870CD
:101A00000020DFF854130870DFF884040078401CCD
:101A1000DFF87C140870DFF878040078032822DBF4
:101A20000020DFF86C1408706448007800280BD0A0
:101A300062480078401E6149087001225F494FF4F6
:101A4000006008F001F80EE05B48007800280AD03A
:101A500059480078401E58490870012256494FF4F1
:101A6000206007F0F1FF10BD4C1A00201E1A002064
:101A7000D01900200021002103E000220270401C48
:101A8000491CC9B2FA29F8DB704702E00021017055
:101A9000401C01780029F9D1704780B5DFF8C809EA
:101AA0000078002810D10120DFF8BC190870DFF899
:101AB000BC09FFF7EAFF0020DFF8B4190870DFF86F
:101AC000B40907F0D3FF4CE0DFF8AC090078002838
:101AD00047D00020DFF8A01908700020DFF89C191B
:101AE00008700020DFF898190870DFF8980900786E
:101AF000002815D00020DFF88C1908700020DFF8CE
:101B0000881908700020DFF8781908700020DFF8C5
:101B1000781908700020DFF850190870012049E09A
:101B2000DFF86809007800281BD00020DFF85C1976
:101B300008700020DFF830190870DFF84C090078D1
:101B4000401CDFF844190870DFF83C0900780428CD
:101B500007DB0020DFF8301908700120DFF8501B88
:101B60000870DFF818090078401CDFF810190870B9
:101B7000DFF80809007804281BDB0020DFF8E818EC
:101B800008700020DFF8F4180870DFF8F408007817
:101B9000401CDFF8EC180870DFF8E408007804282F
:101BA00007DB0020DFF8D81808700120DFF8001BE1
:101BB0000870002002BD0000CD190020CB190020C4
:101BC000E51900203C1A0020661A0020F9190020AF
:101BD0004E1A00204D1A0020D0060020D1190020F6
:101BE0005807002003070020D10600200A07002024
:101BF0000D070020FE060020F5060020101A002028
:101C0000301D010880B50020DFF85C08007800284E
:101C100010D10120DFF850180870DFF85008FFF7E6
:101C200034FF0020DFF848180870DFF8880A07F052
:101C30001DFF61E0DFF84008007800285CD000203C
:101C4000DFF8341808700020DFF830180870002022
:101C5000DFF82C180870DFF82C08007800282AD04C
:101C60000020DFF8201808700020DFF81C1808702A
:101C70000020DFF80C18087000200EE0DFF8EC17E9
:101C8000DFF8EC271278C0B28218511811F8171C2F
:101C9000DFF8242AC0B28154401CC0B20F28EDDB0B
:101CA0003021DFF8142AC0B281540020DFF8B817C1
:101CB0000870012049E0DFF8D407007800281BD025
:101CC0000020DFF8C81708700020DFF89C170870A4
:101CD000DFF8B4070078401CDFF8AC170870DFF8B5
:101CE000A8070078042807DB0020DFF89C1708709D
:101CF0000120DFF8BC190870DFF880070078401C6D
:101D0000DFF878170870DFF87407007804281BDB09
:101D10000020DFF8541708700020DFF86017087003
:101D2000DFF85C070078401CDFF854170870DFF814
:101D300050070078042807DB0020DFF844170870FC
:101D40000120DFF86C190870002002BD4419002042
:101D50008C180020221A00203B1A0020C2190020F3
:101D6000E9190020441D0108581D01086C1D0108D7
:101D700010B50400DFF8F0060078002811D101202A
:101D8000DFF8E4160870DFF8E406FFF77EFE0020B7
:101D9000DFF8DC1608702100DFF83C0A07F066FE69
:101DA00048E0DFF8D4060078002843D00020DFF8B0
:101DB000CC1608700020DFF8C81608700020DFF885
:101DC000B8160870DFF8BC060078002811D0002093
:101DD000DFF8B01608700020DFF8AC16087000209D
:101DE000DFF89C1608700020DFF87C1608700120D0
:101DF00049E0DFF89806007800281BD00020DFF8C3
:101E00008C1608700020DFF860160870DFF878067E
:101E10000078401CDFF870160870DFF86C06007858
:101E2000042807DB0020DFF8601608700120DFF8C7
:101E300080180870DFF844060078401CDFF83C1674
:101E40000870DFF83806007804281BDB0020DFF874
:101E5000181608700020DFF824160870DFF8200636
:101E60000078401CDFF818160870DFF814060078B8
:101E7000042807DB0020DFF8081608700120DFF8CF
:101E800030180870002010BD111A0020301A0020F0
:101E9000491A0020CE190020CC19002080B5C0B20C
:101EA000012840F00E81DFF8F80A0078002810D1F0
:101EB0000120DFF8EC1A0870DFF8B005FFF7E5FD48
:101EC0000020DFF8AC150870DFF8D80A07F0CEFD67
:101ED000C0E0DFF8A4050078002849D0DFF8C80A80
:101EE0000078002844D10020DFF890150870002009
:101EF000DFF88C1508700020DFF87C150870DFF81B
:101F000084050078002810D00020DFF878150870CC
:101F10000020DFF8741508700020DFF864150870E1
:101F20000120DFF8841A087094E0DFF8600500787B
:101F3000002800F08F800020DFF850150870002086
:101F4000DFF85C1A0870DFF840050078401CDFF805
:101F500038150870DFF83005007804287ADB002097
:101F6000DFF8241508700120DFF84417087071E0CD
:101F7000DFF8380A0078002815D1DFF82C0A00783D
:101F8000002810D00120DFF8241A0870DFF8DC04E4
:101F9000FFF77BFD0020DFF8D8140870DFF8100A87
:101FA00007F064FD56E0DFF8D0040078002851D037
:101FB000DFF8000A007800284CD1DFF8EC0900783F
:101FC000002847D00020DFF8B41408700020DFF8A4
:101FD000B01408700020DFF8A01408700222DFF8A7
:101FE0008C04DFF88C1409780818011FAFA003F0E7
:101FF00027F900280DD10020DFF88C14087000208C
:10200000DFF87C1408700120DFF8A819087001209F
:102010004AE1DFF87804007800281BD00020DFF8C0
:102020006C140870DFF860040078401CDFF8581466
:102030000870DFF854040078042807DB0020DFF87C
:10204000481408700120DFF8681608700020DFF8D7
:102050005C190870DFF824040078401CDFF81C14B9
:102060000870DFF8180400780428C0F21C810020F2
:10207000DFF82C1908700020DFF8301908700020F4
:10208000DFF8241908700020DFF8281908700020F4
:10209000DFF8E8130870DFF8E8030078401CDFF889
:1020A000E0130870DFF8D80300780428C0F2FB8042
:1020B0000020DFF8CC1308700120DFF8F415087059
:1020C000F1E0C0B2002840F0EE80DFF8D4080078DC
:1020D000002810D10120DFF8C8180870DFF88C0341
:1020E000FFF7D3FC0020DFF888130870DFF8C8087A
:1020F00007F0BCFCABE0DFF880030078002848D094
:10210000DFF8A4080078002843D10020DFF86C1322
:1021100008700020DFF8681308700020DFF85813FB
:102120000870DFF860030078002810D00020DFF886
:10213000541308700020DFF8501308700020DFF8F7
:10214000401308700120DFF8601808707FE0DFF8A6
:102150003C03007800287AD00020DFF830130870A4
:102160000020DFF83C180870DFF81C030078401CE2
:10217000DFF814130870DFF810030078042866DB1A
:102180000020DFF8041308700120DFF82415087020
:102190005DE0DFF818080078002813D1DFF80808A0
:1021A000007800280ED00120DFF800180870AF4832
:1021B000FFF76BFC0020AE490870DFF8000807F05D
:1021C00055FC44E0AC480078002840D0DFF8E40734
:1021D000007800283BD1DFF8D0070078002836D0FF
:1021E0000020A64908700020A54908700020A249D7
:1021F0000870A448007800280ED00020A14908707B
:102200000020A149087000209D4908700120DFF8D6
:10221000A4170870012047E09C480078002816D0D9
:1022200000209A4908700020DFF88017087096484F
:102230000078401C9449087093480078042806DB15
:102240000020914908700120DFF8641408708B4861
:102250000078401C8949087088480078042822DBEF
:102260000020DFF83C1708700020DFF840170870E6
:102270000020DFF8341708700020DFF838170870E6
:1022800000207E4908707E480078401C7C49087018
:102290007B480078042806DB00207949087001207B
:1022A000DFF80C140870002002BD00004F4B000046
:1022B000801D0108941D010880B56B480078002836
:1022C0000DD10120684908706848FFF7DEFB002047
:1022D00067490870DFF8FC0907F0C8FB38E066487A
:1022E0000078002834D00020644908700020644938
:1022F00008700020604908706248007800280DD0FE
:1023000000206049087000205F49087000205C4987
:102310000870002054490870012038E05B480078BC
:10232000002815D000205949087000204E49087037
:1023300055480078401C54490870534800780428D8
:1023400006DB0020504908700120DFF86413087094
:102350004A480078401C49490870484800783328AA
:1023600014DB0020404908700020444908704448AC
:102370000078401C4249087041480078042805DB79
:1023800000203F4908700120C9490870002002BDA3
:1023900080B53548007800280DD1012032490870F9
:1023A0003248FFF772FB002031490870DFF8280936
:1023B00007F05CFB37E030480078002833D000207D
:1023C0002E49087000202E49087000202A49087004
:1023D0002C48007800280DD000202A4908700020E1
:1023E0002949087000202649087000201E490870FD
:1023F000012037E025480078002814D00020234928
:1024000008700020184908701F480078401C1E49B9
:1024100008701D480078042805DB00201A49087060
:102420000120A349087015480078401C1349087022
:1024300012480078042814DB00200B4908700020A3
:102440000E4908700E480078401C0D4908700C4871
:102450000078042805DB0020094908700120944910
:102460000870002002BD0000251A0020481200203C
:10247000BA190020502101085E1A00201C1A002001
:10248000201A0020601A00201F1A00205F1A002066
:1024900080B5DFF8440A0078002810D10120DFF869
:1024A000381A0870DFF8340AFFF7EFFA0020DFF877
:1024B000301A0870DFF82C0A07F0D8FA47E0DFF886
:1024C000280A0078002842D00020DFF8201A08707F
:1024D0000020DFF81C1A08700020DFF80C1A0870C2
:1024E000DFF8100A0078002811D00020DFF8041A65
:1024F00008700020DFF8001A08700020DFF8F019DB
:1025000008700020DFF8D0190870012047E0DFF8DC
:10251000EC09007800281AD00020DFF8E0190870D4
:102520000020DFF8B4190870DFF8CC090078401CEF
:10253000DFF8C4190870DFF8C0090078042806DB4A
:102540000020DFF8B4190870012059490870DFF83D
:102550009C090078401CDFF894190870DFF88C099A
:10256000007804281ADB0020DFF86C1908700020BE
:10257000DFF878190870DFF878090078401CDFF878
:1025800070190870DFF868090078042806DB00205D
:10259000DFF85C190870012045490870002002BD71
:1025A00080B5DFF834090078002810D10120DFF869
:1025B00028190870DFF82409FFF767FA0020DFF810
:1025C00020190870DFF8380907F050FA47E0DFF803
:1025D00018090078002842D00020DFF81019087090
:1025E0000020DFF80C1908700020DFF8FC180870D4
:1025F000DFF810090078012811D10020DFF8F81861
:1026000008700020DFF8E81808700020DFF8F418E0
:1026100008700020DFF8C0180870012047E0DFF8DC
:10262000DC08007800281AD00020DFF8D0180870E5
:102630000020DFF8A4180870DFF8BC080078401C00
:10264000DFF8B4180870DFF8B0080078042806DB5B
:102650000020DFF8A4180870012015490870DFF881
:102660008C080078401CDFF884180870DFF87C08BC
:10267000007804281ADB0020DFF85C1808700020BE
:10268000DFF868180870DFF868080078401CDFF889
:1026900060180870DFF858080078042806DB00206E
:1026A000DFF84C180870012001490870002002BDB5
:1026B0001E1A0020682001086014002010B50024B4
:1026C0000400DFF814080078002811D10120DFF899
:1026D00008180870DFF80408FFF7D7F90020DFF8C2
:1026E000001808702100DFF82C0A07F0BFF948E055
:1026F000DFF8F4070078002843D00020DFF8EC175B
:1027000008700020DFF8E81708700020DFF8D817FD
:102710000870DFF8E0070078002811D00020DFF80B
:10272000D41708700020DFF8D01708700020DFF8F9
:10273000C01708700020DFF8A0170870012049E0DA
:10274000DFF8B807007800281BD00020DFF8AC17AE
:1027500008700020DFF880170870DFF89C07007809
:10276000401CDFF894170870DFF88C070078042805
:1027700007DB0020DFF8801708700120DFF89819C8
:102780000870DFF868070078401CDFF860170870F1
:10279000DFF85807007804281BDB0020DFF8381723
:1027A00008700020DFF844170870DFF8440700784D
:1027B000401CDFF83C170870DFF834070078042865
:1027C00007DB0020DFF8281708700120DFF8481920
:1027D0000870002010BD0000341F01082DE9F047EB
:1027E000E6B006000F0014001D00DFF83009007885
:1027F000002840F0868001A8102102F001FD5FF062
:1028000000095FF0000A5FF0000825A84FF480710E
:1028100002F0F6FC05A8802102F0F2FC0020002165
:102820000120DFF8F818087006E0307801A908F8F0
:10283000010018F10108761C30780028F5D1B9465E
:10284000A2465FF0000806E018F8050005A908F8A0
:10285000010018F10108D045F6DB5FF000080AE03E
:10286000C9B20A2905DA11F1300025A911EB480196
:10287000487018F10108D04522DA05A818F80000C0
:10288000C0B2000905A918F8011011F00F01C0B27B
:102890000A2804DB573025AA02F8180006E0C0B267
:1028A0000A2803DA303025AA02F81800C9B20A292A
:1028B000D6DB11F1570025A911EB48014870D8E784
:1028C000DFF81806FFF7E1F80020DFF814160870AB
:1028D0000120DFF84C1808700120DFF84818087054
:1028E00025A8009053464A4601A9DFF83C0807F0A6
:1028F000BDF80020DFF8341808700020DFF8301829
:102900000870DFF82008007802281DD10020DFF8C9
:102910001C1808700020DFF8D81508700020DFF8B8
:10292000041808700020DFF8CC1508700020DFF8CC
:10293000C81508700020DFF8E41708700020DFF8E1
:10294000E0170870012028E0DFF8E0070078401C5D
:10295000DFF8D8170870DFF8D40700780B281BDBE6
:102960000020DFF8B81708700020DFF8C0170870E3
:10297000DFF87C050078401CDFF874150870DFF87C
:1029800070050078042807DB0020DFF86415087064
:102990000120DFF8AC1A0870002066B0BDE8F087AF
:1029A000261A0020C4060108271A0020281A002031
:1029B000F4180108291A0020A018010818190108A4
:1029C000020004E003782C2B00D1491E401CC9B240
:1029D0000029F7D1801AC0B2704700B5A1B000211C
:1029E0006846802102F00CFC00200022002000201C
:1029F000DFF8400700780B28C0F269810020DFF87B
:102A000034170870DFF83C0A0078002829D1DFF875
:102A1000380A0078002824D10120DFF8281A08702D
:102A2000DFF8B804FFF726F80020DFF8B4140870C8
:102A3000DFF8180A0078002804D0DFF8140A07F03D
:102A400015F806E0DFF80C0A0178DFF80C0A07F049
:102A50000DF80120DFF8041A08700120DFF8E819EA
:102A60000870DFF884040078002800F0008100205E
:102A7000DFF8781408700020DFF874140870002064
:102A8000DFF8DC1908700020DFF85C140870DFF84C
:102A9000CC090078022840F0CC800020DFF8A8198B
:102AA0000870DFF8A809007800280FD1DFF8B40912
:102AB0000078401EDFF8AC190870DFF8A80900782C
:102AC000FE2803DB0020DFF89C1908700020DFF8E7
:102AD0008C1908700421DFF80404FFF771FF00214E
:102AE000DFF8082411700021DFF80824117000219C
:102AF000DFF8502911700021DFF8FC23117000214C
:102B0000DFF8EC231170002107E0DFF8D023C0B21A
:102B10000B189A5C6B46CA54491CDFF838291278A6
:102B2000B1EB420FF1DB00210CE06A4612EB4102EF
:102B30005278303AC0B2D2B212EB0010DFF8282936
:102B40008854491CDFF80C090078814219DA68467C
:102B500010F811003A2804DB684610F811003738E5
:102B600003E0684610F8110030386A4612EB410263
:102B700052783A2AD9DB6A4612EB41025278373A48
:102B8000D8E70521DFF85403FFF71AFFDFF84C13ED
:102B9000C0B2415C302909D1DFF8C80800780028AC
:102BA00035D10020DFF8AC18087030E0CB49C0B256
:102BB000415C30390A2921D20021DFF888281170C0
:102BC000C649C0B24118497830390A290ED2C349E2
:102BD000C0B2415C0A22C14BC0B2C018407802FBAF
:102BE00001001038DFF86C18087010E0BB49C0B263
:102BF000405C3038DFF85C18087008E0B749C0B2B4
:102C0000405C002803D10020DFF848180870DFF886
:102C10003C080078002803D00020DFF83018087046
:102C20000120DFF8481808700020DFF84418087009
:102C30001DE0B2480078002819D00020AF49087084
:102C40000020DFF8001808700020A8490870AA4882
:102C50000078401CA8490870A7480078042806DBC3
:102C60000020A54908700120DFF8AC1408709F48C7
:102C70000078401C9D4908709C480078512826DB4C
:102C80000020DFF8C0170870002098490870002065
:102C9000DFF8B417087096480078401C9449087013
:102CA00093480078022812DB002091490870012027
:102CB000DFF8641408700120DFF8B01708700020F6
:102CC000DFF8AC1708700020DFF88817087021B013
:102CD00000BD0000742001086819010810B5DFF874
:102CE0009407007800282ED1DFF85C0700780028D0
:102CF00029D1DFF82C040078002824D1DFF86407FC
:102D0000007800281FD1DFF87007007800281AD15A
:102D10000120DFF860170870DFF8600700880A21DB
:102D200090FBF1F0DFF8581788716C48FEF7ADFEA4
:102D300000206B490870DFF84C0706F097FE012071
:102D4000DFF8441708706848007800287CD0DFF866
:102D500038070078002877D00020634908700020E9
:102D600062490870002062490870624800780028B3
:102D700051D00020DFF81017087000205D4908705E
:102D800000205D4908700020594908700120DFF8D3
:102D9000FC160870DFF8E806FDF7CAF94F485049FD
:102DA0000978081810F80D0C30380A2817D24B484B
:102DB0004B490978081810F80D0C02F0C9FC040002
:102DC000E4B2464846490978081810F80C0C02F09D
:102DD000BFFC10EB0410DFF8A81648720AE03F4869
:102DE0003F490978081810F80C0C02F0B1FCDFF824
:102DF00090164872CC20DFF8881688720A21DFF816
:102E0000900603F0C3FEDFF87816C872FF20DFF8E3
:102E10007016087318E039480078002814D0002094
:102E20003649087000202C49087033480078401C4F
:102E30003149087030480078042805DB00202E490D
:102E400008700120B4490870DFF8400600780028B7
:102E500018D0DFF82C360D22DFF838060168DFF8CD
:102E60003806FFF7BBFC002834D00020DFF804163A
:102E700008700020DFF8141608700020DFF81C1618
:102E8000087027E019480078401C18490870174856
:102E9000007806281EDBDFF8F0050078002819D03E
:102EA0000020DFF8D0150870002010490870104885
:102EB0000078401C0E4908700D480078042809DB92
:102EC00000200B4908700120934908700020DFF8AA
:102ED000CC15087010BD0000251A002048120020F3
:102EE000BA190020441F01085E1A00201C1A002095
:102EF000201A0020601A00201F1A00205F1A0020EC
:102F0000802001082A1A002080B500210020DFF867
:102F100090050078012840F0A880DFF88805007847
:102F2000022840F0A280DFF8800500781528C0F262
:102F30009C800020DFF870150870DFF870050078BD
:102F400000284ED10120DFF864150870DFF8600515
:102F5000FDF7EEF802F08CFBFF2190FBF1F201FB94
:102F600012010800C0B20009DFF84425507211F0C8
:102F70000F00DFF83C158872002009E0DFF83415F7
:102F8000C0B2415CDFF82825C0B282181173401C22
:102F9000C0B20428F2DB00F09EFFDFF814150874BD
:102FA0001021DFF8140503F0F1FDDFF80415487473
:102FB000FF20DFF8FC1488740120DFF8001508708A
:102FC00000F01FFCDFF8F8240021022001F0F9FFD7
:102FD0000120DFF8F01408700020DFF8EC1408700E
:102FE00043E0DFF8D804007800283ED0DFF8DC04A6
:102FF000007800281CD0DFF8B8341322DFF89404DE
:103000000168DFF89404FFF7E9FB00282DD00020C9
:10301000DFF88C1408700120DFF8B4140870002069
:10302000DFF8881408700020DFF8901408701CE0A6
:10303000DFF8A0040078002817D000221321DFF861
:10304000700404F056F900280FD00020DFF8501467
:1030500008700120DFF8781408700020DFF84C14A5
:1030600008700020DFF854140870DFF86C04007852
:103070000A284DDBDFF858040078012848D10020E9
:10308000DFF854140870DFF854040078401CDFF8AF
:103090004C140870DFF84804007800280BD000209A
:1030A000DFF83C1408700020DFF8301408700020AE
:1030B000DFF81C140870DFF824040078052827DBEB
:1030C0000020DFF8181408700020DFF804140870DE
:1030D0000120DFF8CC130870DFF808040078401CEA
:1030E000DFF800140870DFF8FC03007804280FDB19
:1030F0000020DFF8F01308700020DFF8E4130870F8
:103100000020DFF8D81308700020DFF8C41308701F
:1031100001BD0000881901081E1A00202B1A00208A
:10312000171A00202C1A0020A41901081D1A0020CB
:10313000EE190020E319002080B50021DFF8A80374
:103140000078002800F04481DFF858030078022856
:1031500040F03E81DFF8940300782928C0F23881DE
:103160000020DFF888130870DFF884030078002857
:1031700040F0DF800120DFF878130870DFF8740377
:10318000FCF7D6FF02F074FAFF2190FBF1F201FB8D
:1031900012010800C0B20009DFF85823507211F084
:1031A0000F00DFF8501388722A20DFF848130873E5
:1031B0000120DFF8401348730B20DFF838138873C1
:1031C00006F0D9FCDFF8301306F0F8FC04D83720FD
:1031D000DFF82013C87369E006F0CDFCDFF81C139C
:1031E00006F0ECFC09D806F0C6FCC34906F0F8FC72
:1031F00003D23620BF49C87358E006F0BCFCC04972
:1032000006F0DCFC09D806F0B6FCBC4906F0E8FC88
:1032100003D23520B749C87348E006F0ACFCB94981
:1032200006F0CCFC09D806F0A6FCB54906F0D8FC9F
:1032300003D23420AF49C87338E006F09CFCB24991
:1032400006F0BCFC09D806F096FCAE4906F0C8FCB6
:1032500003D23320A749C87328E006F08CFCAB49A1
:1032600006F0ACFC09D806F086FCA74906F0B8FCCD
:1032700003D232209F49C87318E006F07CFCA449B1
:1032800006F09CFC09D806F076FCA04906F0A8FCE4
:1032900003D231209749C87308E006F06CFC9C49C2
:1032A00006F09EFC02D230209249C873012299494F
:1032B000D02006F0B8FB01229749E02006F0B3FBCE
:1032C00094480078002803D120208A4908741CE023
:1032D00090480078012806D15020864908740220C1
:1032E0008449487411E08B480078022806D1602098
:1032F0008049087400207F49487406E085480078BA
:10330000032802D190207B4908740221834802F0EF
:1033100039F92320774908761821814803F036FCD3
:1033200074494876FF207349887601207D490870EA
:103330004EE07C48007800284AD064480078002895
:1033400022D06C4B1B22534801685348FFF746FAC2
:1033500000283DD00020644908700120724908709F
:1033600000206349087000206E49087000F049FA97
:103370006E4A0021022001F024FE0120514908700C
:1033800000205149087023E05248007800281FD0DF
:1033900000221B21574803F0ACFF002818D0002062
:1033A0005149087001206049087000205049087098
:1033B00000205C49087000F024FA5C4A00210220D9
:1033C00001F0FFFD01203F49087000203E490870D0
:1033D00046480078142831DB5348007801282DD165
:1033E0000020424908703D480078401C3B49087065
:1033F0003B480078002808D0002039490870002098
:10340000364908700020484908703448007806287A
:1034100014DB002031490870002043490870012066
:10342000314908702F480078401C2E4908702D48FB
:103430000078042802DB00202A49087001BD000042
:103440001E1A00202D1A0020181A0020451A0020EC
:10345000541F0108231A0020641F01082E1A00209F
:10346000191A00201A1A0020E01400203F1A002028
:10347000211A00204F1A00204C1A00209819002011
:10348000DC0800208C2001082F1A0020501A002090
:10349000DD080020441900208C180020F0190020BD
:1034A000131A00203C1A0020DC190020511A0020B9
:1034B000340800207C19002035080020521A002012
:1034C000A81D0108C2190020E9190020101A0020C7
:1034D000531A0020111A0020D9190020401A002088
:1034E000301A0020411A0020141A0020DD19002093
:1034F000541A002054080020676686403433834005
:10350000010080409A997940343373400100704043
:1035100001006040C5190020C8190020660800207D
:1035200055080020551A0020561A0020BC1D01081D
:10353000FF2212EAD05C1DBF12EAD1539445934298
:103540002BE09C44D30780EA01021A4043EA0020A2
:1035500043EA0121A1FB0030410038BF40007CF16B
:103560007F010BDBFE294ADA5B0842EAC15153EACC
:10357000006373F1004C51EB10207047D1F1080C3F
:10358000DCF120012FDB5B0810FA01F10B4373F132
:10359000004120FA0CF05041704794451CBF02EAEC
:1035A000D153934280EA010202F000421DD0400054
:1035B00019D0490017D05BB9634514D00902B1FA9C
:1035C00081F39940BCEB030CC00140F00040C1E71F
:1035D0000002B0FA80FC10FA0CF0B3EB0C0CC9013D
:1035E00041F00041B6E71000704740000AD04900A2
:1035F00008D010F1807F94BF11F1807F02E042F08B
:10360000FF407047D04370474100090E7F3915D401
:10361000D1F11F0114D4400007D2C00140F0004096
:10362000C84048BF6FF000407047C00140F0004004
:10363000C8404CBF4FF000404042704700207047E8
:1036400000424FF0004058BFC043704738B50020DB
:10365000DFF8240A0078C00710D53222DFF81C1AE0
:10366000DFF86C4D200006F0CDFADFF80C0A007888
:1036700010F0FE00DFF8001A087014E0DFF8F80917
:10368000007880070FD53222DFF8A01BDFF8404D0D
:10369000200006F0B7FADFF8E009007810F0FD002E
:1036A000DFF8D4190870DFF8280D00787B2840F087
:1036B000A780DFF81C0D40785B2840F0A180DFF880
:1036C000100D807A63281AD065281BD067281CD07B
:1036D00069281DD06B281ED06D281FD0712820D0DE
:1036E000732821D0752822D0772823D07D2827D091
:1036F000892822D0A92826D0AB2827D028E000F09E
:103700008EF825E000F0C8F822E000F0F2F81FE0A3
:1037100000F013F91CE000F036F919E000F056F95A
:1037200016E000F079F913E000F09AF910E000F0EB
:10373000BEF90DE000F0BDFA0AE000F0ECF907E098
:1037400000F00CFA04E000F024FA01E000F081FA45
:103750000120DFF8CC1B08700020DFF8C81B0870C0
:103760007B20DFF8C41B08705B20DFF8BC1B4870AF
:103770000822DFF8601CDFF8B44B200006F042FAA4
:10378000DFF8A40BC07A10F10C01DFF89C0B03F0FA
:10379000E5F9DFF8941B0862DFF88C0B026ADFF8AA
:1037A000880B006A030ADFF8801B002005E00C7814
:1037B000DFF87C5B4455491C401CDFF86C4BE47A15
:1037C0000C34A042F3DBDFF8681B4354401CDFF8E5
:1037D000601B4254DFF8500BC07A10F10E01C9B2E1
:1037E000DFF84C0B06F058FA0020DFF8E41B0870F5
:1037F0000020DFF8DC1B48700020DFF8D41B887243
:1038000031BD80B5DFF8042E0021022001F0D9FB84
:10381000DFF8F82D0021032001F0D3FB01BD00B536
:1038200083B0DFF8AC0B007BDFF8AC1B0860DFF87F
:10383000A80B00688DF80000DFF89C0B0068000200
:10384000DFF8941B0860DFF8900B0068DFF8801B3E
:10385000497B0843DFF8801B0860DFF8740B407B6E
:103860008DF8010002226946902006F0EDF86420F0
:10387000DFF8B41A88720120DFF8AC1AC872012090
:10388000DFF8A41A0873FFF7BCFFDFF8842D0021CE
:10389000022001F096FB07BD80B50221902006F0C2
:1038A000ABF8DFF8341B08606620DFF87C1A8872FA
:1038B0000220DFF8741AC872DFF81C0B0068DFF80A
:1038C000681A0873DFF8100B0068000ADFF8581A4E
:1038D0004873FFF796FFDFF8042B0021022001F068
:1038E00070FB0223DFF87C2C0021032001F07BFB1E
:1038F00001BD10B50A22DFF8E81ADFF8E84A200017
:1039000006F080F90A22DFF8DC1A702006F09CF835
:103910006820DFF8141A88720120DFF80C1AC872C8
:103920000120DFF8041A0873FFF76BFFDFF8A02D02
:103930000021022001F045FB10BD10B50A22DFF87E
:10394000A41A702006F06FF86A20DFF8DC1988727C
:103950000A20DFF8D419C8720A22DFF8881ADFF8C3
:10396000044C200006F04EF9FFF74BFFDFF8F82B70
:103970000021022001F025FBDFF8682A0021032046
:1039800001F01FFB10BD80B5DFF8440A007BDFF8B3
:10399000DC1B08700122DFF8D40B01789A2006F0B6
:1039A00015F86C20DFF8801988720120DFF878198B
:1039B000C8720120DFF870190873FFF722FFDFF8E3
:1039C000142D0021022001F0FCFA01BD80B5012177
:1039D0009A2006F011F8DFF8941B0870DFF88C0BC2
:1039E0000078DFF8441908736E20DFF83C198872FC
:1039F0000120DFF83419C872FFF703FFDFF8142C39
:103A00000021022001F0DDFA0123DFF8602B002104
:103A1000032001F0E8FA01BD10B50822DFF8C01953
:103A2000DFF8B049200006F0EDF80822DFF8A4190D
:103A3000202006F009F87220DFF8EC1888720120C7
:103A4000DFF8E418C8720120DFF8DC180873FFF70C
:103A5000D8FEDFF8D42D0021022001F0B2FA10BD0B
:103A600010B50822DFF86C19202005F0DCFF742067
:103A7000DFF8B41888720820DFF8AC18C872082282
:103A8000DFF85019DFF8DC4A200006F0BBF8FFF73A
:103A9000B8FEDFF8842B0021022001F092FA042303
:103AA000DFF8882D0021032001F09DFA10BD80B5BC
:103AB000DFF81C09007BDFF8201C0880DFF8180CF9
:103AC00000880002DFF8101C0880DFF80C0C00886A
:103AD000DFF8FC18497B0843DFF8FC1B0880022252
:103AE000DFF8F40B0188802005F070FF7620DFF806
:103AF000381888720120DFF83018C8720120DFF80A
:103B000028180873FFF77DFEDFF8242D002102201E
:103B100001F057FA01BD80B5DFF8B408007BDFF88B
:103B2000BC1B08700122DFF8B40B0178F52005F00A
:103B30004DFF8A20DFF8F01788720120DFF8E817C0
:103B4000C8720120DFF8E0170873FFF75AFEDFF8AC
:103B5000E42C0021022001F034FA01BD80B50121DE
:103B6000DFF87C0B01F00EFD7E20DFF8BC178872B9
:103B70000120DFF8B417C8720120DFF8AC17087312
:103B8000FFF73FFEDFF8E82D0021022001F019FACF
:103B900001BD80B50322DFF84818B92005F054FFB5
:103BA000AA20DFF8841788720120DFF87C17C8721A
:103BB0000120DFF874170873FFF723FEDFF8B42D38
:103BC0000021022001F0FDF901BD10B400220278AD
:103BD00043781B0213EB024280788218DFF8FC0D59
:103BE000B2FBF0F03030087042F21070B2FBF0F02F
:103BF0000A23B0FBF3F403FB1400303048704FF499
:103C00007A70B2FBF0F00A23B0FBF3F403FB14006C
:103C1000303088702E20C8706420B2FBF0F00A2388
:103C2000B0FBF3F403FB1400303008710A20B2FB40
:103C3000F0F00A23B0FBF3F403FB140030304871BA
:103C40000A20B2FBF0F300FB13203030887110BC67
:103C5000704710B584B068460021016001A80021BA
:103C6000002206C0083803226946B92005F0DBFEB1
:103C7000AC20DFF8B41688720320DFF8AC16C872E7
:103C800003226946DFF8DC48200005F0BBFF01A9EC
:103C90006846FFF79AFFFFF7B4FDDFF8A42D002177
:103CA000022001F08EF901AA0021032001F089F918
:103CB0001FBD80B50221802005F09EFEDFF8181A96
:103CC00008807820DFF8601688720220DFF8581626
:103CD000C872DFF8040A0088DFF84C164873DFF872
:103CE000F809008880B2000ADFF83C160873FFF775
:103CF00088FDDFF8E8260021022001F062F90223A6
:103D0000DFF860280021032001F06DF901BD70B5D6
:103D1000002412E0DFF8201BE4B2C0B20219515CAB
:103D200029706D1C401CC0B2DFF80C1BE4B2611896
:103D3000C97A0C318842EDDB641CE4B2DFF8A00DD7
:103D40000088844246DADFF8F00AE4B2205C7B287F
:103D5000F2D1DFF8E40ADFF8E01AE4B26118C97AB8
:103D6000E4B261180818067BDFF8CC0ADFF8C81A3D
:103D7000E4B26118C97AE4B261180818407B10EB0C
:103D80000626DFF8B40AE4B22018C07A10F10C015C
:103D9000DFF8A40AE4B2201802F0E0FE8642CBD19C
:103DA000B5480078C00707D4B44DB348007850F048
:103DB0000100B14908700BE0AF480078800707D4D4
:103DC000DFF86854AC48007850F00200AA49087047
:103DD0000020A8E70020DFF8A01B08700020DFF813
:103DE000001D088070BD80B5694600220A604FF44E
:103DF0008071B0FBF1F202FB11028DF80020010A84
:103E00004FF48072B1FBF2F303FB12138DF8013013
:103E1000010C4FF48072B1FBF2F303FB12138DF827
:103E20000230000E8DF8030004226946D52005F00B
:103E30000BFE01BD10B582B0040068460021016090
:103E400004226946D52005F0EEFD9DF800009DF89E
:103E500001104FF4807202FB01009DF802105FF424
:103E6000803202FB01009DF803105FF0807202FBBC
:103E70000100206013BD70B505000C00687810F0DB
:103E80000C00082814D1687810F0F30050F080007E
:103E900060700822DFF83C15A61C300005F0B2FE69
:103EA0000822A91C0A34200005F0ACFE012007E01E
:103EB000687810F00C00042801D1002000E00220F6
:103EC00070BD80B5082201F0BBF9002801D10120A6
:103ED00000E0002002BD80B5002005F04CFEDFF8B8
:103EE000641B05F07DFE01D2612024E0DFF8541B45
:103EF00005F064FE06D8DFF8501B05F071FE01D214
:103F0000622018E0DFF8401B05F058FE06D8DFF805
:103F10003C1B05F065FE01D263200CE0DFF82C1B92
:103F200005F04CFE06D8DFF8481C05F059FE01D21A
:103F3000642000E0642002BD30B583B004000D00B1
:103F4000002068460021002206C0083800202870A2
:103F50000122DFF8FC1AD02005F065FD0122DFF810
:103F6000F41AE02005F05FFD0122DFF8EC1AE120F1
:103F700005F059FD05F0FFFDDFF8E01A05F030FE11
:103F800027D2287850F0040028700120DFF8C41AE6
:103F90000870DFF8C40A0078401CDFF8BC1A08700B
:103FA000A07F8DF8000002210DF1010001F0EAFA76
:103FB0000122DFF8A01AE02005F046FD0122DFF81B
:103FC000981AE12005F040FD07226946E22005F03D
:103FD0003BFDDFF87C0A0078012803D1287850F0F7
:103FE00008002870FFF777FF68702878002802D152
:103FF0000120A87001E0FF20A870A07FE8700221D6
:10400000281D01F0BFFAE878A872002006E0A97A1E
:10401000C0B2421912795140A972401CC0B20628A0
:10402000F5DBDFF80C0DFFF705FFDFF8040D006886
:104030004FF48071B0FBF1F202FB1102EA72DFF87B
:10404000F00C0068000A4FF48071B0FBF1F202FB43
:1040500011022A73DFF8D80C0068000C4FF480714D
:10406000B0FBF1F202FB11026A73DFF8C40C0068C6
:10407000000EA87337BD0000BF190020881600206D
:1040800038B504000D000020002028700122DFF860
:10409000C019D02005F0C7FC0122DFF8B819E020D4
:1040A00005F0C1FC0122DFF8B019E12005F0BBFCEE
:1040B0000A2214F11401CB4801F0C2F8002803D001
:1040C000287850F00200287005F055FDDFF88C19B3
:1040D00005F086FD29D2287850F0040028700120D0
:1040E000DFF870190870DFF870090078401CDFF8FD
:1040F00068190870A07FDFF87C1A08700221DFF8C9
:10410000780A01F03FFA0122DFF84819E02005F0B3
:104110009BFC0122DFF84019E12005F095FC072205
:10412000DFF8501AE22005F08FFCDFF82409007850
:10413000022804D1287850F00800287008E0DFF841
:1041400010090078012803D0287850F0100028705A
:10415000DFF800090078012803D1287850F020000A
:104160002870FFF7B8FE68702878002802D1012077
:10417000A87001E0FF20A870A07FE8700221281D30
:1041800001F000FAE878A872002006E0A97AC0B22F
:10419000421912795140A972401CC0B20628F5DBC1
:1041A000DFF8B4080078E872DFF8A8080078287310
:1041B000072215F10D01E22005F035FC687B28751A
:1041C000002006E0297DC0B24219927B514029753A
:1041D000401CC0B20628F5DBDFF8540BFFF72AFEBF
:1041E000DFF84C0B00684FF48071B0FBF1F202FB7A
:1041F00011026A75DFF8380B0068000A4FF480710D
:10420000B0FBF1F202FB1102AA75DFF8240B006883
:10421000000C4FF48071B0FBF1F202FB1102EA7561
:10422000DFF80C0B0068000E287631BDBC160020AC
:1042300038B504000D000020002028700122DFF8AE
:104240001018D02005F0EFFB0122DFF8E81AE0207B
:1042500005F0E9FB0122DFF80018E12005F0E3FB9F
:104260000A2214F114015F4800F0EAFF002801D08F
:1042700005202870DFF8D8070078022809D1DFF878
:10428000B40A0078012802D10320287001E004203C
:104290002870DFF8BC070078012809D1DFF8940AFC
:1042A0000078012802D10220287001E00120287046
:1042B000FFF711FE68700120A870A07FE87002214E
:1042C000281D01F05FF9E878A872002006E0A97ABD
:1042D000C0B2421912795140A972401CC0B20628DE
:1042E000F5DBDFF874070078E872DFF8480A007839
:1042F0002873072215F10D01E22005F094FB687B7D
:104300002875002006E0297DC0B24219927B5140F9
:104310002975401CC0B20628F5DB0020687531BD48
:10432000C2190020E9190020FC170020FE17002008
:10433000F016002038B504000D0000200020287081
:104340000122DFF8F019E02005F06DFB0122DFF813
:104350000817E12005F067FB0A2214F11401214837
:1043600000F06EFF002802D00220287018E0DFF86D
:10437000C409007801280CD10020DFF8B8190870B2
:104380000122DFF8B019E02005F05EFB0120287063
:1043900006E0DFF8A0090078002801D1032028708A
:1043A000FFF799FD6870A07FA8700221E81C01F05A
:1043B000E9F8A8786872002006E0697AC0B242196C
:1043C000D27851406972401CC0B20628F5DB31BD7D
:1043D000D8170020E018002040190020B41F010861
:1043E000E4170020CC18002038B504000D00002090
:1043F000002028700122DFF85C16E02005F013FB96
:104400000122DFF85416E12005F00DFB0A2214F119
:104410001401DFF8240900F013FF002803D02878E6
:1044200050F00200287005F0A6FBDFF8301605F00A
:10443000D7FB29D2287850F0040028700120DFF83B
:1044400014160870DFF810060078401CDFF8081614
:104450000870A07FDFF81C1708700221DFF818072A
:1044600001F090F80122DFF8EC15E02005F0ECFAFD
:104470000122DFF8E415E12005F0E6FA0722DFF873
:10448000F416E22005F0E0FADFF8C805007801280C
:1044900003D1287850F020002870FFF71CFD6870C9
:1044A0002878002802D10120A87001E0FF20A87020
:1044B000A07FE8700221281D01F064F8E878A87256
:1044C000002006E0A97AC0B2421912795140A972BF
:1044D000401CC0B20628F5DBDFF87C050078E872E6
:1044E000DFF8700500782873072215F10D01E2202E
:1044F00005F099FA687B2875002006E0297DC0B296
:104500004219927B51402975401CC0B20628F5DB48
:10451000DFF81C08FFF78EFCDFF8140800684FF482
:104520008071B0FBF1F202FB11026A75DFF800083E
:104530000068000A4FF48071B0FBF1F202FB110237
:10454000AA75DFF8EC070068000C4FF48071B0FB2F
:10455000F1F202FB1102EA75DFF8D4070068000EE1
:10456000287631BD08180020C8200108C419002091
:1045700038B504000D00002000202870FFF7ABFCC8
:1045800028700A2214F11401DFF8AC0700F058FE7D
:10459000002804D1DFF8A4070078002802D1FF200A
:1045A000687001E0012068706878012805D1A07F5B
:1045B000A8700221E81C00F0E5FFA87868720020CE
:1045C00006E0697AC0B24219D27851406972401C43
:1045D000C0B20628F5DB31BD10B50C00017D012904
:1045E00004D10120DFF85817087006E0007D02288A
:1045F00003D10220DFF8481708700122DFF84017C6
:104600009A2005F021FA0120207010BD101A01082F
:10461000241A0108C01F0108CC1F010880B5002022
:10462000DFF820170870DFF820270021022000F0B3
:10463000C8FC0120DFF8141708700020DFF81017FD
:1046400008700122DFF80C174FF4806005F0EBF9D9
:10465000DFF804070078002839D1DFF8F806007881
:10466000062834DA1C22DFF8F416DFF8E8060078B2
:104670001E23584300F2014080B205F0E5F9022202
:10468000DFF8DC16DFF8CC0600781E23584300F272
:104690001E4080B205F0D8F9DFF8B8060078401C5B
:1046A000DFF8B0160870DFF8AC060078062807DBE4
:1046B0000120DFF8B01608700020DFF898160870A7
:1046C0000122DFF890164FF4806005F0BDF901BDBE
:1046D000E41D0108381A010894190020CF190020A0
:1046E000E517002010B54120DFF87C1608700A227B
:1046F000DFF87816DFF84046200005F083FA0A223A
:10470000DFF83416702005F09FF9DFF86416DFF843
:104710004C06FFF7B0FB012840F085804220DFF80F
:10472000501688740F20DFF84816C874DFF8441656
:10473000DFF82806FFF700FCC648007801282CD0D7
:10474000C3480078022803D0C1480078002815D15A
:10475000DFF824260021022000F033FC002005F0C1
:10476000E3FDDFF8CC050068401CDFF8C4150860E5
:10477000DFF8BC050068FFF736FB05E0DFF8FC2535
:104780000021022000F01DFC0120B1490870012227
:10479000AF49D02005F058F909E0AE48007801286B
:1047A00005D1DFF8DC250021022000F00AFC012001
:1047B000DFF8981508700020DFF894150870DFF80E
:1047C000C405007802282ED00122DFF8BC154FF472
:1047D000006005F028F92522DFF89415DFF8A80518
:1047E00000782523584300F6010080B205F02CF92B
:1047F000DFF894050078401CDFF88C150870012262
:10480000DFF884154FF4006005F01EF9DFF8780535
:1048100000780A2807DB0120DFF8701508700020F7
:10482000DFF86415087010BDF41D0108E4180020BD
:104830004C1A0108601A0108480F002080B5432077
:10484000DFF8241508700A22DFF8EC14702005F058
:10485000EAF8DFF81C15DFF80405FFF70CFB012868
:1048600040F085804420DFF8081588741920DFF8AF
:104870000015C874DFF8FC14DFF8E004FFF700FC53
:104880007448007801282CD071480078012803D0A2
:104890006F480078002815D1DFF8F42400210220A9
:1048A00000F08FFB012005F03FFDDFF88404006875
:1048B000401CDFF87C140860DFF874040068FFF720
:1048C00092FA05E0DFF8CC240021022000F079FB09
:1048D00002205F49087001225D49D02005F0B4F83C
:1048E00009E05C480078012805D1DFF8AC240021FC
:1048F000022000F066FB0120DFF850140870002051
:10490000DFF84C140870DFF87C04007802282ED001
:104910000122DFF888144FF4206005F084F82F227C
:10492000DFF84C14DFF8600400782F23584300F6BA
:10493000012080B205F088F8DFF860040078401CA0
:10494000DFF8581408700122DFF850144FF420608B
:1049500005F07AF8DFF8440400780A2807DB012024
:10496000DFF83C1408700020DFF83014087001BD37
:10497000041E0108741A0108631A002080B545203E
:10498000DFF8E41308700A22DFF8AC13702005F09A
:104990004AF8DFF8DC13DFF8C403FFF76CFA0128EC
:1049A0001BD14620DFF8C81388741620DFF8C01327
:1049B000C874DFF8C013DFF8A403FFF739FCDFF891
:1049C000E4230021022000F0FCFA0120DFF87C1330
:1049D00008700020DFF87813087001BDA086010080
:1049E00080B54720DFF8801308700A22DFF84813EB
:1049F000702005F018F8DFF87813DFF86003FFF790
:104A00003AFA01281BD14820DFF8641388740A2081
:104A1000DFF85C13C874DFF85C13DFF84003FFF7BE
:104A200089FCDFF884230021022000F0CAFA01206B
:104A3000DFF8181308700020DFF81413087001BDA8
:104A4000881A01080100604067667640343383406D
:104A5000C5190020C8190020C719002000006040B7
:104A600080B54920DFF8001308700A22B24970208F
:104A700004F0D9FFBE49B948FFF7FDF901282DD14F
:104A80004A20BB4988741920B949C874B949B34848
:104A9000FFF7AAFCA7480078012810D0C34A0021DC
:104AA000022000F08EFA8021C14804F02BFF102173
:104AB000C04804F027FF0120BF49087008E09D4866
:104AC0000078012804D1BD4A0021022000F079FAC3
:104AD00000209F49087001209C49087001BD00001A
:104AE000B419002080B54B209F4908700A229249D2
:104AF000702004F098FF9E499848FFF7BCF9012800
:104B00001FD14C209A4988740E209949C87499493C
:104B10009248FFF72DFDAA4A0021022000F051FA29
:104B20008021A34804F0EEFE1021A24804F0EAFE22
:104B30000120A1490870002085490870012083499F
:104B4000087001BD80B56D20874908708849834889
:104B5000FFF791F9012809D16E2085498874012059
:104B60008349C87483497D48FFF736FD01BD0000C5
:104B700067668640F8180020F918002070B50025F7
:104B8000002100200026002000247B2078490870A6
:104B9000724C00252BE07648C07C10F1140174485B
:104BA00001F0DCFF80B2000A7149714AD27C5118D1
:104BB00008756F48C07C10F114016D4801F0CEFFFC
:104BC0006B496B4AD27C511848756948C07C10F11A
:104BD0001601C9B2664805F03DFC6548C07C10F17D
:104BE00016026349774E300005F00CF86D1CEDB2EB
:104BF00075480088854280F294807448EDB2285C44
:104C00007B28F3D1280005E07049EDB2695C217082
:104C1000641C6D1CEDB26D49C0B24118C97C1431E1
:104C20008D42F1DB6949694AC0B28218D27C5118C1
:104C3000097D4A4A82F828106449644AC0B2801843
:104C4000C07C4018407D454981F8290043484078A0
:104C500080070CD55E495F48FFF733F9002806D17D
:104C600000205D4908700020574908805FE03B48FC
:104C700090F82800394991F8291011EB002637489F
:104C8000C07C10F11401354801F068FF3349897C7C
:104C900040290CD0002107E0304AC9B28A18D27FDF
:104CA0004E4BC9B2CA54491CC9B20629F4DBB6B28C
:104CB00080B286429AD133480078022806D127482C
:104CC000807C402802D001201E4908702348807C47
:104CD00040280ED041280FD0432810D0452811D0AD
:104CE000472812D0492813D04B2814D06D2815D04E
:104CF00051E7FFF793FC4EE7FFF7F4FC4BE7FFF7B4
:104D00009DFD48E7FFF73AFE45E7FFF769FE42E7FA
:104D1000FFF7A6FE3FE7FFF7E5FE3CE7FFF712FFD0
:104D200039E700202C49087000202749088070BD11
:104D300048190020C8190020CC180020FC190020B8
:104D4000C4190020D0190020141E0108C119002028
:104D5000E9190020C9190020FA190020581700206D
:104D600080170020CA190020D11900206C170020DC
:104D70008417002098170020241E0108341E010803
:104D8000441E01083C1A0020CB190020CC19002039
:104D9000541E0108641E0108741E0108CD1900206C
:104DA000CE190020841E01089C1A0108941E0108D7
:104DB0000008014000100140C0190020A41E010895
:104DC000B41E010858070020B61900204810002022
:104DD00062170020E0180020651A0020D818002073
:104DE00038B504004FF48061DFF8100404F08AFD48
:104DF000002522E04FF40061DFF8000404F085FD97
:104E00004FF48051DFF8F40304F07FFD642005F0D7
:104E100067FB4FF48051DFF8E40304F073FD642076
:104E200005F05EFB4FF48051DFF8D00304F06DFD18
:104E3000642005F055FB64006D1CEDB2082D09DA05
:104E4000E4B22006D6D54FF40061DFF8B00304F0D9
:104E500059FDD5E731BD10B5040000F06CF8F8201D
:104E6000FFF7BEFF642005F03BFB14F0F000FFF7F6
:104E7000B7FF642005F034FB2001C0B2FFF7B0FF9C
:104E800010BD70B5002500264FF48061DB4804F0AA
:104E900039FD00241DE06D004FF48051D74804F027
:104EA00034FD642005F01CFB4FF48051D34804F01E
:104EB00029FD642005F014FB4FF48051CF4804F025
:104EC00024FD1021CD4804F012FD002800D06D1CF7
:104ED000641CE4B2082CDEDB00241DE076004FF4F5
:104EE0008051C64804F011FD642005F0F9FA4FF432
:104EF0008051C24804F006FD642005F0F1FA4FF439
:104F00008051BE4804F001FD1021BC4804F0EFFCC4
:104F1000002800D0761C641CE4B2082CDEDB4FF4C1
:104F20008061B64804F0F1FC15F0F00016F00F01B6
:104F30000818C0B270BD80B5FC20FFF751FFFFF725
:104F4000A0FF01BD10B50400FFF7F5FFFA20FFF741
:104F500047FF642005F0C4FA14F0F000FFF740FFAB
:104F6000642005F0BDFA2001C0B2FFF739FF10BD83
:104F700080B50120FFF76FFF01BD80B5C0B20128E9
:104F800006D01DD303280FD008D3042812D017E071
:104F900051F08000C0B2FFF75EFF11E051F09000C9
:104FA000C0B2FFF758FF0BE051F08800C0B2FFF726
:104FB00052FF05E051F09800C0B2FFF74CFFFFE749
:104FC00001BD38B51400C9B2C0B2FFF7D6FF002545
:104FD00004E0EDB2285DFFF7B5FF6D1CEDB2285D72
:104FE0000028F6D131BD2DE9F043C1B004000D0019
:104FF00016001F005FF00008FF210022E946484626
:1050000000F050F9022F5FD13078717811EB002059
:10501000FF2839D930218DF8001042F21071B0FB11
:10502000F1F130318DF8011042F21071B0FBF1F264
:1050300001FB12014FF47A72B1FBF2F130318DF8BD
:1050400002104FF47A71B0FBF1F201FB12016422FD
:10505000B1FBF2F130318DF803106421B0FBF1F2B5
:1050600001FB12010A22B1FBF2F130318DF804107C
:105070000A21B0FBF1F201FB120030308DF805007F
:1050800000208DF8060074E030218DF800106421B6
:10509000B0FBF1F130318DF801106421B0FBF1F279
:1050A00001FB12010A22B1FBF2F130318DF802103E
:1050B0000A21B0FBF1F201FB120030308DF8030041
:1050C00000208DF8040054E05FF000091DE019F89D
:1050D0000600642190FBF1F201FB12000A2190FB13
:1050E000F1F03030694601F8190019F806000A217C
:1050F00090FBF1F201FB12003030694611EB4901DF
:10510000487018F1020819F10109B9452AD219F8B5
:1051100006006528DBDB19F80600642190FBF1F03E
:105120003030694601F8190019F80600642190FB37
:10513000F1F201FB12000A2190FBF1F030306946D8
:1051400011EB4901487019F806000A2190FBF1F2B1
:1051500001FB12003030694611EB4901887018F1EB
:105160000308D0E7002069465FFA88F818EB0101D0
:1051700048702900C9B22000C0B2FFF7FEFE5FF000
:10518000000906E0684619F80000FFF7DBFE19F198
:105190000109684619F800000028F3D141B0BDE8C4
:1051A000F08380B58021154804F0AFFB4FF4807187
:1051B000124804F0AAFB4FF40071104804F0A5FB5C
:1051C000012005F06BF94FF400710C4804F09AFBD4
:1051D0000A2005F063F93020FFF73DFE642005F05A
:1051E0007FF90C20FFF737FE642005F079F90120E4
:1051F000FFF731FE642005F073F901BD001801408E
:10520000002205F0A7B9000000F10103810704D0D6
:1052100010F8011B89B18107FAD10268B2F101319E
:10522000914311F0803F04BF50F8042FF6E710F8C7
:10523000011B11B110F8011BFBE7C01A70470000F9
:105240000300002013F0030F09D0521E22BF13F8F1
:10525000010B11F801CBB0EB0C00F3D07047121F1B
:1052600022BF53F8040B51F804CB6045F7D0121D50
:105270000AD200BA9CFA8CFCB0EB0C0038BF6FF07D
:10528000000088BF01207047521E22BF13F8010B97
:1052900011F801CBB0EB0C00F6D0521C08BF104641
:1052A0007047000062F30F2262F31F42401810F0B3
:1052B000030308D0C91A1FD3DB0748BF00F8012D2C
:1052C00028BF20F8022D130030B4144615461039BB
:1052D00028BF20E93C00FAD8490728BF20E90C0084
:1052E00048BF40F8042D890028BF20F8022D48BF90
:1052F00000F8012D30BC7047C91818BF00F8012D07
:10530000CB0728BF00F8012D7047000080B5DFF8FB
:10531000540300780A21DFF84C2312780A2392FB09
:10532000F3F290FBF1F301FB130050EA0210DFF8F7
:1053300034130870DFF82C0340780A21DFF82423A7
:1053400052780A2392FBF3F290FBF1F301FB130076
:1053500050EA0210DFF80C134870DFF80803807879
:105360000A21DFF8002392780A2392FBF3F290FBE4
:10537000F1F301FB130050EA0210DFF8E812887025
:10538000DFF8E002C0780A21B64AD2780A2392FBFD
:10539000F3F290FBF1F301FB130050EA0210B14964
:1053A000C870B04800790A21AE4A12790A2392FBEC
:1053B000F3F290FBF1F301FB130050EA0210A9494C
:1053C0000871A84840790A21A64A52790A2392FB1B
:1053D000F3F290FBF1F301FB130050EA0210A14934
:1053E0004871A04880790A219E4A92790A2392FB4B
:1053F000F3F290FBF1F301FB130050EA021099491C
:10540000887100F0B1F82021002000F046F895489E
:105410000178022000F041F892484178032000F022
:105420003CF890488178042000F037F88D48C17826
:10543000052000F032F88B480179062000F02DF8A5
:1054400088484179072000F028F8864881790820AB
:1054500000F023F80021002000F01FF801BD10B576
:10546000040005F0C5F8A22005F015F905F0ECF8E8
:105470002000C0B205F00FF905F0E6F805F0B8F825
:10548000A32005F008F905F0DFF805F02FF9040076
:1054900005F0C7F82000C0B210BD38B504000D00FB
:1054A00005F0A6F8A22005F0F6F805F0CDF82000EA
:1054B000C0B205F0F0F805F0C7F82800C0B205F05A
:1054C000EAF805F0C1F805F0ACF831BD38B50024B4
:1054D0000225002408E02800C0B2FFF7C0FF6149A0
:1054E000E4B260546D1C641CE4B2072CF3DB5D482D
:1054F000007810F07F005B4908705A48407810F03F
:105500007F00584948705748807810F03F0055494F
:1055100088705448C07810F03F005249C870514814
:10552000007910F007004F4908714E48407910F09B
:105530001F004C4948714B4880794B4908704948D5
:105540004079494948704748C0784749887045487C
:1055500080784549C87043484078434908714148BC
:1055600000784149487131BD80B500210120FFF725
:1055700094FF00210E20FFF790FF83210D20FFF7FD
:105580008CFF01BD10B50400C9B2012902D0022967
:105590004BD05FE02078C0B20009C0B20A21227867
:1055A00012F00F0201FB00202E4988716078C0B212
:1055B0000009C0B20A21627812F00F0201FB00203C
:1055C00028494871A078C0B20009C0B20A21A27867
:1055D00012F00F0201FB00202249C870E078C0B22F
:1055E0000009C0B20A21E27812F00F0201FB00208C
:1055F0001C4988702079C0B20009C0B20A21227902
:1056000012F00F0201FB0020164948706079C0B209
:105610000009C0B20A21627912F00F0201FB0020DA
:1056200010490870FFF772FE14E0FFF74FFF0E48B5
:10563000007820700C48407860700B488078A0702B
:105640000948C078E0700848007920710648407920
:105650006071FFE710BD80B501210448FFF792FF9C
:1056600001BD0000000A002018190020080A0020CF
:10567000F8B5344F384605F069F80446381D05F092
:1056800065F8054607F1080005F060F8064607F1E1
:105690000C0005F05BF823782B492C4A002B40D1F5
:1056A0002B6802FB03132B60082702FB03132B60FC
:1056B00002FB03132B6002FB03132B6002FB03139B
:1056C0002B6002FB03132B6002FB03132B6002FB16
:1056D00003132B600346D5F800C002FB0C1CC5F871
:1056E00000C043F804CB7F1ED5F800C002FB0C1CA1
:1056F000C5F800C043F804CBD5F800C002FB0C1C71
:10570000C5F800C043F804CBD5F800C002FB0C1C60
:10571000C5F800C043F804CBDDD1C36F336001236B
:1057200023702B6802FB03112960317801F01F01FF
:1057300050F8212032602A6840F82120306880002B
:105740008008F2BD000500205FF36E3C0D66190075
:105750000021C0B2B0F141021A2A02D2B0F13701E1
:105760000EE0C0B2B0F161021A2A02D2B0F15701C4
:1057700006E0C0B2B0F130020A2A01D2B0F1300125
:105780000800C0B27047F0B40021002300240022BA
:10579000002502781100C9B20909C9B20A23D2B2A0
:1057A00012F00F0203FB01210A00D2B2102A01DA23
:1057B00008326DE0103A03791900C9B20909C9B27B
:1057C0000A24DBB213F00F0304FB01310B00C47891
:1057D0002100C9B20909C9B20A25E4B214F00F04C4
:1057E00005FB01410C0045792900C9B20909C9B27C
:1057F0000A26EDB215F00F0506FB01510D00641CE1
:10580000DBB2012B12D070D3032B61D051D3052B07
:105810005ED00BD3072B5BD008D3092B06D057D310
:105820000B2B03D054D30C2B58D05EE0E4B2202CC9
:1058300001D15B1C0124DBB219000A26DBB20A2766
:1058400093FBF7F391FBF6F706FB171151EA0311EF
:105850000B000371E4B221000A23E4B20A2694FB90
:10586000F6F491FBF3F603FB161151EA04110C0058
:10587000C470EDB229000A23EDB20A2495FBF4F4BA
:1058800091FBF3F503FB151151EA04110D0045716D
:10589000D2B211000A23D2B20A2492FBF4F291FB95
:1058A000F3F403FB141151EA02110A000270F0BC78
:1058B000704703210D4205D1E4B21E2C07D15B1CB9
:1058C000012404E0E4B21D2C01D15B1C0124B2E7E9
:1058D000E4B2202C01D15B1C0124ACE7E4B2202C03
:1058E00002D1012301246D1CA5E7E0E7020004E0DA
:1058F00003782C2B00D1491E401CC9B200290BD0C3
:1059000003782A2B06D00378203B5B2B02D2037846
:10591000002BEDD1FF2001E0801AC0B270470122B8
:1059200001E0C0B242430B00591EDBB2002BF8D19C
:10593000100070472DE9F84F07000C0038000025D3
:1059400000265FF000095FF0000A5FF0000802E047
:1059500019F10109401C01782D2902D158F00208E3
:10596000401C01782C2902D00178002906D15FEA79
:10597000887000D57F1C5FF0000B25E001782E2990
:1059800008D158F00108401C5FEAC871E0D51AF14F
:10599000010ADFE7017830390A29F5D35FF0000901
:1059A0005FF0000AE3E7B9F10100B0EB0B01C9B207
:1059B0000A20FFF7B4FF5FFA8BFB1BF807103039A2
:1059C00001FB00551BF1010B5FFA8BFB5FFA89F9B4
:1059D000CB45E8D35FFA8AFABAF1050F01DB5FF035
:1059E000040A84F800A05FF0000B14E0BAF1010093
:1059F000B0EB0B01C9B20A20FFF791FF5FFA89F9FA
:105A00005FFA8BFB1BEB0901C9194978303901FB9F
:105A100000661BF1010B5FFA8BFB5FFA8AFAD34534
:105A2000E4D35146C9B20A20FFF779FF00FB0560B5
:105A30005FEA887100D54042BDE8F28F80B5DFF89B
:105A4000282DDFF8283D04F083FE0022DFF86C3DAE
:105A500004F050FF04BD2DE9F04F85B00C00150097
:105A6000984605F07DF80022DFF8543D04F042FF2F
:105A700006000F00200005F073F80022DFF8403D1B
:105A800004F038FFCDE90201280005F069F8002292
:105A9000DFF82C3D04F02EFF04000D00404605F019
:105AA0005FF80022DFF8183D04F024FFCDE9000183
:105AB00030003900FFF7C2FF82468B4620002900E4
:105AC000FFF7BCFF804689465046594642464B4642
:105AD00005F054F806000F00DDE90201FFF7AEFF04
