:020000040800F2
:1000000010160020CD770008DD6F0008217200086F
:100010002372000825720008277200080000000003
:10002000000000000000000000000000297200082D
:100030002B720008000000002D72000851710008AA
:10004000397800083D7800084178000845780008B4
:10005000497800084D780008517800085578000864
:10006000597800085D780008617800086578000814
:10007000697800086D7800087178000875780008C4
:10008000797800087D780008817800088578000874
:10009000897800088D780008917800089578000824
:1000A000997800089D780008A1780008A5780008D4
:1000B000DF6F00082F71000859710008B57800083B
:1000C000B9780008BD780008C1780008C578000834
:1000D000C9780008051E000831720008AD720008DA
:1000E000D9780008DD780008E1780008E578000894
:1000F000E9780008ED780008F1780008F578000844
:10010000F9780008FD7800080179000805790008F1
:100110006B3400080D790008117900081579000882
:10012000197900081D79000821790008257900084F
:1001300038B50020DFF8480B0078C00710D5322210
:10014000DFF8401BDFF8BC4D200001F08FFDDFF829
:10015000300B007810F0FE00DFF8241B087014E06C
:10016000DFF81C0B007880070FD53222DFF87C1BEC
:10017000DFF8904D200001F079FDDFF8040B0078E6
:1001800010F0FD00DFF8F81A0870DFF8640B007853
:10019000C00710D53222DFF85C1BDFF8E84D2000E5
:1001A00001F064FDDFF8480B007810F0FE00DFF886
:1001B000401B087014E0DFF8380B007880070FD57B
:1001C0003222DFF8341BDFF8BC4D200001F04EFD79
:1001D000DFF81C0B007810F0FD00DFF8141B08702E
:1001E000DFF8A00D00787B2840F07181DFF8940DD6
:1001F00040785B2840F0B880DFF8880D807A63286B
:1002000020D0652821D0672822D0692823D06B28E8
:1002100024D06D2825D0712826D0732827D079289E
:1002200028D07B2829D07D282AD0A12831D0A32806
:1002300032D0A52833D0A72834D0A92823D0AA2883
:1002400024D031E000F01EFC2EE000F064FC2BE036
:1002500000F0A2FC28E000F0D3FC25E000F014FD43
:1002600022E000F04BFD1FE000F07DFD1CE000F0FF
:100270000BFF19E000F08CFE16E000F0C7FE13E063
:1002800000F0A6FD10E000F0D5FD0DE000F040FE0E
:100290000AE000F033FF07E000F072FF04E000F036
:1002A000B5FF01E000F0EAFF7B20DFF81C1B0870BF
:1002B0005B20DFF8141B48700822DFF83C1DDFF8D4
:1002C0000C4B200001F0D2FCDFF8FC0AC07A10F1E0
:1002D0000C01DFF8F40A01F005FDDFF8EC1AC86242
:1002E000DFF8E40AC26ADFF8E00AC06A030ADFF84E
:1002F000D81A002005E00C78DFF8805B4455491CD3
:10030000401CDFF8C44AE47A0C34A042F3DBDFF887
:100310006C1B4354401CDFF8641B4254DFF8A80AEE
:10032000C07A10F10E01C9B2DFF8500B01F0C2FD26
:100330000020DFF8501C08700020DFF8481C4870CF
:100340000020DFF8401C88724021DFF8340B01F0F8
:100350004CFED0F10102D2B24021DFF8240B01F0B3
:1003600055FE01F08FFFB2E0DFF8180C40785A28F4
:1003700040F0AD80DFF80C0C807A412808D043288B
:1003800023D045283ED0472859D0492874D090E042
:100390000020DFF8681C08600120DFF8641C08708A
:1003A000DFF8E02A0021022002F079F8DFF8B82D0A
:1003B0000021032002F073F8DFF8AC2D00210420A7
:1003C00002F06DF801F066FB73E00020DFF82C1CF2
:1003D00008600120DFF8281C0870DFF82C2B0021B2
:1003E000022002F05CF8DFF8802D0021032002F0EB
:1003F00056F8DFF8742D0021042002F050F801F0C7
:1004000049FB56E00020DFF8F41B08600120DFF80C
:10041000F01B0870DFF8F42A0021022002F03FF8F8
:10042000DFF8442D0021032002F039F8DFF8382DE1
:100430000021042002F033F801F02CFB39E0002009
:10044000DFF8B81B08600120DFF8B41B0870DFF884
:10045000382B0021022002F022F8DFF80C2D0021B9
:10046000032002F01CF8DFF8002D0021042002F028
:1004700016F801F00FFB1CE00020DFF8801B08607D
:100480000120DFF87C1B0870DFF8002B0021022020
:1004900002F005F8DFF8D02C0021032001F0FFFF67
:1004A000DFF8C42C0021042001F0F9FF01F0F2FA7A
:1004B000FFE70020DFF8CC1A08700020DFF8C41A2C
:1004C00048700020DFF8BC1A887201F0DBFEDFF80C
:1004D000340A00787B2825D1DFF8280A407810F00C
:1004E0000E0002281CD10822DFF80C1BDFF8140BC9
:1004F00001F028FB002813D10020DFF80C1B087046
:1005000000F0A6F800F00FF80020DFF8F8190870E6
:100510000020DFF8F01948700020DFF8E81988742F
:1005200001F0B0FE31BD38B500200020DFF8D4095D
:10053000807C422808D044280CD0462810D0482877
:1005400014D04A2818D01DE04220DFF8381A8872EB
:10055000012018E04420DFF82C1A8872012012E0F4
:100560004620DFF8201A887201200CE04820DFF8CE
:10057000141A8872012006E04A20DFF8081A8872EF
:10058000012000E00020C0B2012860D17B20DFF80C
:10059000F41908705A20DFF8EC1948700822DFF8C7
:1005A000D81ADFF8D84A200001F060FBDFF85409C0
:1005B000C07CDFF8D019C872DFF8C809C27ADFF84A
:1005C000C01ADFF8C04A200001F050FBDFF8B40980
:1005D000C07A10F10C01DFF8AC0901F083FBDFF801
:1005E000A419C862DFF89C09C26ADFF89809C06ADA
:1005F000030ADFF89019002005E00C78DFF87C583A
:100600004455491C401CDFF87C49E47A0C34A04274
:10061000F3DBDFF868184354401CDFF860184254DD
:10062000DFF86009C07A10F10E01C9B2DFF84C089A
:1006300001F040FC0020DFF84C1908700020DFF8C2
:10064000441948700020DFF83C198872002031BD41
:100650001CB5DFF8B008807C42280ED0442847D073
:10066000462800F08080482800F01D814A2800F0CC
:100670007A814C2800F0B28103E2DFF88808007D1F
:1006800000281AD10020DFF8741908600120DFF873
:1006900070190870DFF85C2A0021022001F0FFFECB
:1006A000DFF8C42A0021032001F0F9FEDFF8B82AA0
:1006B0000021042001F0F3FE19E00020DFF83C19CE
:1006C00008600120DFF838190870DFF82C2A0021B3
:1006D000022001F0E4FEDFF8902A0021032001F05F
:1006E000DEFEDFF8842A0021042001F0D8FEC8E1F4
:1006F000DFF81008007D00281AD10020DFF8FC1870
:1007000008600120DFF8F8180870DFF8602A00217F
:10071000022001F0C4FEDFF8502A0021032001F07E
:10072000BEFEDFF8442A0021042001F0B8FE19E0E3
:100730000020DFF8C81808600120DFF8C41808702E
:10074000DFF82C2A0021022001F0A9FEDFF8182A88
:100750000021032001F0A3FEDFF80C2A0021042071
:1007600001F09DFE8DE1DFF89C07007D01281AD184
:100770000020DFF8881808600120DFF8841808706E
:10078000DFF8F0290021022001F089FEDFF8D829E6
:100790000021032001F083FEDFF8CC290021042092
:1007A00001F07DFE7EE0DFF85C07007D02281AD1B3
:1007B0000020DFF8481808600120DFF844180870AE
:1007C000DFF83C2A0021022001F069FEDFF89829B9
:1007D0000021032001F063FEDFF88C2900210420B2
:1007E00001F05DFE5EE0DFF81C07007D03281AD1F2
:1007F0000020DFF8081808600120DFF804180870EE
:10080000DFF8002A0021022001F049FEDFF8582914
:100810000021032001F043FEDFF84C2900210420D1
:1008200001F03DFE3EE0DFF8DC06007D04281AD131
:100830000020DFF8C81708600120DFF8C41708702F
:10084000DFF8C4290021022001F029FEDFF8182971
:100850000021032001F023FEDFF80C2900210420F1
:1008600001F01DFE1EE0DFF89C06007D052819D171
:100870000020DFF8881708600120DFF8841708706F
:10088000DFF8F0290021022001F009FEDFF8D82866
:100890000021032001F003FEDFF8CC280021042012
:1008A00001F0FDFDEDE0DFF85C06007D01281AD1C6
:1008B0000020DFF8481708600120DFF844170870AF
:1008C000DFF8B4290021022001F0E9FDDFF89828C3
:1008D0000021032001F0E3FDDFF88C280021042033
:1008E00001F0DDFD3EE0DFF81C06007D02281AD194
:1008F0000020DFF8081708600120DFF804170870EF
:10090000DFF870290021022001F0C9FDDFF8582826
:100910000021032001F0C3FDDFF84C280021042052
:1009200001F0BDFD1EE0DFF8DC05007D032819D1D4
:100930000020DFF8C81608600120DFF8C416087030
:10094000DFF8B0290021022001F0A9FDDFF8182806
:100950000021032001F0A3FDDFF80C280021042072
:1009600001F09DFD8DE0DFF89C05007D00281AD187
:100970000020DFF8881608600120DFF88416087070
:10098000DFF874290021022001F089FDDFF8D82763
:100990000021032001F083FDDFF8CC270021042093
:1009A00001F07DFD19E00020DFF8501608600120FD
:1009B000DFF84C160870DFF844290021022001F00E
:1009C0006EFDDFF8A4270021032001F068FDDFF8A9
:1009D00098270021042001F062FD52E0DFF8240591
:1009E000407D012833D10020DFF810160860012077
:1009F000DFF80C160870DFF808290021022001F04A
:100A00004EFDDFF864270021032001F048FDDFF8E8
:100A100058270021042001F042FD0523DFF8E428D7
:100A20000321022001F04DFD0323DFF8DC28002123
:100A3000032001F046FD0622DFF8D0186C462000A6
:100A400001F014F90121684601F010FF19E00020BF
:100A5000DFF8A81508600120DFF8A4150870DFF89A
:100A6000B0280021022001F01AFDDFF8FC26002149
:100A7000032001F014FDDFF8F0260021042001F02E
:100A80000EFD13BD00B583B0DFF8F804007BDFF87E
:100A900084180860DFF87C0800688DF80000DFF833
:100AA000740800680002DFF86C180860DFF8D404EE
:100AB000407BDFF860180860DFF8580800688DF8A0
:100AC0000100AE2302222D21684601F0F7FF6420C9
:100AD000BD4988720120BC49C8720120BA49087317
:100AE0000020DFF8181508600120DFF814150870E1
:100AF000DFF824280021022001F0D1FCDFF868266D
:100B00000021032001F0CBFCDFF85C26002104204B
:100B100001F0C5FC07BD00B583B0552302222D218D
:100B2000684601F0CBFF9DF800009DF8011011EB25
:100B30000020DFF8E01708606620A34988720220D1
:100B4000A149C8729DF800009F4908739DF80100F3
:100B50009D4948730020DFF8A41408600120DFF8E5
:100B6000A0140870DFF8D0290021022001F097FCC2
:100B7000DFF8F4250021032001F091FCDFF8E825DF
:100B80000021042001F08BFC0223DFF8142A052148
:100B9000022001F096FC07BD10B50A22DFF8E4142C
:100BA000DFF8004A200001F061F8AE230A2221217B
:100BB000DFF8F00901F082FF682083498872012084
:100BC0008149C8720120804908730020DFF8A81508
:100BD00008600120DFF8A4150870DFF8CC29002197
:100BE000022001F05CFCDFF8C4290021032001F0A1
:100BF00056FCDFF8B8290021042001F050FC10BD9C
:100C000010B555230A222121DFF8980901F056FF7B
:100C10006A206D4988720A206B49C8720A22DFF87F
:100C20008419DFF87C49200001F020F80020DFF86B
:100C3000481508600120DFF844150870DFF87029B6
:100C40000021022001F02BFCDFF81C2500210320ED
:100C500001F025FCDFF810250021042001F01FFC25
:100C60000423DFF840290421022001F02AFC062396
:100C7000DFF8582D0021032001F023FC10BD0000F7
:100C80000B060020F403002080B5BE48007BDFF88F
:100C9000241908700122DFF81C0901785C2001F09A
:100CA000BDFE6C204849887201204749C872012066
:100CB000454908730020DFF8C01408600120DFF800
:100CC000BC140870DFF8F0280021022001F0E7FBD7
:100CD000DFF8D8280021032001F0E1FBDFF8CC2861
:100CE0000021042001F0DBFB01BD000028040020EE
:100CF0000A0600208C030020C003002080B50121DB
:100D00005C2001F0A1FEDFF8AC180870DFF8A40841
:100D100000782D4908736E202B49887201202A49DA
:100D2000C8720020DFF8501408600120DFF84C146E
:100D30000870DFF888280021022001F0B0FBDFF8FE
:100D400028240021032001F0AAFBDFF81C24002145
:100D5000042001F0A4FB0123DFF85828062102201B
:100D600001F0AFFB01BD10B50822C649A24C20001E
:100D700000F07CFFAE23082211219F4801F09EFE67
:100D800072201149887201200F49C87201200E4952
:100D900008730020DFF8E01308600120DFF8DC139F
:100DA0000870DFF81C280021022001F078FBDFF832
:100DB000FC270021032001F072FBDFF8F02700215F
:100DC000042001F06CFB10BDF4040020F6040020A8
:100DD0001CB50622DFF8EC176C46200000F046FF39
:100DE0000121684601F042FD7E20DFF8DC178872A1
:100DF0000120DFF8D417C8720120DFF8CC17087380
:100E00000020DFF8741308600120DC490870DFF867
:100E1000BC2A0021022001F042FBDFF8582D0021FE
:100E2000032001F03CFBDFF84C2D0021042001F0F1
:100E300036FB13BD80B503229249392001F02CFE08
:100E4000AA20DFF8841788720120DFF87C17C872A7
:100E50000120DFF874170873C34A0021022001F053
:100E60001EFBC14A0021032001F019FBDFF8082D09
:100E70000021022001F013FB01BD00005C040020F2
:100E8000000801405C74000810B400220278437826
:100E90001B0213EB024280788218DFF8E00CB2FBF1
:100EA000F0F0087042F21070B2FBF0F00A23B0FBD1
:100EB000F3F403FB140048704FF47A70B2FBF0F0C7
:100EC0000A23B0FBF3F403FB140088702E20C870D3
:100ED0006420B2FBF0F00A23B0FBF3F403FB140030
:100EE00008710A20B2FBF0F00A23B0FBF3F403FB15
:100EF000140048710A20B2FBF0F300FB1320887144
:100F000010BC70471C03002084740008987400080B
:100F100010B584B068460021016001A800210022BC
:100F200006C0083803226946392001F0B5FDAB2020
:100F3000DFF8941688720320DFF88C16C87203223B
:100F40006946DFF85C46200000F090FE01A9684683
:100F5000FFF79AFF844A0021022001F0A0FA824A9A
:100F60000021032001F09BFADFF8142C002102205D
:100F700001F095FA072301AA0021032001F0A1FA4C
:100F80001FBD0000C4040020AC740008C074000839
:100F900010B508223B49DFF8384A200000F066FE11
:100FA000AE2308226121DFF8280A01F087FD7A20AC
:100FB000DFF8141688720120DFF80C16C8720120C1
:100FC000DFF80416087300206B49086001206B49A4
:100FD0000870DFF8002A0021022001F060FADFF833
:100FE000942B0021032001F05AFADFF8882B00210E
:100FF000042001F054FA10BD94050020B40500202F
:10100000F6050020260300200706002010B5552312
:1010100008226121DFF8B80901F050FD7C20DFF8DB
:10102000A81588720820DFF8A015C8720822DFF81A
:10103000A019DFF86C45200000F018FE00204E4992
:10104000086001204D490870DFF8442A0021022081
:1010500001F025FA444A0021032001F020FA424A17
:101060000021042001F01BFA0423DFF8182B0421CF
:10107000022001F026FA10BD1E030020C604002045
:1010800030030020D004002010B555230822112180
:10109000DFF8AC0A01F012FD7420DFF82C1588721D
:1010A0000820DFF82415C8720822DFF8941ADFF848
:1010B000F044200000F0DAFD00202F4908600120F4
:1010C0002E490870DFF8C02A0021022001F0E7F95C
:1010D000254A0021032001F0E2F9234A00210420DF
:1010E00001F0DDF90423DFF8A42A0421022001F035
:1010F000E8F910BDD4740008E874000810B508229F
:10110000DFF88C1ADFF88C4A200000F0AFFDAE2328
:1011100008227321DFF87C0A01F0D0FCA220DFF85E
:10112000A81488720120DFF8A014C8720120DFF82B
:101130009814087300201049086001200F490870B6
:10114000DFF8542A0021022001F0A9F9DFF8242A4F
:101150000021032001F0A3F9DFF8182A0021042060
:1011600001F09DF910BD000070740008FC740008C7
:101170001075000824750008B4050020F60500204D
:1011800010B5552308227321DFF8080A01F096FCF8
:10119000A420DFF8341488720820DFF82C14C872F9
:1011A0000822DFF8F019DFF8F843200000F05EFDB8
:1011B0000020DFF8E81908600120DFF8E419087062
:1011C000DFF8E0290021022001F069F9534A0021EB
:1011D000032001F064F9514A0021042001F05FF975
:1011E0000223DFF8C4290621022001F06AF9022354
:1011F000DFF8B8290021032001F063F910BD0000D9
:10120000387500084C7500086075000810B5082294
:10121000DFF87C19DFF89849200000F027FDAE23A5
:1012200008227D21DFF8880901F048FCA620E64964
:1012300088720120E449C8720120E3490873002044
:10124000DFF8581908600120DFF854190870DFF83A
:1012500064290021022001F022F9DFF81829002179
:10126000032001F01CF9DFF80C290021042001F013
:1012700016F910BD747500088875000810B555235F
:1012800008227D21DFF8280901F018FCA820CE49AA
:1012900088720820CC49C8720822DFF81419C04CA3
:1012A000200000F0E3FC0020DFF8F01808600120C7
:1012B000DFF8EC180870DFF800290021022001F0A7
:1012C000EEF8164A0021032001F0E9F8134A002144
:1012D000042001F0E4F80223DFF8E02806210220D0
:1012E00001F0EFF80223DFF8D8280021032001F0F5
:1012F000E8F810BD9C750008B0750008C4750008BA
:10130000D875000832030020380300203303002082
:10131000EC750008DC0500200076000870740008F9
:1013200030B59BB0002000F009F9DFF89828DFF80D
:101330009818DFF8980801F0A4FD40208DF81200FD
:1013400008208DF813007B208DF8000082208DF896
:1013500001000822DFF8E8170DF10204200000F078
:1013600085FC0822DFF868160DF10A04200000F061
:101370007DFC05AC01F075FEDFF8541801F0E0FECD
:1013800001F04AFFC0B2B0F12A01012904D2642061
:10139000DFF8401808701AE0C0B2B0F12701032945
:1013A00004D26320DFF82C18087010E0C0B2B0F14E
:1013B0002401032904D26220DFF81818087006E01F
:1013C000C0B2242803DA6120DFF808180870DFF8BB
:1013D000040800782070641CDFF8FC070078207097
:1013E000641CDFF8F8070068002101F037FF1AD20B
:1013F000DFF8E8070168DFF8D80701F0A1FEDFF8A1
:10140000DC170860DFF8D407006801F005FF05006D
:10141000DFF8C807006801F033FF010A2170641C7F
:101420002570641C27E0DFF8B407006801F03AFF7C
:1014300031F0004101F05EFFDFF8A0170860DFF82F
:101440009C070168DFF8880701F07AFEDFF88C1747
:101450000860DFF88807006801F0DEFE0500DFF8AD
:101460007C07006801F00CFF010A51F08001217037
:10147000641C2570641CDFF868070168DFF85007FA
:1014800001F05EFEDFF858170860DFF854070068C7
:1014900001F0C2FE0500DFF84807006801F0F0FE29
:1014A000010A2170641C2570641CDFF820070068A5
:1014B000DFF818170860DFF81407006801F0ACFEC9
:1014C0000500DFF80807006801F0DAFE010A217064
:1014D000641C2570641C9DF8130010F1140168460B
:1014E00000F000FC0D900D9D0D98010A6C46002047
:1014F00004E022780EABC254641C401C9DF81320FB
:1015000014329042F5DB0EAA8154401C0EA94554BA
:101510009DF8130010F11601C9B20EA801F0F2FFF8
:1015200000208DF8000000208DF8010000208DF8CB
:1015300012001BB030BD00001476000880B50020FA
:10154000DFF8A01608700022DFF89C16DFF89C0672
:1015500002F063F9DFF88C1609784018DFF884167A
:1015600008700122DFF88016DFF8840602F055F9D2
:10157000DFF8701609784018DFF868160870DFF891
:1015800064060078002809D1DFF85436DFF84C26CD
:10159000DFF85C16DFF8540602F07CF901BD0000AC
:1015A00000050020800500202876000870740008DF
:1015B0003C7600080D06002050760008647600088E
:1015C00078760008D1040020F404002038B500200B
:1015D000DFF82006007802281CD1FFF7A1FE0020CA
:1015E000DFF8B81508600120DFF8B4150870DFF8DF
:1015F00008260021022000F052FFDFF878250021A4
:10160000032000F04CFFDFF86C250021042000F0DF
:1016100046FF59E1DFF8DC050078012800F0CF80B3
:10162000032809D004282ED0052853D0062878D0C6
:10163000072800F09D80E9E04120DFF8C01588749C
:101640000822DFF85015DFF8B845200000F00EFB47
:101650000020DFF8481508600120DFF84415087005
:10166000DFF8A0250021022000F019FFDFF8042593
:101670000021032000F013FFDFF8F82400210420EC
:1016800000F00DFFC2E04320DFF8701588740822D7
:10169000DFF80015DFF86845200000F0E7FA0020C9
:1016A000DFF8F81408600120DFF8F4140870DFF8A0
:1016B00058250021022000F0F2FEDFF8B8240021B6
:1016C000032000F0ECFEDFF8AC240021042000F041
:1016D000E6FE9BE04520DFF8241588740822DFF839
:1016E000B414DFF81C45200000F0C0FA0020DFF839
:1016F000AC1408600120DFF8A8140870DFF80C258E
:101700000021022000F0CBFEDFF868240021032036
:1017100000F0C5FEDFF85C240021042000F0BFFECD
:1017200074E04720DFF8D41488740822DFF86414CA
:10173000DFF8CC44200000F099FA0020DFF85C14B8
:1017400008600120DFF858140870DFF8C424002175
:10175000022000F0A4FEDFF81C240021032000F08A
:101760009EFEDFF810240021042000F098FE4DE0DA
:101770004920DFF8881488740822DFF83414DFF871
:101780008044200000F072FA0020DFF81014086096
:101790000120DFF80C140870DFF878240021022003
:1017A00000F07DFEDFF8CC230021032000F077FE5F
:1017B000DFF8C0230021042000F071FE26E04B205A
:1017C000DFF8381488740822DFF8C813DFF83044D3
:1017D000200000F04BFA0020DFF8C0130860012061
:1017E000DFF8BC130870DFF830240021022000F07D
:1017F00056FEDFF880230021032000F050FEDFF8C2
:1018000074230021042000F04AFEFFE71220DFF8D5
:10181000EC13C8747B20DFF8E41308700A20DFF8AB
:10182000DC1348700822C649DFF8F043200000F0BE
:101830001DFA0A22DFF8E813DFF8E843200000F081
:1018400015FA00F0C8FE0822DFF8DC13DFF8DC43ED
:10185000200000F00BFADFF8A403C07C10F11401A3
:10186000DFF8980300F03EFADFF890134863DFF8E2
:101870008C03426BDFF88403406B030ADFF87C13B0
:10188000002005E00C78DFF8A8534455491C401CA3
:10189000DA4CE47C1434A042F4DBDFF894134354B4
:1018A000401CDFF88C134254D448C07C10F1160160
:1018B000C9B2DFF87C0301F025FE0120DFF87413C4
:1018C00008700020DC49086031BD00008C760008FB
:1018D00010B594B0D948006845F25551884273D08C
:1018E00000F0D0FC08A8D6490CC90CC0083908384B
:1018F0000AA8D4491CC91CC00C390C380DA8D249FF
:10190000182200F0C3F955208DF8000055208DF8FD
:101910000100AE2302220121684601F0CFF8AE2378
:101920000822112108A801F0C9F8AE23082261217C
:10193000274801F0C3F8AE2308227321954801F02F
:10194000BDF8AE2308227D21994801F0B7F8AE23F7
:101950000A2221210AA801F0B1F8B4208DF8000074
:1019600000208DF80100AE2302222D21684601F0EF
:10197000A5F8AE23172230210DA801F09FF8B4205E
:101980008DF8000000208DF80100AE2302225021C6
:10199000684601F093F8AE2301225821684601F011
:1019A0008DF801208DF80000AE2301225C216846ED
:1019B00001F084F80221012001F046F89F490860F7
:1019C00000F0BDFF00F05EFC14B010BD84050020E7
:1019D00020000020C876000800B583B09748006852
:1019E00045F25551884251D100F04CFC5523082254
:1019F0001121534801F062F855230A222121884819
:101A000001F05CF8552302222D21684601F056F8BA
:101A10009DF800009DF8011011EB00208B49086033
:101A20005523172230218A4801F048F817218848A9
:101A300001F068FD0A2001F0F0FF0221502001F0C2
:101A400003F8844908600121582000F0FDFF824915
:101A5000087001215C2000F0F7FF804908705523D1
:101A6000082261217E4801F029F8552308227321BC
:101A7000484801F023F8552308227D214C4801F005
:101A80001DF800F0FFFB2E4800F084FD07BD0000AC
:101A90000474000830B59BB000207248807A8DF83D
:101AA00012007048C07A8DF813007B208DF800007A
:101AB0000A208DF80100082221490DF102042000BE
:101AC00000F0D4F8082268490DF10A04200000F063
:101AD000CDF812222E4905AC200000F0C7F89DF881
:101AE000130010F11401684600F0FCF80D900D9AF7
:101AF0000D98030A6946002004E00C780EAD4455A9
:101B0000491C401C9DF813401434A042F5DB0EA97B
:101B10004354401C0EA942549DF8130010F11601C5
:101B2000C9B20EA801F0EEFC00208DF800000020E4
:101B30008DF8010000208DF812001BB030BD0000B0
:101B40009405002010B402E0401C491C521E002ADB
:101B50000CD003780C78A342F6D00078097888423C
:101B600002D25FF0FF3000E0012000E0002010BC56
:101B70007047000070740008A0760008A08601007D
:101B8000B476000824000020DC76000898050020C8
:101B9000D004002028000020F0760008B4050020C2
:101BA000F6050020047700082C0000202E000020FD
:101BB00030000020187700082C770008340000203F
:101BC00036000020D8050020D4050020D0050020D4
:101BD000000020410806002009060020CC05002056
:101BE000C80500200506002006060020E6050020A6
:101BF000E40500200E060020407700085403002072
:101C00005E03002054770008687700087C7700089E
:101C100090770008A4770008B877000856030020E2
:101C20008005002068030020380000207203002097
:101C30009004002007060020BC0500204000002082
:101C40000C780008F47700081C740008DC050020FC
:101C500040050020E00500200C0600200D060020B5
:101C600020000020C4040020C604002062B38B07BB
:101C700008D0521E11F8013B00F8013B00F024800F
:101C80008B07F6D1830740F0208000BF103A07D3BE
:101C900030B4B1E83810103AA0E83810F9D230BCAE
:101CA000530724BFB1E80810A0E8081044BF51F85A
:101CB000043B40F8043BD20724BF31F8022B20F844
:101CC000022B44BF0B7803707047083A07D3B1E882
:101CD0000810083A40F8043B40F804CBF7D2530709
:101CE000E4E7000030B44FF6FF730BE01A0092B245
:101CF000120A1B02074CD2B205786A4054F822201F
:101D00005340401C0A00511E002AEFD19BB218001C
:101D100030BC7047DC6B000880B54FF4E06001F028
:101D20009FFE25208DF8000000208DF80100002086
:101D30008DF8020001208DF80300684601F095FE41
:101D400001BD10B588B0040001214FF4804001F0BE
:101D50002BFF0121042001F027FF4FF40070ADF8A4
:101D6000000018208DF8030003208DF8020069465A
:101D70005E4800F0CFF84FF48060ADF8000003201B
:101D80008DF8020004208DF803006946574800F0E2
:101D9000C1F803940020ADF810000020ADF8120047
:101DA0000020ADF814000020ADF818000C20ADF8AC
:101DB00016000020ADF804000020ADF806004FF436
:101DC0000070ADF808000020ADF80A0003A94848EB
:101DD00001F03CFF01A9464801F098FF012240F2C2
:101DE0002551434801F0B1FF0121414801F09FFF17
:101DF000FFF792FF00203F49087000203E4908701D
:101E000008B010BD80B540F22551394801F0E1FF1E
:101E1000012835D10020394908600121012001F055
:101E2000D3FE01215FF0804002F04CF940F22551D1
:101E30002F4802F000F83248008832492D4A1278C3
:101E400050542C480078401C2A49087029480078D2
:101E5000FE2802DB00202749087001202A4908706B
:101E600000202A490870002029490870214800787C
:101E7000FF2805D100201F49087001201E49087065
:101E800008211B4801F092FF012806D108211848BB
:101E900001F099FF164801F085FF01BD80B5C0B281
:101EA000010089B2124801F079FF1148008800064C
:101EB000FBD501BD70B504000D00002604E02078BC
:101EC000FFF7ECFF641C761CF6B2EDB2AE42F6D31F
:101ED00070BD80B50E480078012806D100200C495D
:101EE000087002F045F900F0CDF901BD000801408D
:101EF000003801400306002004060020B005002041
:101F00000438014054010020ED050020EE050020BA
:101F1000EF05002070B400220025002300260024D5
:101F20000025CA7812F00F02CB78DB0601D58B783A
:101F30001A430B781B0621D00468002306E0CD78F5
:101F4000482D02D101259D4005615B1C082B14D250
:101F5000012515FA03F60D883540B542F5D19E00EE
:101F60000F25B540AC4312FA06F52C43CD78282D49
:101F7000E5D101259D404561E7E704600B88FF2B13
:101F800026DD4468002320E0012513F1080615FA38
:101F900006F60D883540B54216D19E000F25B54096
:101FA000AC4312FA06F52C43CD78282D04D1012537
:101FB00013F10806B5404561CD78482D04D10125BF
:101FC00013F10806B54005615B1C082BDCD34460A7
:101FD00070BC70470022806889B2084201D001229B
:101FE00000E000221000C0B270470022C06889B231
:101FF000084201D0012200E000221000C0B2704768
:1020000089B20161704789B241617047D2B2002A3A
:1020100002D089B2016101E089B2416170470000DC
:1020200080B50121042001F0BFFD0121082001F04D
:10203000BBFD0121102001F0B7FD0121202001F09E
:10204000B3FD0121402001F0AFFD4FF4FC50ADF88D
:10205000000010208DF8030003208DF8020069466F
:102060009048FFF757FF0A2001F0D7FCA020ADF8F9
:10207000000010208DF8030003208DF8020069464F
:102080008948FFF747FF4020ADF8000004208DF895
:10209000030003208DF8020069468348FFF73AFFEA
:1020A0002020ADF8000010208DF8030003208DF8EB
:1020B000020069467D48FFF72DFF4FF44050ADF810
:1020C000000010208DF8030003208DF802006946FF
:1020D0007548FFF71FFF0120ADF8000048208DF87C
:1020E000030069467248FFF715FF0220ADF80000B3
:1020F00048208DF8030069466D48FFF70BFF042068
:10210000ADF8000048208DF8030069466848FFF7E5
:1021100001FF1020ADF8000048208DF8030069464B
:102120006348FFF7F7FE2020ADF8000048208DF847
:10213000030069465F48FFF7EDFE0120ADF800009F
:1021400048208DF8030069465748FFF7E3FE022058
:10215000ADF8000048208DF8030069465248FFF7AB
:10216000D9FEC020ADF8000010208DF80300032038
:102170008DF8020069464E48FFF7CCFE1020ADF8FE
:10218000000010208DF8030003208DF8020069463E
:102190004848FFF7BFFE0220ADF8000010208DF880
:1021A000030003208DF8020069464248FFF7B2FEA3
:1021B00002214048FFF724FF01BD80B502F0A8F9D5
:1021C00001F002FC3C4801F092FCFFF729FF02F00D
:1021D00066FA00F0C5FB0221012000F035FC37490A
:1021E000086000F0A7F90A2001F017FC20212F4811
:1021F000FFF706FF00F02AF90A2001F00EFC80210B
:102200002948FFF7FDFE20212748FFF7F9FE00F0DF
:10221000B5FE4FF46140FFF794FD4FF4165001F006
:10222000C6F801F0DCF900F069FC254A0221022021
:1022300000F035F9234A0121032000F030F900F0C5
:1022400021F84FF4967001F0E8FB00F01BF84FF412
:10225000967001F0E2FB00F015F84FF4967001F073
:10226000DCFB00F00FF802F0E1FA02F0F4FA02F001
:102270001FFB02F032FB02F05DFB02F070FB00F08E
:1022800001F801BD80B502210A48FFF7B9FE0A2016
:1022900001F0ACFB02210748FFF7B5FE0A2001F070
:1022A000A5FB01BD00180140000C014000140140D5
:1022B00000080140001001406C0500204000002093
:1022C000DC770008E877000838B504004FF4806137
:1022D000B948FFF795FE00251EE04FF40061B648AF
:1022E000FFF791FE4FF48051B348FFF78CFE0120B9
:1022F00001F08CFB4FF48051AF48FFF781FE0120C5
:1023000001F084FB4FF48051AB48FFF77CFE0120C5
:1023100001F07CFB64006D1CEDB2082D08DAE4B21C
:102320002006DAD54FF40061A348FFF769FED9E72C
:1023300031BD10B5040000F06CF8F820FFF7C4FFC1
:102340000A2001F063FB14F0F000FFF7BDFF0A2044
:1023500001F05CFB2001C0B2FFF7B6FF10BD70B505
:10236000002500264FF480619348FFF749FE0024C2
:102370001DE06D004FF480518F48FFF744FE0120AF
:1023800001F044FB4FF480518B48FFF739FE0120E8
:1023900001F03CFB4FF480518748FFF734FE1021D9
:1023A0008548FFF722FE002800D06D1C641CE4B2B3
:1023B000082CDEDB00241DE076004FF480517E48BF
:1023C000FFF721FE012001F021FB4FF480517A48F4
:1023D000FFF716FE012001F019FB4FF480517648FB
:1023E000FFF711FE10217448FFF7FFFD002800D011
:1023F000761C641CE4B2082CDEDB4FF480616E486E
:10240000FFF701FE15F0F00016F00F010818C0B23A
:1024100070BD80B5FC20FFF757FFFFF7A0FF01BD9F
:1024200010B50400FFF7F5FFFA20FFF74DFF01207C
:1024300001F0ECFA14F0F000FFF746FF012001F084
:10244000E5FA2001C0B2FFF73FFF10BD80B50120C3
:10245000FFF76FFF01BD80B5C0B2012806D01DD3C4
:1024600003280FD008D3042812D017E051F08000C1
:10247000C0B2FFF75EFF11E051F09000C0B2FFF76D
:1024800058FF0BE051F08800C0B2FFF752FF05E0A3
:1024900051F09800C0B2FFF74CFFFFE701BD38B51F
:1024A0001400C9B2C0B2FFF7D6FF002504E0EDB2B8
:1024B000285DFFF7B5FF6D1CEDB2285D0028F6D151
:1024C00031BDF0B5C1B000241DE0A55C102695FB20
:1024D000F6F515F13006A55C102795FBF7FC0CFB13
:1024E000175C1CF13005F6B23A2E00DBF61DEDB29A
:1024F0003A2D00DBED1D6F4607F814606E4616EBB3
:1025000044067570641C9C42DFDB00226C4604F8B4
:102510001320C9B2C0B2FFF79EFF002404E0684652
:10252000205CFFF77DFF641C6846205C0028F6D124
:1025300041B0F0BD80B580211F48FFF764FD4FF426
:1025400080711D48FFF75FFD642001F066FA4FF4CB
:1025500000711948FFF757FD0A2001F057FA4FF4B0
:1025600000711548FFF74CFD642001F04FFA302050
:10257000FFF7DFFE012001F049FA0C20FFF7D9FE3A
:10258000012001F043FA0120FFF7D3FE012001F002
:102590003DFA01BD10B50400FFF758FF05A2002168
:1025A0000120FFF77CFF0423221D01210120FFF7FA
:1025B00088FF10BD4944000000180140002100229E
:1025C00003E003785940401C521CD2B2072AF8DBC2
:1025D0000800C0B2704780B50221DFF8700300F038
:1025E00045F9DFF86C03FFF7E9FFDFF86413C87102
:1025F00001BD80B5DFF85C0300780A21DFF85423C1
:1026000012780A2392FBF3F290FBF1F301FB130023
:1026100050EA0210DFF83C130870DFF83803407806
:102620000A21DFF8302352780A2392FBF3F290FB61
:10263000F1F301FB130050EA0210DFF818134870A1
:10264000DFF8100380780A21DFF8082392780A2344
:1026500092FBF3F290FBF1F301FB130050EA02103E
:10266000DFF8F0128870DFF8EC02C0780A21DFF89A
:10267000E422D2780A2392FBF3F290FBF1F301FB00
:10268000130050EA0210B349C870B24800790A2119
:10269000B04A12790A2392FBF3F290FBF1F301FBAB
:1026A000130050EA0210AB490871AA4840790A2188
:1026B000A84A52790A2392FBF3F290FBF1F301FB53
:1026C000130050EA0210A3494871A24880790A21F8
:1026D000A04A92790A2392FBF3F290FBF1F301FBFB
:1026E000130050EA02109B49887100F0B1F82021D4
:1026F000002000F046F897480178022000F041F8E9
:1027000094484178032000F03CF8924881780420F6
:1027100000F037F88F48C178052000F032F88D4876
:102720000179062000F02DF88A484179072000F051
:1027300028F888488179082000F023F8002100203B
:1027400000F01FF801BD10B5040001F0C1FFA22088
:1027500002F011F801F0E8FF2000C0B202F00BF81F
:1027600001F0E2FF01F0B4FFA32002F004F801F051
:10277000DBFF02F02BF8040001F0C3FF2000C0B221
:1027800010BD38B504000D0001F0A2FFA22001F039
:10279000F2FF01F0C9FF2000C0B201F0ECFF01F030
:1027A000C3FF2800C0B201F0E6FF01F0BDFF01F059
:1027B000A8FF31BD38B500240225002408E0280018
:1027C000C0B2FFF7C0FF6349E4B260546D1C641CE3
:1027D000E4B2072CF3DB5F48007810F07F005D491E
:1027E00008705C48407810F07F005A49487059489A
:1027F000807810F03F00574988705648C07810F034
:102800003F005449C8705348007910F007005149FF
:1028100008715048407910F01F004E4948714D48EA
:1028200080794D4908704B4840794B494870494878
:10283000C07849498870474880784749C8704548FA
:10284000407845490871434800784349487131BD93
:1028500080B500210120FFF794FF00210E20FFF733
:1028600090FF83210D20FFF78CFF01BD10B5040000
:10287000C9B2012902D002294BD05FE02078C0B252
:102880000009C0B20A21227812F00F0201FB0020D9
:10289000304988716078C0B20009C0B20A216278FC
:1028A00012F00F0201FB00202A494871A078C0B243
:1028B0000009C0B20A21A27812F00F0201FB002029
:1028C0002449C870E078C0B20009C0B20A21E27899
:1028D00012F00F0201FB00201E4988702079C0B25F
:1028E0000009C0B20A21227912F00F0201FB002078
:1028F000184948706079C0B20009C0B20A216279F3
:1029000012F00F0201FB002012490870FFF771FE60
:1029100014E0FFF74FFF1048007820700E48407811
:1029200060700D488078A0700B48C078E0700A484D
:1029300000792071084840796071FFE710BD80B5CB
:1029400001210648FFF792FF01BD00003900002079
:1029500038000020100000208C0500201800002006
:1029600080B502F045F801BD38B50400002502F03D
:1029700056F8A02002F0CCF802F07DF8200080B2DA
:10298000000AC0B202F0C4F802F075F8A4B24FF425
:10299000807094FBF0F101FB10410800C0B202F01E
:1029A000B7F802F068F802F03AF8A12002F0B0F8A7
:1029B00002F061F8002002F0D6F8050002F045F8B8
:1029C0002800C0B232BD38B504000D0002F027F86F
:1029D000A02002F09DF802F04EF8200080B2000A1C
:1029E000C0B202F095F802F046F8A4B24FF480703D
:1029F00094FBF0F101FB10410800C0B202F088F82E
:102A000002F039F82800C0B202F082F802F033F880
:102A100002F01BF8052001F000F831BDF8B5040004
:102A20000D00160000270AE0FFB2F8002900C1409F
:102A3000C9B2FFB2381980B2FFF7C5FF7F1CFFB2E1
:102A4000F6B2B742F0D3F1BDF8B504000D0000278F
:102A500000260AE03F02EDB22819F6B2801B401EA4
:102A600080B2FFF781FFC719761CF6B2EDB2AE4215
:102A7000F0D33800F2BD70B504000D00160007E079
:102A8000200080B2FFF770FF641C28706D1C761E5A
:102A9000B6B2002EF4D170BD70B504000D00160062
:102AA00006E02978200080B2FFF78DFF641C6D1CC2
:102AB0003000461E80B20028F3D170BD10B50C0066
:102AC000DBB2552B02D0AE2B0BD015E0D2B292B2B6
:102AD0000100200080B2FFF7CEFF012000F09DFF33
:102AE0000AE0D2B292B20100200080B2FFF7D4FF18
:102AF000012000F092FFFFE710BD000080B5DFF875
:102B000030040078002801D0012028E002F079F894
:102B1000322000F082FFD021EC2002F057F9DFF8DC
:102B200014140870DFF80C040078582801D0002035
:102B300015E0DFF8043418228821EC2002F06AF94D
:102B4000B322F421EC2002F09FF91422F521EC20AD
:102B500002F09AF90120DFF8D8130870012002BDB5
:102B600000B583B06B460622F721EC2002F052F943
:102B70009DF800009DF80110090151EA00309DF810
:102B8000021050EA1110DFF8B41308609DF803003A
:102B90009DF80410090151EA00309DF8051050EA33
:102BA0001110DFF89C13086007BDC110DFF88823FF
:102BB0001288B1EB4201DFF88023B2F902205143C1
:102BC000C912DFF874231288D2EB2012DA4B1B886B
:102BD000D3EB201000FB02F00013D74AB2F9042017
:102BE000504380134018D4498861D3488069052137
:102BF00048438030001270472DE9F04D8046CE48A2
:102C00008069C117B0F5FA3471F10005A4FB042303
:102C100004FB053305FB0433C748B0F91000C117A6
:102C2000A0FB026700FB037701FB0277C248B0F903
:102C30000E00C117A0FB042300FB053301FB043386
:102C40005B0443EAD2335204B6185F41BA48B0F984
:102C50000C00C117232202F033F936184F41A4FBB0
:102C6000042304FB053305FB0433B348B0F90AA081
:102C70005FEAEA7BAAFB02010AFB03110BFB0211CC
:102C8000000A40EA01600912AB4AB2F90820D317E2
:102C9000A2FB04AB02FB05BB03FB04BB5FEA0B3BDF
:102CA0004BEA1A5B5FEA0A3A10EB0A0451EB0B0598
:102CB000241C55F50045A048C2880023A2FB04014E
:102CC00002FB051103FB0411212202F00BF90400A1
:102CD0000D00002D03D1002C01D1002057E0D8F5C4
:102CE0008010C117C90741EA5001C007821B71EB70
:102CF000070340F635460027A6FB020106FB031139
:102D000007FB021122002B0002F0FEF88A4AB2F9FA
:102D10001640E51702000B00520B42EAC3425B1358
:102D2000A2FB046702FB057703FB047702000B009C
:102D3000520B42EAC3425B13A2FB064502FB075556
:102D400003FB0655640E44EAC5146D167A4AB2F9BF
:102D50001420D317A0FB026700FB037701FB027767
:102D6000F60C46EA4736FF1400196941821951EB07
:102D70000703120A42EA03621B126F48B0F91200FD
:102D8000C117090141EA1071000110185941BDE84D
:102D9000F08D2DE9F04106000F00002400255FF0C2
:102DA000000868486849097850F82100002102F0BD
:102DB00045F914D130686349634A127841F822001A
:102DC0003068386060480078401C5F4908705E4891
:102DD0000078052853DB00205B4908704FE05A4813
:102DE000007800280AD030685649574A127811EB0B
:102DF000820151F8041C02F02FF904E030685149B7
:102E0000096902F029F900F04DFA31F000415FF054
:102E100020424E4B02F094F911D2306849494A4A97
:102E2000127841F8220048480078401C4649087052
:102E300045480078052802DB0020434908705FF010
:102E400000080EE03F485FFA88F850F8280000F0CC
:102E500029FA22002B0002F08BF904000D0018F172
:102E600001085FFA88F8B8F1050FEBDB20002900B4
:102E70000022374B02F0F0F900F03CFA3860BDE870
:102E8000F08170B504000D001600FFF769FE2C48B4
:102E90000068FFF78AFE02F00BFB00222D4B02F0C8
:102EA000DBF900F027FA2C49086024480068FFF796
:102EB000A3FE02F007FB0022284B02F0CDF900F040
:102EC00019FA2749086021002548FFF762FF2248C8
:102ED00000682860200000F002F8306070BD70B516
:102EE00006003068002100F0B9F91ED21D4A1E4BC1
:102EF00014001D001D48316802F0F2FA00F0D2F90A
:102F000022002B0002F08FFD0022194B02F030F955
:102F10005FF0C042174B02F09FFF5FF00042164B7C
:102F200002F09AF900F0E6F900E0002070BD000020
:102F3000E9050020E8050020240500209C0500206C
:102F4000A005002058050020EA0500209999B93F06
:102F50000000144000005940A40500200000D940A2
:102F6000A805002028610C878A5AC83FCDEC7D4413
:102F70000000F0BF66A27240BE9F7A3F00B587B0E6
:102F800001214FF4047000F00FFE4FF4004000F0F8
:102F9000A5FD0420ADF8000000208DF8030069466F
:102FA0005E48FEF7B7FF5E4803F028F80020019066
:102FB00000208DF8080000208DF809005FF46020E3
:102FC0000390002004900C208DF8140001A95448AF
:102FD00003F042F80121524803F063F8504803F02F
:102FE0006DF84F4803F06FF80028FAD14C4803F011
:102FF00074F84B4803F076F80028FAD107B000BD0A
:1030000080B5072301220100C9B2454803F081F8C9
:103010000121434803F070F80221414803F0E8F829
:103020000028F9D03E4803F0D6F802BDF8B50400F8
:103030000D00002600270BE02000C0B2FFF7E0FFE4
:103040008619300003F0E0F8142000F0E6FC7F1C45
:10305000FFB2EDB2AF42EFD3EDB2B6FBF5F080B206
:10306000F2BD80B5002000200A210C20FFF7DEFF12
:1030700080B203F0C9F85FF0804100F061F800F021
:1030800011F90022274B02F0E7FE00F033F9264940
:1030900000F0E4F8E8D902BD1CB500200021FFF7DC
:1030A000E0FF224900F04CF800F0B6F80400E4B26A
:1030B0000A2094FBF0F100FB1140E4B20A2194FBDA
:1030C000F1F130318DF800102E218DF801103030E3
:1030D0008DF8020056208DF8030000208DF80400C2
:1030E0006A4606210120FFF7DAF9E4B2242C08DA57
:1030F00061200F49087001200E49087001200E4917
:1031000008700B480078612803D101200B49087032
:1031100002E000200949087013BD000000100140C2
:10312000002401400000483F9A9989400000204156
:1031300008060020FC0500200006002009060020EB
:10314000FF2212EAD05C1DBF12EAD153944593428C
:103150002BE09C44D30780EA01021A4043EA002096
:1031600043EA0121A1FB0030410038BF40007CF15F
:103170007F010BDBFE294ADA5B0842EAC15153EAC0
:10318000006373F1004C51EB10207047D1F1080C33
:10319000DCF120012FDB5B0810FA01F10B4373F126
:1031A000004120FA0CF05041704794451CBF02EAE0
:1031B000D153934280EA010202F000421DD0400048
:1031C00019D0490017D05BB9634514D00902B1FA90
:1031D00081F39940BCEB030CC00140F00040C1E713
:1031E0000002B0FA80FC10FA0CF0B3EB0C0CC90131
:1031F00041F00041B6E71000704740000AD0490096
:1032000008D010F1807F94BF11F1807F02E042F07E
:10321000FF407047D04370474100090E7F3915D4F5
:10322000D1F11F0114D4400007D2C00140F000408A
:10323000C84048BF6FF000407047C00140F00040F8
:10324000C8404CBF4FF000404042704700207047DC
:1032500000424FF0004058BFC04370474FF0807CA1
:103260001CEB400F94BF1CEB410F05E040EA010C42
:103270005FEA4C0C01D28142704718BF8842704708
:1032800040000DD2010E7F390AD4D1F11F0104D4C0
:10329000C00140F00040C84070477FF00000704718
:1032A000002070475FF0FF0C1CEAD05114BF61454D
:1032B00006E0C110400721F0E04101F16051704784
:1032C00079B900F0004100020AD0B0FA80FC00FA9F
:1032D0000CF001F16051A1EB0C5101EBD021400544
:1032E000704741020CBF40F4E0016FF00001002084
:1032F000704700004FEAF17CBCF1E04C2CBFBCF5FC
:10330000001F11E05FEA4C0C34BFBCF17F5F2EE080
:103310005FEA9C0C4FEA0C1C4FEA3C0CC10071F1B7
:1033200000414CEB50707047C90241EA5051C00255
:1033300018BF41F0010141F000414FEA6C50C0F16B
:103340000900212810D240EACC7CCCF1200C11FAE3
:103350000CF070F10040CCF1200C21FA0CF00CF0D4
:10336000004C40EB0C0070474FEACC7070474900AE
:1033700011F5001F04D84FEACC10FF30C00570478C
:10338000C817704780B54FF4C06000F069FB342067
:103390008DF8000000208DF8010003208DF8020058
:1033A00001208DF80300684600F05FFB01BD10B5F9
:1033B00088B004000121902000F0F6FB01215FF4A9
:1033C000002000F001FC4FF48060ADF80000032005
:1033D0008DF8020018208DF8030069465948FEF761
:1033E00099FD4FF40060ADF8000003208DF8020055
:1033F00004208DF8030069465248FEF78BFD0394C4
:103400000020ADF810000020ADF812000020ADF84B
:1034100014000020ADF818000C20ADF816000020B4
:10342000ADF804000020ADF806004FF40070ADF8D0
:1034300008000020ADF80A0003A9434800F006FC8C
:1034400001A9414800F062FC012240F225513E48AA
:1034500000F07BFC01213C4800F069FCFFF792FF83
:1034600000203A49087008B010BD80B540F22551DF
:10347000354800F0AEFC01282AD10020344908600C
:103480000121022000F0A0FB0121324800F01AFEC9
:1034900040F225512C4800F0CEFC2F4800882F49DF
:1034A0002A4A1278505429480078401C274908704D
:1034B00026480078FE2802DB0020244908700120FD
:1034C0002749087000202749087000202649087005
:1034D00008211D4800F06AFC012806D108211A487D
:1034E00000F071FC184800F05DFC01BD80B5C0B271
:1034F000010089B2144800F051FC1348008800060E
:10350000FBD501BD70B504000D00002604E0207855
:10351000FFF7ECFF641C761CF6B2EDB2AE42F6D3B8
:1035200070BD80B510480078012809D101200F49ED
:10353000087000200C49087000F077FEFEF7A2FE2C
:1035400001BD000000100140004C0040FA050020C1
:10355000BC05002000040040044C00405400002042
:10356000F0050020F1050020F2050020FB050020F9
:1035700080B50121202000F017FB4FF44070ADF81A
:10358000000010208DF8030002208DF8020069462B
:10359000DFF8AC03FEF7BEFC01BD80B54FF48070D0
:1035A000ADF8000010208DF8030002208DF8020015
:1035B0006946DFF88C03FEF7ADFC01BD80B54FF422
:1035C0008070ADF8000048208DF8030002208DF8CF
:1035D00002006946DFF86803FEF79CFC01BD80B578
:1035E000FFF7C6FF01BD10B5FFF7D7FF4FF480719D
:1035F000D348FEF705FD0A2000F0F8F94FF40071FA
:10360000CF48FEF700FD0A2000F0F0F9002410E09A
:103610004FF40071CA48FEF7F3FC0A2000F0E6F907
:103620004FF40071C648FEF7EEFC0A2000F0DEF908
:10363000641CE4B2092CEBDB00F0ABF810BD38B52C
:1036400004000025FFF7A9FF80251BE04FF48071DF
:10365000BB48FEF7D8FC0A2000F0C8F94FF400710F
:10366000B748FEF7CDFC0A2000F0C0F94FF4007116
:10367000B348FEF7C8FC0A2000F0B8F9EDB202200A
:1036800095FBF0F5EDB2002D09D02800C0B2204224
:10369000DCD04FF48071AA48FEF7B2FCDBE7FFF7FD
:1036A0008DFF4FF48071A648FEF7AAFC0A2000F0B7
:1036B0009DF94FF40071A248FEF7A2FC0A2000F029
:1036C00095F94FF480719E48FEF784FC05004FF495
:1036D00000719B48FEF797FC2800C0B232BD70B560
:1036E000040000264FF480719548FEF789FC0A20FB
:1036F00000F07CF9FFF762FF80251BE04FF40071BA
:103700008F48FEF77DFC0A2000F070F94FF48071BD
:103710008B48FEF75FFC002800D02E434FF4007169
:103720008748FEF770FC0A2000F060F9EDB2022035
:1037300095FBF0F5EDB2002DE0D1FFF72EFFE4B2DE
:10374000002C01D1012200E00022D2B24FF480719E
:103750007B48FEF75BFC0A2000F048F94FF400714B
:103760007748FEF74DFC0A2000F040F94FF4007155
:103770007348FEF748FC0A2000F038F94FF48071D6
:103780006F48FEF73DFC0A2000F030F93000C0B26F
:1037900070BD80B5FFF701FF4FF480716848FEF7F8
:1037A0002FFC0A2000F022F94FF400716448FEF764
:1037B0002AFC0A2000F01AF94FF400716048FEF765
:1037C0001FFC0A2000F012F94FF480715C48FEF7EC
:1037D0001AFC0A2000F00AF94FF400715848FEF76D
:1037E00012FC0A2000F002F94FF400715448FEF771
:1037F00007FC0A2000F0FAF84FF480715048FEF7F9
:10380000FFFB0A2000F0F2F84FF400714C48FEF77D
:10381000FAFB0A2000F0EAF801BDF8B504000D003B
:1038200016000027FFF7DFFEF6B2002E02D0012EB1
:1038300005D009E00320FFF702FF070004E00520A0
:10384000FFF7FDFE0700FFE7FFF7B8FE002738008F
:10385000471C3C49884206D24FF480713848FEF735
:10386000B9FB0028F3D14FF480713548FEF7B2FB65
:10387000002801D001200CE00120FFF730FF60702C
:103880000120FFF72CFF20700020FFF728FF287091
:103890000020F2BD2DE9F44F83469A46DFF8A89048
:1038A0002A4C2B4DDFF8AC802B4E088802F0ACFC84
:1038B0000700BBF8000002F0A7FCFFF7F3FC274A63
:1038C000274B02F0C9FA0022264B01F051FCFFF70A
:1038D00011FD834628003900FFF732FC3900FFF75D
:1038E0002FFC050020003900FFF72AFC290002F018
:1038F0009BFC494602F098FC04001B48594602F024
:1039000093FC050030003900FFF71AFC414602F035
:103910008BFC2900FFF714FC210002F085FC134901
:10392000FFF79CFC00D81248124902F0BFFC00D2FD
:1039300010480099C1F800B0CAF80000BDE8F18F46
:1039400000140140801A0600000080C054E3253DA9
:10395000A2E73BB60AD7233CACC5A7387B14AE47D9
:10396000E17A843F000044C00000C8C10100C842A1
:103970000000C842CDCCCC3D40B2002808D509019A
:103980002F4A40B210F00F00801800F8041C03E02A
:1039900009012C4A40B28154704780B5411EB1F1F3
:1039A000807F01D301200EE0401E274908600F21CF
:1039B0005FF0FF30FFF7E0FF002024490860072098
:1039C00023490860002002BD80B5224800682249D2
:1039D000B0FBF1F0FFF7E1FF002800D0FEE71C4844
:1039E0000068400840001A49086001BD01B4009811
:1039F0001A4908601648006850F001001449086030
:103A0000164800680028FBD101B0704701B5009846
:103A100064214843FFF7EAFF01BD01B500984FF468
:103A20007A714843FFF7E2FF01BD0C4800680028A7
:103A300004D00A480068401E08490860704700002A
:103A400018ED00E000E400E014E000E018E000E021
:103A500010E000E04800002040420F00AC050020CC
:103A600019490843194908607047002100220F23B3
:103A7000C17800291DD01549096811F4E061D1F51C
:103A8000E061090AD1F10402CB404178914082788B
:103A90001A40114309010E4A037899540121027812
:103AA00012F01F0291400B4A0078401142F820109A
:103AB00009E00121027812F01F029140064A0078C5
:103AC000401142F8201070470000FA050CED00E0AC
:103AD00000E400E000E100E080E100E00021524964
:103AE000096831F4404101434F48016070470021AB
:103AF0000021002200214C49096811F00C01002925
:103B000004D0042905D0082906D021E047490160E6
:103B100020E0464901601DE04349096811F4701135
:103B2000414A126812F48032890C891C002A03D1A0
:103B30003F4A514301600AE03B4A1268920303D5B1
:103B40003B4A5143016002E0384A5143016001E0C1
:103B5000364901603449096811F0F0010909354A14
:103B6000895C0268CA4042602F49096811F4E0612B
:103B7000090A304A895C4268CA4082602A49096859
:103B800011F46051C90A2B4A895C4268CA40C2607C
:103B90002549096811F44041890B274A895CC268AC
:103BA000B2FBF1F101617047C9B2002905D0234988
:103BB000096808432149086005E02049096831EA9D
:103BC00000001E4908607047C9B2002905D01C4991
:103BD000096808431A49086005E01949096831EA8B
:103BE0000000174908607047C9B2002905D015497F
:103BF000096808431349086005E01249096831EA79
:103C00000000104908607047C9B2002905D00E496C
:103C1000096808430C49086005E00B49096831EA66
:103C200000000949086070470410024000127A0041
:103C300000093D0000000020440000201810024050
:103C40001C1002400C1002401010024070B586B0EB
:103C500004000D0000200020002100210026A8897A
:103C600000282600208A4CF6FF710840E9880843A6
:103C70002082A0894EF6F3110840A9882A891143B1
:103C80006A8911430843A081A08A4FF6FF4108408A
:103C9000A9890843A0826846FFF729FF1A4886428F
:103CA00001D1039800E00298A189090406D51921E1
:103CB000484329684900B0FBF1F105E01921484368
:103CC00029688900B0FBF1F16420B1FBF0F000013C
:103CD0000209642303FB1211A289120408D5C9004A
:103CE00032316422B1FBF2F111F00701084307E021
:103CF000090132316422B1FBF2F111F00F010843E6
:103D0000208106B070BD00000038014010B40022D0
:103D1000028A4FF2FF031A400B884C8823438C8899
:103D20002343C98819430A43028210BC7047C9B2B1
:103D3000002904D0818951F40051818104E08189F6
:103D40004DF6FF7211408181704730B4002300248A
:103D50000024002589B240F66A1399420500080044
:103D6000C0B24309DBB289B211F01F04012010FA7E
:103D700004F4012B01D10C3504E0022B01D11035E4
:103D800000E01435D2B2002A03D02868204328600E
:103D900002E02868A043286030BC7047C905C90DFF
:103DA000818070478088C005C00D7047002289B2AD
:103DB000B1F5007F0088084201D0012200E0002216
:103DC0001000C0B2704789B28A0589B2C943018028
:103DD000704710B4002200230022002289B240F66E
:103DE0006A1291420A00D2B25209D2B289B211F0DB
:103DF0001F03012414FA03F3012A02D1828913401C
:103E000006E0022A02D1028A134001E0828A1340AE
:103E100089B20A0A92B2012111FA02F20088024024
:103E2000002B03D0002A01D0012200E00022100064
:103E3000C0B210BC70470022002289B240F66A125C
:103E4000914289B20A0A012111FA02F292B2D143D7
:103E50000180704780B5DFF8D81288420AD101216D
:103E60004FF40060FFF7C0FE00214FF40060FFF741
:103E7000BBFEDDE0B0F1804F08D101210120FFF74A
:103E8000C3FE00210120FFF7BFFED1E0DFF8A4123E
:103E9000884208D101210220FFF7B6FE002102204E
:103EA000FFF7B2FEC4E0DFF89012884208D101218A
:103EB0000420FFF7A9FE00210420FFF7A5FEB7E0CC
:103EC000DFF87812884208D101210820FFF79CFE14
:103ED00000210820FFF798FEAAE0DFF8641288426C
:103EE00008D101211020FFF78FFE00211020FFF7DD
:103EF0008BFE9DE0DFF84C12884208D10121202082
:103F0000FFF782FE00212020FFF77EFE90E0DFF821
:103F1000381288420AD101214FF40050FFF764FEA5
:103F200000214FF40050FFF75FFE81E0DFF81C1224
:103F300088420AD101215FF40020FFF755FE0021DD
:103F40005FF40020FFF750FE72E0DFF804128842B1
:103F50000AD101215FF48010FFF746FE00215FF4D3
:103F60008010FFF741FE63E0DFF8E81188420AD1D4
:103F700001215FF40010FFF737FE00215FF400100D
:103F8000FFF732FE54E0DFF8D011884208D101215A
:103F90004020FFF739FE00214020FFF735FE47E0C3
:103FA000DFF8B811884208D101218020FFF72CFEEC
:103FB00000218020FFF728FE3AE0DFF8A4118842B4
:103FC0000AD101214FF48070FFF71EFE00214FF44B
:103FD0008070FFF719FE2BE0DFF8881188420AD1C4
:103FE00001215FF48030FFF7FFFD00215FF4803096
:103FF000FFF7FAFD1CE0DFF8701188420AD10121B9
:104000005FF40030FFF7F0FD00215FF40030FFF7B0
:10401000EBFD0DE0DFF85411884209D101215FF476
:104020008020FFF7E1FD00215FF48020FFF7DCFD39
:1040300001BD00220288DFF8F830984212D0DFF884
:10404000083198420ED0B0F1804F0BD0DFF8E43049
:10405000984207D0DFF8E030984203D0DFF8DC3038
:10406000984204D14FF68F731A404B881A43DFF8F9
:10407000D030984208D0DFF8CC30984204D04FF6C8
:10408000FF431A40CB881A4302808A8882850A88B7
:104090000285DFF89C2090420FD0DFF8AC209042E0
:1040A0000BD0DFF8C020904207D0DFF8BC20904250
:1040B00003D0DFF8B820904201D1097A01860121AE
:1040C00081827047C9B2002904D0018851F00101F2
:1040D000018004E001884FF6FE72114001807047B4
:1040E000D2B2002A03D082891143818103E0828900
:1040F00032EA01018181704789B2C9430182704768
:10410000002200220023028A0A40808911EA00036B
:1041100092B2002A04D09BB2002B01D0012200E011
:1041200000221000C0B2704789B2C94301827047B3
:10413000002C01400004004000080040000C00403A
:10414000001000400014004000340140004C0140C9
:10415000005001400054014000180040001C004085
:104160000020004000400140004401400048014060
:1041700070B5002411E0DFF80413E4B2C0B20219F4
:10418000515C29706D1C401CC0B2BC49E4B261187E
:10419000C97A0C318842EEDB641CB9480078E4B27D
:1041A00084423ED2B548E4B2205C7B28F4D1B348C7
:1041B000B249E4B26118C97AE4B261180818067B02
:1041C000AE48AE49E4B26118C97AE4B26118081881
:1041D000407B10EB0626A948E4B22018C07A10F103
:1041E0000C01A648E4B22018FDF77CFD8642D3D12D
:1041F000A4480078C00707D4A34DA248007850F027
:104200000100A04908700AE09E480078800706D4A3
:104210009E4D9C48007850F002009A49087000209A
:10422000B2E700209649087070BD70B598480178D3
:104230009848FDF73FFE00250DE09648EDB2285C5A
:10424000242807D180219448FDF7DDFE20219248E3
:10425000FDF7D9FE6D1C8E480078EDB285424ED236
:104260008C48EDB2285C7B28E7D18A488949EDB2B9
:104270006918C97CEDB269180818067D854885491A
:10428000EDB26918C97CEDB269180818407D10EBD1
:1042900006268048EDB22818C07C10F114017D4834
:1042A000EDB22818FDF71EFD8642D3D17B48007879
:1042B000C00707D47A4C7948007850F0010077495C
:1042C00008700AE075480078800706D4754C73487A
:1042D000007850F00200714908700020C0B26D49AA
:1042E000EDB26918C97C16318842B3DA6949EDB27A
:1042F000C0B24219515C2170641C401CEEE70020E2
:104300006349087070BD80B56748006867490968EF
:1043100088421FD26648007801281BD1FDF700F8BB
:10432000002064490860012063490870634A002145
:104330000220FEF7B4F8624A00210320FEF7AFF82E
:104340005F4A00210420FEF7AAF8FDF79BFF00203A
:10435000564908605B480068132801D3FEF79CFEAD
:10436000FDF790FF58480078012804D140215748B4
:10437000FDF746FE03E040215448FDF744FE544853
:104380000078002808D053480078012804D1802103
:104390004E48FDF735FE03E080214C48FDF733FE23
:1043A0004D480078002808D04C480078012804D1F6
:1043B00010214B48FDF724FE03E010214848FDF78B
:1043C00022FE4848007801280CD100204549087099
:1043D0003B4A00210220FEF762F8394A00210320FF
:1043E000FEF75DF8FDF74EFF01BD80B53E48007851
:1043F00001280DD100203D490870012001F068FF1F
:104400003B4908703A480078002801D0FDF7DEF8F3
:1044100038480078052809DB37480078002805D09F
:104420000020344908700020334908703348006880
:1044300040F6B83188421DD331480078002819D0A1
:1044400000202E4908602F48C07C10F11601C9B227
:104450002D48FFF757F82D480078401C2B4908706D
:104460002A480078042805DB00202849087000202D
:1044700023490870FDF706FF01BD0000540100202C
:10448000030600200A0600208C030020C003002041
:10449000FA05002054000020000C01400B0600200B
:1044A000F403002028040020DC050020C0050020C3
:1044B0000D060020B4050020F60500203474000825
:1044C00048740008C4050020FB05002000080140D6
:1044D000FF050020FC050020020600200006002049
:1044E00000100140F5050020F4050020F305002030
:1044F0000E060020F7050020EC050020BC0500207A
:10450000070600205403002090040020EB05002043
:1045100080B54E48006850F001004C4908604C4896
:1045200000684C4908404A490860484800684A49C0
:104530000840464908604548006830F480204349F7
:1045400008604348006830F4FE00414908605FF4A9
:104550001F004249086000F005F85FF00060404924
:10456000086001BD80B500F001F801BD82B00020F7
:104570000190002000903548006850F480303349A5
:1045800008603248006810F4003000900198401C28
:1045900001900098002803D10198B0F5A06FF0D1E8
:1045A0002A480068800302D50120009001E0002025
:1045B00000900098012847D12A48006850F0100068
:1045C000284908602748006880088000254908605D
:1045D0002448006850F00200224908601C48006826
:1045E0001B4908601A4800681949086018480068A3
:1045F00050F48060164908601548006830F47C105B
:10460000134908601248006850F4E8101049086027
:104610000E48006850F080700C4908600B48006834
:104620008001FBD50A4800688008800008490860BE
:104630000748006850F00200054908600448006817
:1046400010F00C000828F9D102B0704700100240A9
:10465000041002400000FFF8FFFFF6FE08100240C1
:1046600008ED00E00020024080B52020ADF80000F9
:1046700002208DF8020010208DF80300694667487B
:10468000FDF748FC01BD80B52020ADF800000420F6
:104690008DF8030069466148FDF73CFC01BD80B51B
:1046A00001214020FFF780FA3020ADF80000022001
:1046B0008DF8020010208DF8030069465748FDF779
:1046C00029FC01205649086001205649086001BDB7
:1046D00080B5FFF7C9FF0120524908600120504909
:1046E00008601420FFF782F900204E49086014206A
:1046F000FFF77CF900204A4908601420FFF776F99B
:1047000001BD80B5FFF7B0FF0020464908600120D9
:10471000434908601420FFF769F901204149086006
:104720001420FFF763F901BD80B5FFF79DFF00205E
:104730003B49086001203B490860FFF7A4FF1420B3
:10474000FFF754F9012036490860002000E0401CC2
:1047500035490968002904D080B24EF660218842AC
:10476000F5DB1420FFF742F900202D4908601420E2
:10477000FFF73CF901BD38B504000025FFF774FFD1
:1047800000250DE00020274908601420FFF72EF9CE
:104790000120234908601420FFF728F964006D1CEC
:1047A000EDB2082D0BDA00201D4908601420FFF738
:1047B0001DF92006E6D501201A490860E5E700202A
:1047C000174908601420FFF711F931BD38B5FFF71C
:1047D0004BFF012013490860FFF755FF002502E059
:1047E00014F0FE046D1CEDB2082D13DA64000020F5
:1047F0000B4908601420FFF7F9F801200849086008
:104800001420FFF7F3F8084800680028E8D054F0B7
:104810000104E7E72000C0B232BD000000180140EB
:1048200090012342940123421401234280B54FF4A6
:10483000E060FFF715F91C208DF8000002208DF8CC
:10484000010003208DF8020001208DF80300684666
:10485000FFF70BF901BDE0B501210120FFF7B4F925
:104860005FF08040FFF7F6FA41F28830ADF80400BF
:104870004720ADF800000020ADF806000020ADF89C
:10488000020069465FF08040FFF7D3FB01215FF033
:104890008040FFF731FC012201215FF08040FFF7EB
:1048A0001FFC01215FF08040FFF70CFC07BD0000FA
:1048B00080B54FF4E060FFF7D3F81D208DF80000BD
:1048C00000208DF8010004208DF8020001208DF8F1
:1048D00003006846FFF7C9F801BDE0B501210220D9
:1048E000FFF772F91248FFF7B5FA4FF47A70ADF896
:1048F00004004720ADF800000020ADF806000020BD
:10490000ADF8020069460A48FFF793FB0121084809
:10491000FFF7F2FB012201210548FFF7E1FB01212E
:104920000348FFF7CFFB00210220FFF74DF907BD39
:104930000004004080B54FF4E060FFF791F81E20BE
:104940008DF8000002208DF8010005208DF802008E
:1049500001208DF803006846FFF787F801BDE0B538
:1049600001210420FFF730F91148FFF773FA4FF4E3
:10497000FA60ADF8040048F69F40ADF80000002052
:10498000ADF806000020ADF8020069460848FFF7C0
:1049900050FB01210648FFF7AFFB0122012104482B
:1049A000FFF79EFB01210248FFF78CFB07BD0000CB
:1049B0000008004080B50820ADF8000003208DF805
:1049C000020010208DF8030069467B48FDF7A2FA2B
:1049D00001BD80B50820ADF8000003208DF802006D
:1049E00048208DF8030069467348FDF793FA01BD2E
:1049F00080B501214020FFF7D7F80C20ADF800006A
:104A000010208DF8030003208DF8020069466A48E3
:104A1000FDF780FA0C216848FDF7F2FA01BD80B578
:104A2000FEF7BBFD0120654908600120644908606C
:104A30000420FEF7DBFF0020604908600420FEF739
:104A4000D5FF00205E49086001BD80B5FFF7B2FFC9
:104A500000205B4908600020584908600420FEF7E8
:104A6000C5FF012056490860012054490860042010
:104A7000FEF7BCFF01BD10B50024FFF7AAFF01201F
:104A80004E4908600120FEF7B1FF01204C49086043
:104A90000120FEF7ABFF4B480068002807D0641CDC
:104AA000E4B2FB2CF7DBFFF7D0FF012003E000208E
:104AB00043490860002010BD80B5002040490860CF
:104AC000FFF778FF00203D4908600220FEF78EFFC7
:104AD00001203B4908600220FEF788FF002038498A
:104AE000086001BD80B5002035490860FFF762FF0E
:104AF0000120324908600220FEF778FF012030498A
:104B000008600220FEF772FF00202D49086001BDF9
:104B100038B50400FFF74EFF002029490860002542
:104B200013E000202549086064000220FEF75EFFC4
:104B30000120234908600220FEF758FF0020204989
:104B400008600220FEF752FF6D1CEDB2082D09DA55
:104B50002000C0B2C009C0B20028E2D0012017492D
:104B60000860E1E731BD70B504000026FFF731FFB2
:104B7000002512E00020124908600220FEF736FFEF
:104B800001200F49086076000E480068002800D018
:104B9000761C0120FEF72AFF6D1CEDB2082DE9DB23
:104BA000E4B2002C02D1FFF79DFF01E0FFF784FF84
:104BB0003000C0B270BD0000001801408C012342DB
:104BC000880123420C01234280B54FF48050ADF898
:104BD000000003208DF8020010208DF803006946C4
:104BE0007648FDF797F901BD80B54FF48050ADF8D8
:104BF000000004208DF8030069467048FDF78AF92B
:104C000001BD80B501210820FEF7CEFF4FF44050D2
:104C1000ADF8000010208DF8030003208DF802008D
:104C200069466648FDF776F901206549086001206C
:104C30006449086001BD80B5FFF7C6FF01206149E6
:104C4000086001205E4908600420FEF7CFFE0020C6
:104C50005C4908600420FEF7C9FE0020584908603E
:104C600001BD80B5FFF7B0FF012055490860002065
:104C7000544908600420FEF7B9FE0120514908603C
:104C80000420FEF7B3FE01BD10B5002401204D49FC
:104C900008600120FEF7AAFE0120494908600120B2
:104CA000FEF7A4FEFFF7A0FF47480068002807D0E2
:104CB000641CE4B2FB2CF7DBFFF7D3FF012003E019
:104CC00000203F490860002010BD80B500203C490D
:104CD0000860FFF779FF00203A4908600220FEF7DC
:104CE00085FE0120364908600220FEF77FFE002085
:104CF0003349086001BD80B5002031490860FFF7E5
:104D000063FF01202F4908600220FEF76FFE01209B
:104D10002B4908600220FEF769FE00202849086040
:104D200001BD38B50400FFF74FFF0020244908609B
:104D3000002516E02000C0B2C009C0B221490860B9
:104D400064000220FEF752FE01201D490860022087
:104D5000FEF74CFE00201A4908600220FEF746FECE
:104D60006D1CEDB2082DE5DB31BD70B504000026E9
:104D7000FFF73AFF002512E00020114908600220E9
:104D8000FEF734FE01200E49086076000E480068E8
:104D9000002800D0761C0120FEF728FE6D1CEDB225
:104DA000082DE9DBE4B2002C02D1FFF7A4FF01E0FB
:104DB000FFF78BFF3000C0B270BD0000000C014057
:104DC000B4812142B08121423081214270B504007A
:104DD0000D000026FFF72FFF2000C0B2FFF7A1FF54
:104DE000FFF752FF2800C0B2FFF79BFFFFF74CFF11
:104DF000FFF721FF54F00100C0B2FFF792FFFFF769
:104E000043FF0020FFF7B1FF0600FFF72AFF300045
:104E1000C0B270BD2DE9F04104000D0016001F0066
:104E20005FF00008FFF707FF2000C0B2FFF779FF2F
:104E3000FFF72AFF2800C0B2FFF773FFFFF724FF38
:104E4000FFF7F9FE54F00100C0B2FFF76AFFFFF769
:104E50001BFF5FF0000806E00120FFF786FF08F85F
:104E6000070018F10108F6B2B04509DAF6B2701E73
:104E70008045F1D10020FFF778FF08F80700F0E740
:104E8000FFF7EFFEBDE8F08170B504000D001600DD
:104E9000FFF7D1FE2000C0B2FFF743FFFFF7F4FE9B
:104EA0002800C0B2FFF73DFFFFF7EEFE3000C0B2B2
:104EB000FFF737FFFFF7E8FEFFF7D3FE70BD0000F6
:104EC000D2B2203A22BF00FA02F1002070475242CB
:104ED000D041D2F1200291404140D0409040414029
:104EE00070470000D2B2203A22BF41FA02F0C9173F
:104EF00070472032D141D04048409140D140484095
:104F0000914011417047000013F0004C03D55B4203
:104F1000524263F100039CEA210C00F0178010B5A7
:104F2000644603D34942404261F1000100F00EF8AB
:104F3000640004D34942404261F10001244203D598
:104F40005B42524263F1000310BD00001B4213D1CB
:104F5000094236D12AB18446B0FBF2F002FB10C2FE
:104F6000704701F073BAFCD30022002370470B0096
:104F70000200002100207047904271EB030CF6D331
:104F800070B5B1FA81F4B3FA83F52C1BA340C4F1D8
:104F9000200532FA05F63343A2405FF00046E640B2
:104FA00002E05B085FEA3202841A71EB030524BF5A
:104FB000204629467641F4D302000B003000002140
:104FC00070BD012ACFD970B5140C20D0B1FA81F48C
:104FD000B2FA82F5C4F120046419B4F12006D6D3E4
:104FE000B2405FF00044F440002502E052085FEA5E
:104FF0003303C61A71EB020E24BF3046714664417A
:105000006D41F3D302000B002000290070BD0C4657
:10501000B1FBF2F102FB11452D0445EA1045B5FB49
:10502000F2F402FB145580B240EA0545B5FBF2F0FC
:1050300002FB105240EA044070BD000040EA010C3F
:105040005FEA4C0C07D0884205D14FEA400C1CF1B6
:10505000807F98BF8042704790EA010F44BF81F083
:10506000004101F0E9B800BF431A4FF000423EBFD3
:105070005340C01AC91800BFD3095FEAD05C13EBD4
:10508000400F34BFB3EB410F40E07CEBD1530CD366
:1050900042EA012122D8D1EB402009D3400A28BF9F
:1050A0005FEA500140EBCC507047401A15D04002E7
:1050B000B0FA80F2521C9040400A4FEA3C23B3EB16
:1050C000026384BF00EB730007E040F400001A168F
:1050D000DB07C2F10102D04018437047182BFCDCFB
:1050E00031FA03F202FA03F3591A38BF42F001020F
:1050F000D2EB40203CBF4000ACF1010C5FEACC5C3D
:10510000C20572F100414CEB5020704713EB400F89
:105110000FD24B0009D0ACEBD153022B03DB490279
:10512000172BDDDD70479143401A4300D5D1002095
:10513000704713EB410FD0D36FF0000070470000B1
:105140004FF4001C1CEB410F94BF1CEB430F09E014
:1051500041EA030C50EA4C0C52EA0C0C03D299427F
:1051600008BF9042704714BF8B42824270470000D4
:10517000F0B44FF0004591EA030C44BF6B4001F0DE
:1051800071B900BF841A71EB030603D2001BB14151
:10519000121973414FF4001C1CEB410F34BF7CEB20
:1051A000430443E00C0DA4EB1356352E50DC45EAC6
:1051B000C323DB0A45EAC121C912B6F120050DDD82
:1051C00063FA05F6EB4086EA0305124218BF45F084
:1051D0000105C01851F100010CD213E062FA06F586
:1051E000F2405540F3415A40B340F3405A408018D2
:1051F000594107D349085FEA30005FEA350528BF07
:1052000045F0010501F58011420875F1004250F1A9
:10521000000041EB0451F0BC4FF4001C1CEB410FAB
:1052200038BF70470020090D090570471CEB410F7E
:1052300010D252EA43060BD0BCEB410F05D80C0D3F
:10524000AB43661E342EB5DD02E0AB4380185941F6
:10525000F0BC7047F0BC70472DE9F04140F2FF759B
:1052600081EA030C0CF0004C15EA11541DBF15EA3D
:105270001357AC42AF42E9E0BC41C1F31301C3F3A1
:105280001303801A994143F4801304D2641E400032
:10529000494180185941C90241EA5051B1FBF3F626
:1052A00003FB1611A2FB0675D7EBC020A94102D261
:1052B000761E80185941C90241EA5051B1FBF3FEF4
:1052C00003FB1E11A2FB0E75D7EBC020A94103D230
:1052D000AEF1010E80185941890241EA90517605DC
:1052E00046EA8E2EB1FBF3F603FB1611A2FB067500
:1052F000D7EB8020A94102D2761E80185941C902FD
:1053000041EA50514EEA060EB1FBF3F603FB1611CB
:10531000A2FB0675D7EBC020A94102D2761E8018E9
:105320005941C90241EA5051B1FBF3F703FB171190
:10533000A2FB0735D3EBC020A94167F100070CBFE2
:10534000004247F0010766F3D5274FEA1E31B8083F
:1053500014F5806414DDBD0775F1004250EB0E506A
:1053600051EB045111F5801F5CBF41EA0C01BDE80F
:10537000F0814CF07F6141F0E0410020BDE8F08118
:10538000BD076D0840EA0E5041F48011D4F10104CC
:10539000B4F120060ADAC4F120060200E04001FA66
:1053A00006F3E1401843B24015430EE0342C14DC00
:1053B000C6F1200445EA40056D0820FA06F21543BF
:1053C00021FA06F0A1400D43002175F1004250F191
:1053D000000051EB0C01BDE8F08100205FEA0C01F8
:1053E000BDE8F081CFB992185B41B3FA83F704BFEF
:1053F000B2FA82F6BF190B3FB7F120062FBF02FAAF
:1054000006F3BB40C7F1200622FA06F638BF334345
:10541000BA401CB1E419641E2FE77F4231F000410D
:10542000B1FA81F404BFB0FA80F6A4190B3CB4F1D0
:1054300020062FBF00FA06F1A140C4F1200620FA91
:1054400006F638BF3143A0403C1B16E7AC421ABFFA
:1054500005EA1357AF4214E050EA41061CBF52EA76
:105460004306BFE750EA4107304661461CBF41EAA8
:105470000551BDE8F08152EA430C08BFC143BDE8C5
:10548000F08100204FF4001616EB410F98BF16EB89
:10549000430F08BF16EB410F24BFC14305E016EBD5
:1054A000430F0CBF61464CEA0551BDE8F081000096
:1054B000010040F10980F446404200F005F851F047
:1054C00000416047010000BF09D0B0FA80F1884078
:1054D000C91CC1F58461090501EBD0214005704765
:1054E00010B5FF2313EAD0541DBF13EAD1529C42DA
:1054F0009A4239E0A41ADA0780EA0103134042EA2B
:10550000012142EA0020421A3CBF641E01EB420224
:10551000090AB2FBF1FE01FB1E221202B2FBF1F0FE
:1055200001FB10226EF30F201202B2FBF1FE4EEAD5
:1055300000207F3406DDFE2C24DA53EA500050EBC5
:10554000C45010BDD4F1020401FB1E2240F0807152
:10555000192C1DDC21FA04F0C4F12004A1401143F0
:1055600071F10042584110BD9C421ABF03EAD1526A
:105570009A420FE080EA010E0EF00043400004D092
:10558000490016D143F0FF4010BD490008BFD34386
:10559000180010BD9C4205D1D21AF7D001F000418D
:1055A000484010BD4A0212BF0846484000F0004083
:1055B00010BD4AB90902B1FA81F2914044B1A41870
:1055C000C00140F000409EE7C90141F00041524255
:1055D0000002B0FA80F4A040141B94E710B450F815
:1055E000041B79B10268436812180830DC0744BF15
:1055F000A9F10104E31852F8044B43F8044B091FC6
:10560000F9D1ECE710BC70472DE9FF4D86B0DDE91C
:105610000801CDE904010798C0F30A5040F2FF7178
:10562000884208D107980027000305BF0698002884
:105630000224012412E0012807DA06A800F0C8FFBE
:10564000012802DB0027002408E0079A40F2FE311F
:1056500061F31E520792471A4FF0FF34002104A84D
:1056600000F0D7FF0546129810B11299002008806B
:1056700035B9DDE908230020002101F007F811D039
:10568000002C11D53FB2012F13D1DDE906230020F4
:10569000CA4900F0FBFF05D0012D0AD1C84900F02E
:1056A000F5FF2ED1C749BBE1022C04D1DDE906018B
:1056B000B6E1012D59DB022D08BFDDE9080100F03C
:1056C000AF81012C1BD107980028099802D400282B
:1056D00048D532E0002809D4002D43D14FF0FF31E6
:1056E00004A800F096FF00283CD538E02DBB4FF011
:1056F000FF3104A800F08DFF00281ED519E0012D10
:1057000009D1099800283FB202D4012F2ADA14E007
:10571000012F12DA26E00998002811D46DB94FF054
:10572000FF3104A800F075FF002844BF0798002847
:1057300003D500204FF0004172E1002000216FE10D
:1057400000F0B4FF2221016065B94FF0FF3104A8D9
:1057500000F05FFF002844BF0798002802D5002012
:1057600099495DE1002099495AE10798002848BF0E
:10577000002D08D500F09AFF212101604FF0FF3085
:105780006FF000414CE1DDE906010022002300F04A
:1057900093FF38BFADF804200AD381F00041CDE972
:1057A00006014FF0FF3104A800F033FFADF804000C
:1057B000012F13D1DDE90601854A864BFFF7C0FCB6
:1057C0000CD2DDE9062300204FF0804100F044FBBD
:1057D000CDE90601002600247A4D1BE0DDE9062311
:1057E00000207D49754D00F037FB00222B46FFF766
:1057F000BFFC00F079FFA0F120063046FFF758FE0D
:105800000022764B00F028FB00222B46FFF7B0FC6D
:1058100004460D460FF2202000EB46100090224671
:10582000DDE906012B4600F013FE82468B46DDE9DA
:10583000060122462B46FFF79BFC02460B465046CC
:105840005946FFF709FDCDE90401DDE9042300F025
:1058500003FBCDE906AB0646884600F06BFF3246F7
:10586000434600F0F9FADDE9062300F0F1FD0646B3
:1058700088460020534922462B4600F0E9FD0022CD
:105880004FF0804300F0E8FA32464346FFF770FCE1
:10589000DDE9042300F0E0FA02460B46DDE90601EB
:1058A000FFF766FC04460D464D4A4E4BFFF7D4FC0D
:1058B000CDE904013846FFF7FBFD009A07468B4609
:1058C000D2E900013A465B46FFF752FCDDE90423CA
:1058D000FFF74EFCCDE90401DDE9082300F0BCFA36
:1058E000CDE902010022404BFFF72AFCC0F0808086
:1058F00001223E4B00F0E0FE40F27E8000220023B9
:10590000FFF71EFCDDE9022339BF00202C490020EF
:105910002A49FFF72DFC00F0E7FE0646DDE9080105
:1059200022462B4600F098FACDE90201009A2C4C51
:105930002C4DD2E902019046D8E90423FFF718FC68
:10594000DDE9082300F088FA22462B4600F084FAAD
:10595000DDE90223FFF70CFCCDE90201DDF8008050
:105960003A46D8E900015B46FFF702FCDDE908236F
:1059700000F072FA07468B463046FFF799FD024663
:105980000B463846594600F063FD22462B4600F090
:1059900063FADDE90223FFF7EBFBCDE90201129880
:1059A00008B10680002600960022064B02A800F0EF
:1059B00017FFE8B101281FD02AE000BF0000E03F38
:1059C0000000E0BF0000F03F0000F0FF0000F07FAB
:1059D000CD3B7F669EA0E63F000050400000903F18
:1059E000EF39FAFE422EE63F0000E0C00000E04042
:1059F0000020CDE9020007E00020014902E000BFDD
:105A00000000F07FCDE9020100F050FE222101608C
:105A1000BDF904000028DDE9020118BF81F0004152
:105A20000AB0BDE8F08D10B582B000240094FFF7F5
:105A3000EBFD1CBD00000000000000000000F0BFF6
:105A40000000000000000080000000000000008056
:105A50000000000000000000000000C05294EEBFF3
:105A600000000048204E51BE000000F86467BCBC36
:105A70000000000000000000000000208133EDBFA6
:105A800000000080B3DB14BE000000506706A3BC1A
:105A90000000000000000000000000D0E9DCEBBFC7
:105AA00000000008C39259BE00000080B0D3B8BC0B
:105AB000000000000000000000000070F98FEABF45
:105AC000000000C0A51028BE000000E8BFC0B0BCA8
:105AD000000000000000000000000070284CE9BF3A
